{
	"Lottery/lottery.sol": {
		"lottery": {
			"abi": [
				{
					"inputs": [],
					"stateMutability": "nonpayable",
					"type": "constructor"
				},
				{
					"anonymous": false,
					"inputs": [
						{
							"indexed": false,
							"internalType": "uint256",
							"name": "",
							"type": "uint256"
						},
						{
							"indexed": false,
							"internalType": "address",
							"name": "",
							"type": "address"
						}
					],
					"name": "buyingTokens",
					"type": "event"
				},
				{
					"anonymous": false,
					"inputs": [
						{
							"indexed": false,
							"internalType": "uint256",
							"name": "",
							"type": "uint256"
						},
						{
							"indexed": false,
							"internalType": "address",
							"name": "",
							"type": "address"
						}
					],
					"name": "event_ticket_purchased",
					"type": "event"
				},
				{
					"anonymous": false,
					"inputs": [
						{
							"indexed": false,
							"internalType": "uint256",
							"name": "",
							"type": "uint256"
						}
					],
					"name": "event_ticket_winner",
					"type": "event"
				},
				{
					"anonymous": false,
					"inputs": [
						{
							"indexed": false,
							"internalType": "uint256",
							"name": "",
							"type": "uint256"
						},
						{
							"indexed": false,
							"internalType": "address",
							"name": "",
							"type": "address"
						}
					],
					"name": "event_token_exchange",
					"type": "event"
				},
				{
					"inputs": [],
					"name": "availableTokens",
					"outputs": [
						{
							"internalType": "uint256",
							"name": "",
							"type": "uint256"
						}
					],
					"stateMutability": "view",
					"type": "function"
				},
				{
					"inputs": [
						{
							"internalType": "uint256",
							"name": "_tickets",
							"type": "uint256"
						}
					],
					"name": "buyTicket",
					"outputs": [],
					"stateMutability": "nonpayable",
					"type": "function"
				},
				{
					"inputs": [
						{
							"internalType": "uint256",
							"name": "_tokenAmount",
							"type": "uint256"
						}
					],
					"name": "buyTokens",
					"outputs": [],
					"stateMutability": "payable",
					"type": "function"
				},
				{
					"inputs": [],
					"name": "contract_address",
					"outputs": [
						{
							"internalType": "address",
							"name": "",
							"type": "address"
						}
					],
					"stateMutability": "view",
					"type": "function"
				},
				{
					"inputs": [
						{
							"internalType": "uint256",
							"name": "_tokenAmount",
							"type": "uint256"
						}
					],
					"name": "exchangeTokens",
					"outputs": [],
					"stateMutability": "payable",
					"type": "function"
				},
				{
					"inputs": [],
					"name": "getWinner",
					"outputs": [],
					"stateMutability": "nonpayable",
					"type": "function"
				},
				{
					"inputs": [
						{
							"internalType": "uint256",
							"name": "_tokenAmount",
							"type": "uint256"
						}
					],
					"name": "mintTokens",
					"outputs": [],
					"stateMutability": "nonpayable",
					"type": "function"
				},
				{
					"inputs": [],
					"name": "myTokensBalance",
					"outputs": [
						{
							"internalType": "uint256",
							"name": "",
							"type": "uint256"
						}
					],
					"stateMutability": "view",
					"type": "function"
				},
				{
					"inputs": [],
					"name": "owner",
					"outputs": [
						{
							"internalType": "address",
							"name": "",
							"type": "address"
						}
					],
					"stateMutability": "view",
					"type": "function"
				},
				{
					"inputs": [],
					"name": "poolPrize",
					"outputs": [
						{
							"internalType": "uint256",
							"name": "",
							"type": "uint256"
						}
					],
					"stateMutability": "view",
					"type": "function"
				},
				{
					"inputs": [],
					"name": "ticket_price",
					"outputs": [
						{
							"internalType": "uint256",
							"name": "",
							"type": "uint256"
						}
					],
					"stateMutability": "view",
					"type": "function"
				},
				{
					"inputs": [],
					"name": "yourTickets",
					"outputs": [
						{
							"internalType": "uint256[]",
							"name": "",
							"type": "uint256[]"
						}
					],
					"stateMutability": "view",
					"type": "function"
				}
			],
			"devdoc": {
				"kind": "dev",
				"methods": {},
				"version": 1
			},
			"evm": {
				"assembly": "    /* \"Lottery/lottery.sol\":81:3982  contract lottery{... */\n  mstore(0x40, 0x80)\n    /* \"Lottery/lottery.sol\":298:303  10000 */\n  0x2710\n    /* \"Lottery/lottery.sol\":276:303  uint created_tokens = 10000 */\n  0x03\n  sstore\n    /* \"Lottery/lottery.sol\":1848:1849  2 */\n  0x02\n    /* \"Lottery/lottery.sol\":1821:1849  uint public ticket_price = 2 */\n  0x04\n  sstore\n    /* \"Lottery/lottery.sol\":2082:2083  0 */\n  0x00\n    /* \"Lottery/lottery.sol\":2065:2083  uint randNonce = 0 */\n  0x07\n  sstore\n    /* \"Lottery/lottery.sol\":380:518  constructor(){... */\n  callvalue\n  dup1\n  iszero\n  tag_1\n  jumpi\n  0x00\n  dup1\n  revert\ntag_1:\n  pop\n    /* \"Lottery/lottery.sol\":426:440  created_tokens */\n  sload(0x03)\n    /* \"Lottery/lottery.sol\":411:441  new ERC20Basic(created_tokens) */\n  mload(0x40)\n  tag_4\n  swap1\n  tag_5\n  jump\t// in\ntag_4:\n  tag_6\n  swap2\n  swap1\n  tag_7\n  jump\t// in\ntag_6:\n  mload(0x40)\n  dup1\n  swap2\n  sub\n  swap1\n  0x00\n  create\n  dup1\n  iszero\n  dup1\n  iszero\n  tag_8\n  jumpi\n  returndatasize\n  0x00\n  dup1\n  returndatacopy\n  revert(0x00, returndatasize)\ntag_8:\n  pop\n    /* \"Lottery/lottery.sol\":403:408  token */\n  0x00\n  dup1\n    /* \"Lottery/lottery.sol\":403:441  token = new ERC20Basic(created_tokens) */\n  0x0100\n  exp\n  dup2\n  sload\n  dup2\n  0xffffffffffffffffffffffffffffffffffffffff\n  mul\n  not\n  and\n  swap1\n  dup4\n  0xffffffffffffffffffffffffffffffffffffffff\n  and\n  mul\n  or\n  swap1\n  sstore\n  pop\n    /* \"Lottery/lottery.sol\":459:469  msg.sender */\n  caller\n    /* \"Lottery/lottery.sol\":451:456  owner */\n  0x01\n  0x00\n    /* \"Lottery/lottery.sol\":451:469  owner = msg.sender */\n  0x0100\n  exp\n  dup2\n  sload\n  dup2\n  0xffffffffffffffffffffffffffffffffffffffff\n  mul\n  not\n  and\n  swap1\n  dup4\n  0xffffffffffffffffffffffffffffffffffffffff\n  and\n  mul\n  or\n  swap1\n  sstore\n  pop\n    /* \"Lottery/lottery.sol\":506:510  this */\n  address\n    /* \"Lottery/lottery.sol\":479:495  contract_address */\n  0x02\n  0x00\n    /* \"Lottery/lottery.sol\":479:511  contract_address = address(this) */\n  0x0100\n  exp\n  dup2\n  sload\n  dup2\n  0xffffffffffffffffffffffffffffffffffffffff\n  mul\n  not\n  and\n  swap1\n  dup4\n  0xffffffffffffffffffffffffffffffffffffffff\n  and\n  mul\n  or\n  swap1\n  sstore\n  pop\n    /* \"Lottery/lottery.sol\":81:3982  contract lottery{... */\n  jump(tag_9)\ntag_5:\n  dataSize(sub_1)\n  dup1\n  dataOffset(sub_1)\n  dup4\n  codecopy\n  add\n  swap1\n  jump\t// out\n    /* \"#utility.yul\":7:84   */\ntag_10:\n    /* \"#utility.yul\":44:51   */\n  0x00\n    /* \"#utility.yul\":73:78   */\n  dup2\n    /* \"#utility.yul\":62:78   */\n  swap1\n  pop\n    /* \"#utility.yul\":7:84   */\n  swap2\n  swap1\n  pop\n  jump\t// out\n    /* \"#utility.yul\":90:208   */\ntag_11:\n    /* \"#utility.yul\":177:201   */\n  tag_15\n    /* \"#utility.yul\":195:200   */\n  dup2\n    /* \"#utility.yul\":177:201   */\n  tag_10\n  jump\t// in\ntag_15:\n    /* \"#utility.yul\":172:175   */\n  dup3\n    /* \"#utility.yul\":165:202   */\n  mstore\n    /* \"#utility.yul\":90:208   */\n  pop\n  pop\n  jump\t// out\n    /* \"#utility.yul\":214:436   */\ntag_7:\n    /* \"#utility.yul\":307:311   */\n  0x00\n    /* \"#utility.yul\":345:347   */\n  0x20\n    /* \"#utility.yul\":334:343   */\n  dup3\n    /* \"#utility.yul\":330:348   */\n  add\n    /* \"#utility.yul\":322:348   */\n  swap1\n  pop\n    /* \"#utility.yul\":358:429   */\n  tag_17\n    /* \"#utility.yul\":426:427   */\n  0x00\n    /* \"#utility.yul\":415:424   */\n  dup4\n    /* \"#utility.yul\":411:428   */\n  add\n    /* \"#utility.yul\":402:408   */\n  dup5\n    /* \"#utility.yul\":358:429   */\n  tag_11\n  jump\t// in\ntag_17:\n    /* \"#utility.yul\":214:436   */\n  swap3\n  swap2\n  pop\n  pop\n  jump\t// out\n    /* \"Lottery/lottery.sol\":81:3982  contract lottery{... */\ntag_9:\n  dataSize(sub_0)\n  dup1\n  dataOffset(sub_0)\n  0x00\n  codecopy\n  0x00\n  return\nstop\n\nsub_0: assembly {\n        /* \"Lottery/lottery.sol\":81:3982  contract lottery{... */\n      mstore(0x40, 0x80)\n      jumpi(tag_1, lt(calldatasize, 0x04))\n      shr(0xe0, calldataload(0x00))\n      dup1\n      0x69bb4dc2\n      gt\n      tag_14\n      jumpi\n      dup1\n      0x69bb4dc2\n      eq\n      tag_8\n      jumpi\n      dup1\n      0x835a1fae\n      eq\n      tag_9\n      jumpi\n      dup1\n      0x8da5cb5b\n      eq\n      tag_10\n      jumpi\n      dup1\n      0x8e7ea5b2\n      eq\n      tag_11\n      jumpi\n      dup1\n      0x966b3514\n      eq\n      tag_12\n      jumpi\n      dup1\n      0x97304ced\n      eq\n      tag_13\n      jumpi\n      jump(tag_1)\n    tag_14:\n      dup1\n      0x19d41c69\n      eq\n      tag_2\n      jumpi\n      dup1\n      0x3610724e\n      eq\n      tag_3\n      jumpi\n      dup1\n      0x40477126\n      eq\n      tag_4\n      jumpi\n      dup1\n      0x4d3a2cbc\n      eq\n      tag_5\n      jumpi\n      dup1\n      0x591d4698\n      eq\n      tag_6\n      jumpi\n      dup1\n      0x67dd74ca\n      eq\n      tag_7\n      jumpi\n    tag_1:\n      0x00\n      dup1\n      revert\n        /* \"Lottery/lottery.sol\":1821:1849  uint public ticket_price = 2 */\n    tag_2:\n      callvalue\n      dup1\n      iszero\n      tag_15\n      jumpi\n      0x00\n      dup1\n      revert\n    tag_15:\n      pop\n      tag_16\n      tag_17\n      jump\t// in\n    tag_16:\n      mload(0x40)\n      tag_18\n      swap2\n      swap1\n      tag_19\n      jump\t// in\n    tag_18:\n      mload(0x40)\n      dup1\n      swap2\n      sub\n      swap1\n      return\n        /* \"Lottery/lottery.sol\":1094:1516  function buyTokens(uint _tokenAmount) public payable{... */\n    tag_3:\n      tag_20\n      0x04\n      dup1\n      calldatasize\n      sub\n      dup2\n      add\n      swap1\n      tag_21\n      swap2\n      swap1\n      tag_22\n      jump\t// in\n    tag_21:\n      tag_23\n      jump\t// in\n    tag_20:\n      stop\n        /* \"Lottery/lottery.sol\":3636:3978  function exchangeTokens(uint _tokenAmount) public payable{... */\n    tag_4:\n      tag_24\n      0x04\n      dup1\n      calldatasize\n      sub\n      dup2\n      add\n      swap1\n      tag_25\n      swap2\n      swap1\n      tag_22\n      jump\t// in\n    tag_25:\n      tag_26\n      jump\t// in\n    tag_24:\n      stop\n        /* \"Lottery/lottery.sol\":1689:1793  function myTokensBalance() public view returns (uint){... */\n    tag_5:\n      callvalue\n      dup1\n      iszero\n      tag_27\n      jumpi\n      0x00\n      dup1\n      revert\n    tag_27:\n      pop\n      tag_28\n      tag_29\n      jump\t// in\n    tag_28:\n      mload(0x40)\n      tag_30\n      swap2\n      swap1\n      tag_19\n      jump\t// in\n    tag_30:\n      mload(0x40)\n      dup1\n      swap2\n      sub\n      swap1\n      return\n        /* \"Lottery/lottery.sol\":2984:3095  function yourTickets() public view returns (uint[] memory){... */\n    tag_6:\n      callvalue\n      dup1\n      iszero\n      tag_31\n      jumpi\n      0x00\n      dup1\n      revert\n    tag_31:\n      pop\n      tag_32\n      tag_33\n      jump\t// in\n    tag_32:\n      mload(0x40)\n      tag_34\n      swap2\n      swap1\n      tag_35\n      jump\t// in\n    tag_34:\n      mload(0x40)\n      dup1\n      swap2\n      sub\n      swap1\n      return\n        /* \"Lottery/lottery.sol\":2322:2951  function buyTicket(uint _tickets) public{... */\n    tag_7:\n      callvalue\n      dup1\n      iszero\n      tag_36\n      jumpi\n      0x00\n      dup1\n      revert\n    tag_36:\n      pop\n      tag_37\n      0x04\n      dup1\n      calldatasize\n      sub\n      dup2\n      add\n      swap1\n      tag_38\n      swap2\n      swap1\n      tag_22\n      jump\t// in\n    tag_38:\n      tag_39\n      jump\t// in\n    tag_37:\n      stop\n        /* \"Lottery/lottery.sol\":962:1071  function availableTokens() public view returns(uint){... */\n    tag_8:\n      callvalue\n      dup1\n      iszero\n      tag_40\n      jumpi\n      0x00\n      dup1\n      revert\n    tag_40:\n      pop\n      tag_41\n      tag_42\n      jump\t// in\n    tag_41:\n      mload(0x40)\n      tag_43\n      swap2\n      swap1\n      tag_19\n      jump\t// in\n    tag_43:\n      mload(0x40)\n      dup1\n      swap2\n      sub\n      swap1\n      return\n        /* \"Lottery/lottery.sol\":1558:1651  function poolPrize() public view returns (uint){... */\n    tag_9:\n      callvalue\n      dup1\n      iszero\n      tag_44\n      jumpi\n      0x00\n      dup1\n      revert\n    tag_44:\n      pop\n      tag_45\n      tag_46\n      jump\t// in\n    tag_45:\n      mload(0x40)\n      tag_47\n      swap2\n      swap1\n      tag_19\n      jump\t// in\n    tag_47:\n      mload(0x40)\n      dup1\n      swap2\n      sub\n      swap1\n      return\n        /* \"Lottery/lottery.sol\":183:203  address public owner */\n    tag_10:\n      callvalue\n      dup1\n      iszero\n      tag_48\n      jumpi\n      0x00\n      dup1\n      revert\n    tag_48:\n      pop\n      tag_49\n      tag_50\n      jump\t// in\n    tag_49:\n      mload(0x40)\n      tag_51\n      swap2\n      swap1\n      tag_52\n      jump\t// in\n    tag_51:\n      mload(0x40)\n      dup1\n      swap2\n      sub\n      swap1\n      return\n        /* \"Lottery/lottery.sol\":3118:3595  function getWinner() public onlyOwner(){... */\n    tag_11:\n      callvalue\n      dup1\n      iszero\n      tag_53\n      jumpi\n      0x00\n      dup1\n      revert\n    tag_53:\n      pop\n      tag_54\n      tag_55\n      jump\t// in\n    tag_54:\n      stop\n        /* \"Lottery/lottery.sol\":209:240  address public contract_address */\n    tag_12:\n      callvalue\n      dup1\n      iszero\n      tag_56\n      jumpi\n      0x00\n      dup1\n      revert\n    tag_56:\n      pop\n      tag_57\n      tag_58\n      jump\t// in\n    tag_57:\n      mload(0x40)\n      tag_59\n      swap2\n      swap1\n      tag_52\n      jump\t// in\n    tag_59:\n      mload(0x40)\n      dup1\n      swap2\n      sub\n      swap1\n      return\n        /* \"Lottery/lottery.sol\":789:902  function mintTokens(uint _tokenAmount) public onlyOwner(){... */\n    tag_13:\n      callvalue\n      dup1\n      iszero\n      tag_60\n      jumpi\n      0x00\n      dup1\n      revert\n    tag_60:\n      pop\n      tag_61\n      0x04\n      dup1\n      calldatasize\n      sub\n      dup2\n      add\n      swap1\n      tag_62\n      swap2\n      swap1\n      tag_22\n      jump\t// in\n    tag_62:\n      tag_63\n      jump\t// in\n    tag_61:\n      stop\n        /* \"Lottery/lottery.sol\":1821:1849  uint public ticket_price = 2 */\n    tag_17:\n      sload(0x04)\n      dup2\n      jump\t// out\n        /* \"Lottery/lottery.sol\":1094:1516  function buyTokens(uint _tokenAmount) public payable{... */\n    tag_23:\n        /* \"Lottery/lottery.sol\":1156:1165  uint cost */\n      0x00\n        /* \"Lottery/lottery.sol\":1168:1192  tokenPrice(_tokenAmount) */\n      tag_65\n        /* \"Lottery/lottery.sol\":1179:1191  _tokenAmount */\n      dup3\n        /* \"Lottery/lottery.sol\":1168:1178  tokenPrice */\n      tag_66\n        /* \"Lottery/lottery.sol\":1168:1192  tokenPrice(_tokenAmount) */\n      jump\t// in\n    tag_65:\n        /* \"Lottery/lottery.sol\":1156:1192  uint cost = tokenPrice(_tokenAmount) */\n      swap1\n      pop\n        /* \"Lottery/lottery.sol\":1223:1227  cost */\n      dup1\n        /* \"Lottery/lottery.sol\":1210:1219  msg.value */\n      callvalue\n        /* \"Lottery/lottery.sol\":1210:1227  msg.value >= cost */\n      lt\n      iszero\n        /* \"Lottery/lottery.sol\":1202:1228  require(msg.value >= cost) */\n      tag_67\n      jumpi\n      0x00\n      dup1\n      revert\n    tag_67:\n        /* \"Lottery/lottery.sol\":1238:1254  uint returnValue */\n      0x00\n        /* \"Lottery/lottery.sol\":1269:1273  cost */\n      dup2\n        /* \"Lottery/lottery.sol\":1257:1266  msg.value */\n      callvalue\n        /* \"Lottery/lottery.sol\":1257:1273  msg.value - cost */\n      tag_68\n      swap2\n      swap1\n      tag_69\n      jump\t// in\n    tag_68:\n        /* \"Lottery/lottery.sol\":1238:1273  uint returnValue = msg.value - cost */\n      swap1\n      pop\n        /* \"Lottery/lottery.sol\":1291:1301  msg.sender */\n      caller\n        /* \"Lottery/lottery.sol\":1283:1311  payable(msg.sender).transfer */\n      0xffffffffffffffffffffffffffffffffffffffff\n      and\n        /* \"Lottery/lottery.sol\":1283:1324  payable(msg.sender).transfer(returnValue) */\n      0x08fc\n        /* \"Lottery/lottery.sol\":1312:1323  returnValue */\n      dup3\n        /* \"Lottery/lottery.sol\":1283:1324  payable(msg.sender).transfer(returnValue) */\n      swap1\n      dup2\n      iszero\n      mul\n      swap1\n      mload(0x40)\n      0x00\n      mload(0x40)\n      dup1\n      dup4\n      sub\n      dup2\n      dup6\n      dup9\n      dup9\n      call\n      swap4\n      pop\n      pop\n      pop\n      pop\n      iszero\n      dup1\n      iszero\n      tag_71\n      jumpi\n      returndatasize\n      0x00\n      dup1\n      returndatacopy\n      revert(0x00, returndatasize)\n    tag_71:\n      pop\n        /* \"Lottery/lottery.sol\":1334:1346  uint Balance */\n      0x00\n        /* \"Lottery/lottery.sol\":1349:1366  availableTokens() */\n      tag_72\n        /* \"Lottery/lottery.sol\":1349:1364  availableTokens */\n      tag_42\n        /* \"Lottery/lottery.sol\":1349:1366  availableTokens() */\n      jump\t// in\n    tag_72:\n        /* \"Lottery/lottery.sol\":1334:1366  uint Balance = availableTokens() */\n      swap1\n      pop\n        /* \"Lottery/lottery.sol\":1400:1407  Balance */\n      dup1\n        /* \"Lottery/lottery.sol\":1384:1396  _tokenAmount */\n      dup5\n        /* \"Lottery/lottery.sol\":1384:1407  _tokenAmount <= Balance */\n      gt\n      iszero\n        /* \"Lottery/lottery.sol\":1376:1408  require(_tokenAmount <= Balance) */\n      tag_73\n      jumpi\n      0x00\n      dup1\n      revert\n    tag_73:\n        /* \"Lottery/lottery.sol\":1418:1423  token */\n      0x00\n      dup1\n      sload\n      swap1\n      0x0100\n      exp\n      swap1\n      div\n      0xffffffffffffffffffffffffffffffffffffffff\n      and\n        /* \"Lottery/lottery.sol\":1418:1432  token.transfer */\n      0xffffffffffffffffffffffffffffffffffffffff\n      and\n      0xa9059cbb\n        /* \"Lottery/lottery.sol\":1433:1443  msg.sender */\n      caller\n        /* \"Lottery/lottery.sol\":1444:1456  _tokenAmount */\n      dup7\n        /* \"Lottery/lottery.sol\":1418:1457  token.transfer(msg.sender,_tokenAmount) */\n      mload(0x40)\n      dup4\n      0xffffffff\n      and\n      0xe0\n      shl\n      dup2\n      mstore\n      0x04\n      add\n      tag_74\n      swap3\n      swap2\n      swap1\n      tag_75\n      jump\t// in\n    tag_74:\n      0x20\n      mload(0x40)\n      dup1\n      dup4\n      sub\n      dup2\n      0x00\n      dup8\n      gas\n      call\n      iszero\n      dup1\n      iszero\n      tag_77\n      jumpi\n      returndatasize\n      0x00\n      dup1\n      returndatacopy\n      revert(0x00, returndatasize)\n    tag_77:\n      pop\n      pop\n      pop\n      pop\n      mload(0x40)\n      returndatasize\n      not(0x1f)\n      0x1f\n      dup3\n      add\n      and\n      dup3\n      add\n      dup1\n      0x40\n      mstore\n      pop\n      dup2\n      add\n      swap1\n      tag_78\n      swap2\n      swap1\n      tag_79\n      jump\t// in\n    tag_78:\n      pop\n        /* \"Lottery/lottery.sol\":1472:1509  buyingTokens(_tokenAmount,msg.sender) */\n      0x9d85404bd8b83639dfb807c0644305ddd5e4016d5e75b13dbf3ff251ed33c9a7\n        /* \"Lottery/lottery.sol\":1485:1497  _tokenAmount */\n      dup5\n        /* \"Lottery/lottery.sol\":1498:1508  msg.sender */\n      caller\n        /* \"Lottery/lottery.sol\":1472:1509  buyingTokens(_tokenAmount,msg.sender) */\n      mload(0x40)\n      tag_80\n      swap3\n      swap2\n      swap1\n      tag_81\n      jump\t// in\n    tag_80:\n      mload(0x40)\n      dup1\n      swap2\n      sub\n      swap1\n      log1\n        /* \"Lottery/lottery.sol\":1146:1516  {... */\n      pop\n      pop\n      pop\n        /* \"Lottery/lottery.sol\":1094:1516  function buyTokens(uint _tokenAmount) public payable{... */\n      pop\n      jump\t// out\n        /* \"Lottery/lottery.sol\":3636:3978  function exchangeTokens(uint _tokenAmount) public payable{... */\n    tag_26:\n        /* \"Lottery/lottery.sol\":3726:3727  0 */\n      0x00\n        /* \"Lottery/lottery.sol\":3711:3723  _tokenAmount */\n      dup2\n        /* \"Lottery/lottery.sol\":3711:3727  _tokenAmount > 0 */\n      gt\n        /* \"Lottery/lottery.sol\":3703:3728  require(_tokenAmount > 0) */\n      tag_83\n      jumpi\n      0x00\n      dup1\n      revert\n    tag_83:\n        /* \"Lottery/lottery.sol\":3762:3779  myTokensBalance() */\n      tag_84\n        /* \"Lottery/lottery.sol\":3762:3777  myTokensBalance */\n      tag_29\n        /* \"Lottery/lottery.sol\":3762:3779  myTokensBalance() */\n      jump\t// in\n    tag_84:\n        /* \"Lottery/lottery.sol\":3746:3758  _tokenAmount */\n      dup2\n        /* \"Lottery/lottery.sol\":3746:3779  _tokenAmount <= myTokensBalance() */\n      gt\n      iszero\n        /* \"Lottery/lottery.sol\":3738:3780  require(_tokenAmount <= myTokensBalance()) */\n      tag_85\n      jumpi\n      0x00\n      dup1\n      revert\n    tag_85:\n        /* \"Lottery/lottery.sol\":3790:3795  token */\n      0x00\n      dup1\n      sload\n      swap1\n      0x0100\n      exp\n      swap1\n      div\n      0xffffffffffffffffffffffffffffffffffffffff\n      and\n        /* \"Lottery/lottery.sol\":3790:3808  token.transferFrom */\n      0xffffffffffffffffffffffffffffffffffffffff\n      and\n      0x23b872dd\n        /* \"Lottery/lottery.sol\":3809:3819  msg.sender */\n      caller\n        /* \"Lottery/lottery.sol\":3828:3832  this */\n      address\n        /* \"Lottery/lottery.sol\":3834:3846  _tokenAmount */\n      dup5\n        /* \"Lottery/lottery.sol\":3790:3847  token.transferFrom(msg.sender,address(this),_tokenAmount) */\n      mload(0x40)\n      dup5\n      0xffffffff\n      and\n      0xe0\n      shl\n      dup2\n      mstore\n      0x04\n      add\n      tag_86\n      swap4\n      swap3\n      swap2\n      swap1\n      tag_87\n      jump\t// in\n    tag_86:\n      0x20\n      mload(0x40)\n      dup1\n      dup4\n      sub\n      dup2\n      0x00\n      dup8\n      gas\n      call\n      iszero\n      dup1\n      iszero\n      tag_89\n      jumpi\n      returndatasize\n      0x00\n      dup1\n      returndatacopy\n      revert(0x00, returndatasize)\n    tag_89:\n      pop\n      pop\n      pop\n      pop\n      mload(0x40)\n      returndatasize\n      not(0x1f)\n      0x1f\n      dup3\n      add\n      and\n      dup3\n      add\n      dup1\n      0x40\n      mstore\n      pop\n      dup2\n      add\n      swap1\n      tag_90\n      swap2\n      swap1\n      tag_79\n      jump\t// in\n    tag_90:\n      pop\n        /* \"Lottery/lottery.sol\":3865:3875  msg.sender */\n      caller\n        /* \"Lottery/lottery.sol\":3857:3885  payable(msg.sender).transfer */\n      0xffffffffffffffffffffffffffffffffffffffff\n      and\n        /* \"Lottery/lottery.sol\":3857:3911  payable(msg.sender).transfer(tokenPrice(_tokenAmount)) */\n      0x08fc\n        /* \"Lottery/lottery.sol\":3886:3910  tokenPrice(_tokenAmount) */\n      tag_91\n        /* \"Lottery/lottery.sol\":3897:3909  _tokenAmount */\n      dup4\n        /* \"Lottery/lottery.sol\":3886:3896  tokenPrice */\n      tag_66\n        /* \"Lottery/lottery.sol\":3886:3910  tokenPrice(_tokenAmount) */\n      jump\t// in\n    tag_91:\n        /* \"Lottery/lottery.sol\":3857:3911  payable(msg.sender).transfer(tokenPrice(_tokenAmount)) */\n      swap1\n      dup2\n      iszero\n      mul\n      swap1\n      mload(0x40)\n      0x00\n      mload(0x40)\n      dup1\n      dup4\n      sub\n      dup2\n      dup6\n      dup9\n      dup9\n      call\n      swap4\n      pop\n      pop\n      pop\n      pop\n      iszero\n      dup1\n      iszero\n      tag_93\n      jumpi\n      returndatasize\n      0x00\n      dup1\n      returndatacopy\n      revert(0x00, returndatasize)\n    tag_93:\n      pop\n        /* \"Lottery/lottery.sol\":3926:3971  event_token_exchange(_tokenAmount,msg.sender) */\n      0x86473ced04f830437b0990507a98b33cd2089eabd1351ff1d1de942121cda9a4\n        /* \"Lottery/lottery.sol\":3947:3959  _tokenAmount */\n      dup2\n        /* \"Lottery/lottery.sol\":3960:3970  msg.sender */\n      caller\n        /* \"Lottery/lottery.sol\":3926:3971  event_token_exchange(_tokenAmount,msg.sender) */\n      mload(0x40)\n      tag_94\n      swap3\n      swap2\n      swap1\n      tag_81\n      jump\t// in\n    tag_94:\n      mload(0x40)\n      dup1\n      swap2\n      sub\n      swap1\n      log1\n        /* \"Lottery/lottery.sol\":3636:3978  function exchangeTokens(uint _tokenAmount) public payable{... */\n      pop\n      jump\t// out\n        /* \"Lottery/lottery.sol\":1689:1793  function myTokensBalance() public view returns (uint){... */\n    tag_29:\n        /* \"Lottery/lottery.sol\":1737:1741  uint */\n      0x00\n        /* \"Lottery/lottery.sol\":1759:1764  token */\n      dup1\n      0x00\n      swap1\n      sload\n      swap1\n      0x0100\n      exp\n      swap1\n      div\n      0xffffffffffffffffffffffffffffffffffffffff\n      and\n        /* \"Lottery/lottery.sol\":1759:1774  token.balanceOf */\n      0xffffffffffffffffffffffffffffffffffffffff\n      and\n      0x70a08231\n        /* \"Lottery/lottery.sol\":1775:1785  msg.sender */\n      caller\n        /* \"Lottery/lottery.sol\":1759:1786  token.balanceOf(msg.sender) */\n      mload(0x40)\n      dup3\n      0xffffffff\n      and\n      0xe0\n      shl\n      dup2\n      mstore\n      0x04\n      add\n      tag_96\n      swap2\n      swap1\n      tag_52\n      jump\t// in\n    tag_96:\n      0x20\n      mload(0x40)\n      dup1\n      dup4\n      sub\n      dup2\n      dup7\n      gas\n      staticcall\n      iszero\n      dup1\n      iszero\n      tag_98\n      jumpi\n      returndatasize\n      0x00\n      dup1\n      returndatacopy\n      revert(0x00, returndatasize)\n    tag_98:\n      pop\n      pop\n      pop\n      pop\n      mload(0x40)\n      returndatasize\n      not(0x1f)\n      0x1f\n      dup3\n      add\n      and\n      dup3\n      add\n      dup1\n      0x40\n      mstore\n      pop\n      dup2\n      add\n      swap1\n      tag_99\n      swap2\n      swap1\n      tag_100\n      jump\t// in\n    tag_99:\n        /* \"Lottery/lottery.sol\":1752:1786  return token.balanceOf(msg.sender) */\n      swap1\n      pop\n        /* \"Lottery/lottery.sol\":1689:1793  function myTokensBalance() public view returns (uint){... */\n      swap1\n      jump\t// out\n        /* \"Lottery/lottery.sol\":2984:3095  function yourTickets() public view returns (uint[] memory){... */\n    tag_33:\n        /* \"Lottery/lottery.sol\":3028:3041  uint[] memory */\n      0x60\n        /* \"Lottery/lottery.sol\":3059:3076  id_address_ticket */\n      0x05\n        /* \"Lottery/lottery.sol\":3059:3088  id_address_ticket[msg.sender] */\n      0x00\n        /* \"Lottery/lottery.sol\":3077:3087  msg.sender */\n      caller\n        /* \"Lottery/lottery.sol\":3059:3088  id_address_ticket[msg.sender] */\n      0xffffffffffffffffffffffffffffffffffffffff\n      and\n      0xffffffffffffffffffffffffffffffffffffffff\n      and\n      dup2\n      mstore\n      0x20\n      add\n      swap1\n      dup2\n      mstore\n      0x20\n      add\n      0x00\n      keccak256\n        /* \"Lottery/lottery.sol\":3052:3088  return id_address_ticket[msg.sender] */\n      dup1\n      sload\n      dup1\n      0x20\n      mul\n      0x20\n      add\n      mload(0x40)\n      swap1\n      dup2\n      add\n      0x40\n      mstore\n      dup1\n      swap3\n      swap2\n      swap1\n      dup2\n      dup2\n      mstore\n      0x20\n      add\n      dup3\n      dup1\n      sload\n      dup1\n      iszero\n      tag_102\n      jumpi\n      0x20\n      mul\n      dup3\n      add\n      swap2\n      swap1\n      0x00\n      mstore\n      keccak256(0x00, 0x20)\n      swap1\n    tag_103:\n      dup2\n      sload\n      dup2\n      mstore\n      0x20\n      add\n      swap1\n      0x01\n      add\n      swap1\n      dup1\n      dup4\n      gt\n      tag_103\n      jumpi\n    tag_102:\n      pop\n      pop\n      pop\n      pop\n      pop\n      swap1\n      pop\n        /* \"Lottery/lottery.sol\":2984:3095  function yourTickets() public view returns (uint[] memory){... */\n      swap1\n      jump\t// out\n        /* \"Lottery/lottery.sol\":2322:2951  function buyTicket(uint _tickets) public{... */\n    tag_39:\n        /* \"Lottery/lottery.sol\":2372:2381  uint cost */\n      0x00\n        /* \"Lottery/lottery.sol\":2397:2405  _tickets */\n      dup2\n        /* \"Lottery/lottery.sol\":2384:2396  ticket_price */\n      sload(0x04)\n        /* \"Lottery/lottery.sol\":2384:2405  ticket_price*_tickets */\n      tag_105\n      swap2\n      swap1\n      tag_106\n      jump\t// in\n    tag_105:\n        /* \"Lottery/lottery.sol\":2372:2405  uint cost = ticket_price*_tickets */\n      swap1\n      pop\n        /* \"Lottery/lottery.sol\":2431:2448  myTokensBalance() */\n      tag_107\n        /* \"Lottery/lottery.sol\":2431:2446  myTokensBalance */\n      tag_29\n        /* \"Lottery/lottery.sol\":2431:2448  myTokensBalance() */\n      jump\t// in\n    tag_107:\n        /* \"Lottery/lottery.sol\":2423:2427  cost */\n      dup2\n        /* \"Lottery/lottery.sol\":2423:2448  cost <= myTokensBalance() */\n      gt\n      iszero\n        /* \"Lottery/lottery.sol\":2415:2472  require(cost <= myTokensBalance(),\"Insufficient balance\") */\n      tag_108\n      jumpi\n      mload(0x40)\n      0x08c379a000000000000000000000000000000000000000000000000000000000\n      dup2\n      mstore\n      0x04\n      add\n      tag_109\n      swap1\n      tag_110\n      jump\t// in\n    tag_109:\n      mload(0x40)\n      dup1\n      swap2\n      sub\n      swap1\n      revert\n    tag_108:\n        /* \"Lottery/lottery.sol\":2482:2487  token */\n      0x00\n      dup1\n      sload\n      swap1\n      0x0100\n      exp\n      swap1\n      div\n      0xffffffffffffffffffffffffffffffffffffffff\n      and\n        /* \"Lottery/lottery.sol\":2482:2500  token.transferFrom */\n      0xffffffffffffffffffffffffffffffffffffffff\n      and\n      0x23b872dd\n        /* \"Lottery/lottery.sol\":2501:2511  msg.sender */\n      caller\n        /* \"Lottery/lottery.sol\":2512:2517  owner */\n      0x01\n      0x00\n      swap1\n      sload\n      swap1\n      0x0100\n      exp\n      swap1\n      div\n      0xffffffffffffffffffffffffffffffffffffffff\n      and\n        /* \"Lottery/lottery.sol\":2518:2522  cost */\n      dup5\n        /* \"Lottery/lottery.sol\":2482:2523  token.transferFrom(msg.sender,owner,cost) */\n      mload(0x40)\n      dup5\n      0xffffffff\n      and\n      0xe0\n      shl\n      dup2\n      mstore\n      0x04\n      add\n      tag_111\n      swap4\n      swap3\n      swap2\n      swap1\n      tag_87\n      jump\t// in\n    tag_111:\n      0x20\n      mload(0x40)\n      dup1\n      dup4\n      sub\n      dup2\n      0x00\n      dup8\n      gas\n      call\n      iszero\n      dup1\n      iszero\n      tag_113\n      jumpi\n      returndatasize\n      0x00\n      dup1\n      returndatacopy\n      revert(0x00, returndatasize)\n    tag_113:\n      pop\n      pop\n      pop\n      pop\n      mload(0x40)\n      returndatasize\n      not(0x1f)\n      0x1f\n      dup3\n      add\n      and\n      dup3\n      add\n      dup1\n      0x40\n      mstore\n      pop\n      dup2\n      add\n      swap1\n      tag_114\n      swap2\n      swap1\n      tag_79\n      jump\t// in\n    tag_114:\n      pop\n        /* \"Lottery/lottery.sol\":2537:2543  uint i */\n      0x00\n        /* \"Lottery/lottery.sol\":2533:2945  for(uint i=0; i<_tickets; i++){... */\n    tag_115:\n        /* \"Lottery/lottery.sol\":2549:2557  _tickets */\n      dup3\n        /* \"Lottery/lottery.sol\":2547:2548  i */\n      dup2\n        /* \"Lottery/lottery.sol\":2547:2557  i<_tickets */\n      lt\n        /* \"Lottery/lottery.sol\":2533:2945  for(uint i=0; i<_tickets; i++){... */\n      iszero\n      tag_116\n      jumpi\n        /* \"Lottery/lottery.sol\":2577:2588  uint random */\n      0x00\n        /* \"Lottery/lottery.sol\":2665:2670  10000 */\n      0x2710\n        /* \"Lottery/lottery.sol\":2623:2638  block.timestamp */\n      timestamp\n        /* \"Lottery/lottery.sol\":2639:2649  msg.sender */\n      caller\n        /* \"Lottery/lottery.sol\":2650:2659  randNonce */\n      sload(0x07)\n        /* \"Lottery/lottery.sol\":2606:2660  abi.encodePacked(block.timestamp,msg.sender,randNonce) */\n      add(0x20, mload(0x40))\n      tag_118\n      swap4\n      swap3\n      swap2\n      swap1\n      tag_119\n      jump\t// in\n    tag_118:\n      mload(0x40)\n      0x20\n      dup2\n      dup4\n      sub\n      sub\n      dup2\n      mstore\n      swap1\n      0x40\n      mstore\n        /* \"Lottery/lottery.sol\":2596:2661  keccak256(abi.encodePacked(block.timestamp,msg.sender,randNonce)) */\n      dup1\n      mload\n      swap1\n      0x20\n      add\n      keccak256\n        /* \"Lottery/lottery.sol\":2591:2662  uint(keccak256(abi.encodePacked(block.timestamp,msg.sender,randNonce))) */\n      0x00\n      shr\n        /* \"Lottery/lottery.sol\":2591:2670  uint(keccak256(abi.encodePacked(block.timestamp,msg.sender,randNonce))) % 10000 */\n      tag_120\n      swap2\n      swap1\n      tag_121\n      jump\t// in\n    tag_120:\n        /* \"Lottery/lottery.sol\":2577:2670  uint random = uint(keccak256(abi.encodePacked(block.timestamp,msg.sender,randNonce))) % 10000 */\n      swap1\n      pop\n        /* \"Lottery/lottery.sol\":2711:2720  randNonce */\n      0x07\n      0x00\n        /* \"Lottery/lottery.sol\":2711:2722  randNonce++ */\n      dup2\n      sload\n      dup1\n      swap3\n      swap2\n      swap1\n      tag_122\n      swap1\n      tag_123\n      jump\t// in\n    tag_122:\n      swap2\n      swap1\n      pop\n      sstore\n      pop\n        /* \"Lottery/lottery.sol\":2736:2753  id_address_ticket */\n      0x05\n        /* \"Lottery/lottery.sol\":2736:2765  id_address_ticket[msg.sender] */\n      0x00\n        /* \"Lottery/lottery.sol\":2754:2764  msg.sender */\n      caller\n        /* \"Lottery/lottery.sol\":2736:2765  id_address_ticket[msg.sender] */\n      0xffffffffffffffffffffffffffffffffffffffff\n      and\n      0xffffffffffffffffffffffffffffffffffffffff\n      and\n      dup2\n      mstore\n      0x20\n      add\n      swap1\n      dup2\n      mstore\n      0x20\n      add\n      0x00\n      keccak256\n        /* \"Lottery/lottery.sol\":2771:2777  random */\n      dup2\n        /* \"Lottery/lottery.sol\":2736:2778  id_address_ticket[msg.sender].push(random) */\n      swap1\n      dup1\n      0x01\n      dup2\n      sload\n      add\n      dup1\n      dup3\n      sstore\n      dup1\n      swap2\n      pop\n      pop\n      0x01\n      swap1\n      sub\n      swap1\n      0x00\n      mstore\n      keccak256(0x00, 0x20)\n      add\n      0x00\n      swap1\n      swap2\n      swap1\n      swap2\n      swap1\n      swap2\n      pop\n      sstore\n        /* \"Lottery/lottery.sol\":2792:2805  buyed_tickets */\n      0x08\n        /* \"Lottery/lottery.sol\":2811:2817  random */\n      dup2\n        /* \"Lottery/lottery.sol\":2792:2818  buyed_tickets.push(random) */\n      swap1\n      dup1\n      0x01\n      dup2\n      sload\n      add\n      dup1\n      dup3\n      sstore\n      dup1\n      swap2\n      pop\n      pop\n      0x01\n      swap1\n      sub\n      swap1\n      0x00\n      mstore\n      keccak256(0x00, 0x20)\n      add\n      0x00\n      swap1\n      swap2\n      swap1\n      swap2\n      swap1\n      swap2\n      pop\n      sstore\n        /* \"Lottery/lottery.sol\":2864:2874  msg.sender */\n      caller\n        /* \"Lottery/lottery.sol\":2832:2853  random_number_address */\n      0x06\n        /* \"Lottery/lottery.sol\":2832:2861  random_number_address[random] */\n      0x00\n        /* \"Lottery/lottery.sol\":2854:2860  random */\n      dup4\n        /* \"Lottery/lottery.sol\":2832:2861  random_number_address[random] */\n      dup2\n      mstore\n      0x20\n      add\n      swap1\n      dup2\n      mstore\n      0x20\n      add\n      0x00\n      keccak256\n      0x00\n        /* \"Lottery/lottery.sol\":2832:2874  random_number_address[random] = msg.sender */\n      0x0100\n      exp\n      dup2\n      sload\n      dup2\n      0xffffffffffffffffffffffffffffffffffffffff\n      mul\n      not\n      and\n      swap1\n      dup4\n      0xffffffffffffffffffffffffffffffffffffffff\n      and\n      mul\n      or\n      swap1\n      sstore\n      pop\n        /* \"Lottery/lottery.sol\":2893:2934  event_ticket_purchased(random,msg.sender) */\n      0x8881aae6b7c101f6567278af64617d941c5b235790663b6e40929db26ad085db\n        /* \"Lottery/lottery.sol\":2916:2922  random */\n      dup2\n        /* \"Lottery/lottery.sol\":2923:2933  msg.sender */\n      caller\n        /* \"Lottery/lottery.sol\":2893:2934  event_ticket_purchased(random,msg.sender) */\n      mload(0x40)\n      tag_126\n      swap3\n      swap2\n      swap1\n      tag_81\n      jump\t// in\n    tag_126:\n      mload(0x40)\n      dup1\n      swap2\n      sub\n      swap1\n      log1\n        /* \"Lottery/lottery.sol\":2563:2945  {... */\n      pop\n        /* \"Lottery/lottery.sol\":2559:2562  i++ */\n      dup1\n      dup1\n      tag_127\n      swap1\n      tag_123\n      jump\t// in\n    tag_127:\n      swap2\n      pop\n      pop\n        /* \"Lottery/lottery.sol\":2533:2945  for(uint i=0; i<_tickets; i++){... */\n      jump(tag_115)\n    tag_116:\n      pop\n        /* \"Lottery/lottery.sol\":2362:2951  {... */\n      pop\n        /* \"Lottery/lottery.sol\":2322:2951  function buyTicket(uint _tickets) public{... */\n      pop\n      jump\t// out\n        /* \"Lottery/lottery.sol\":962:1071  function availableTokens() public view returns(uint){... */\n    tag_42:\n        /* \"Lottery/lottery.sol\":1009:1013  uint */\n      0x00\n        /* \"Lottery/lottery.sol\":1031:1036  token */\n      dup1\n      0x00\n      swap1\n      sload\n      swap1\n      0x0100\n      exp\n      swap1\n      div\n      0xffffffffffffffffffffffffffffffffffffffff\n      and\n        /* \"Lottery/lottery.sol\":1031:1046  token.balanceOf */\n      0xffffffffffffffffffffffffffffffffffffffff\n      and\n      0x70a08231\n        /* \"Lottery/lottery.sol\":1047:1063  contract_address */\n      0x02\n      0x00\n      swap1\n      sload\n      swap1\n      0x0100\n      exp\n      swap1\n      div\n      0xffffffffffffffffffffffffffffffffffffffff\n      and\n        /* \"Lottery/lottery.sol\":1031:1064  token.balanceOf(contract_address) */\n      mload(0x40)\n      dup3\n      0xffffffff\n      and\n      0xe0\n      shl\n      dup2\n      mstore\n      0x04\n      add\n      tag_129\n      swap2\n      swap1\n      tag_52\n      jump\t// in\n    tag_129:\n      0x20\n      mload(0x40)\n      dup1\n      dup4\n      sub\n      dup2\n      dup7\n      gas\n      staticcall\n      iszero\n      dup1\n      iszero\n      tag_131\n      jumpi\n      returndatasize\n      0x00\n      dup1\n      returndatacopy\n      revert(0x00, returndatasize)\n    tag_131:\n      pop\n      pop\n      pop\n      pop\n      mload(0x40)\n      returndatasize\n      not(0x1f)\n      0x1f\n      dup3\n      add\n      and\n      dup3\n      add\n      dup1\n      0x40\n      mstore\n      pop\n      dup2\n      add\n      swap1\n      tag_132\n      swap2\n      swap1\n      tag_100\n      jump\t// in\n    tag_132:\n        /* \"Lottery/lottery.sol\":1024:1064  return token.balanceOf(contract_address) */\n      swap1\n      pop\n        /* \"Lottery/lottery.sol\":962:1071  function availableTokens() public view returns(uint){... */\n      swap1\n      jump\t// out\n        /* \"Lottery/lottery.sol\":1558:1651  function poolPrize() public view returns (uint){... */\n    tag_46:\n        /* \"Lottery/lottery.sol\":1600:1604  uint */\n      0x00\n        /* \"Lottery/lottery.sol\":1622:1627  token */\n      dup1\n      0x00\n      swap1\n      sload\n      swap1\n      0x0100\n      exp\n      swap1\n      div\n      0xffffffffffffffffffffffffffffffffffffffff\n      and\n        /* \"Lottery/lottery.sol\":1622:1637  token.balanceOf */\n      0xffffffffffffffffffffffffffffffffffffffff\n      and\n      0x70a08231\n        /* \"Lottery/lottery.sol\":1638:1643  owner */\n      0x01\n      0x00\n      swap1\n      sload\n      swap1\n      0x0100\n      exp\n      swap1\n      div\n      0xffffffffffffffffffffffffffffffffffffffff\n      and\n        /* \"Lottery/lottery.sol\":1622:1644  token.balanceOf(owner) */\n      mload(0x40)\n      dup3\n      0xffffffff\n      and\n      0xe0\n      shl\n      dup2\n      mstore\n      0x04\n      add\n      tag_134\n      swap2\n      swap1\n      tag_52\n      jump\t// in\n    tag_134:\n      0x20\n      mload(0x40)\n      dup1\n      dup4\n      sub\n      dup2\n      dup7\n      gas\n      staticcall\n      iszero\n      dup1\n      iszero\n      tag_136\n      jumpi\n      returndatasize\n      0x00\n      dup1\n      returndatacopy\n      revert(0x00, returndatasize)\n    tag_136:\n      pop\n      pop\n      pop\n      pop\n      mload(0x40)\n      returndatasize\n      not(0x1f)\n      0x1f\n      dup3\n      add\n      and\n      dup3\n      add\n      dup1\n      0x40\n      mstore\n      pop\n      dup2\n      add\n      swap1\n      tag_137\n      swap2\n      swap1\n      tag_100\n      jump\t// in\n    tag_137:\n        /* \"Lottery/lottery.sol\":1615:1644  return token.balanceOf(owner) */\n      swap1\n      pop\n        /* \"Lottery/lottery.sol\":1558:1651  function poolPrize() public view returns (uint){... */\n      swap1\n      jump\t// out\n        /* \"Lottery/lottery.sol\":183:203  address public owner */\n    tag_50:\n      0x01\n      0x00\n      swap1\n      sload\n      swap1\n      0x0100\n      exp\n      swap1\n      div\n      0xffffffffffffffffffffffffffffffffffffffff\n      and\n      dup2\n      jump\t// out\n        /* \"Lottery/lottery.sol\":3118:3595  function getWinner() public onlyOwner(){... */\n    tag_55:\n        /* \"Lottery/lottery.sol\":724:729  owner */\n      0x01\n      0x00\n      swap1\n      sload\n      swap1\n      0x0100\n      exp\n      swap1\n      div\n      0xffffffffffffffffffffffffffffffffffffffff\n      and\n        /* \"Lottery/lottery.sol\":710:729  msg.sender == owner */\n      0xffffffffffffffffffffffffffffffffffffffff\n      and\n        /* \"Lottery/lottery.sol\":710:720  msg.sender */\n      caller\n        /* \"Lottery/lottery.sol\":710:729  msg.sender == owner */\n      0xffffffffffffffffffffffffffffffffffffffff\n      and\n      eq\n        /* \"Lottery/lottery.sol\":702:730  require(msg.sender == owner) */\n      tag_139\n      jumpi\n      0x00\n      dup1\n      revert\n    tag_139:\n        /* \"Lottery/lottery.sol\":3198:3199  0 */\n      0x00\n        /* \"Lottery/lottery.sol\":3175:3188  buyed_tickets */\n      0x08\n        /* \"Lottery/lottery.sol\":3175:3195  buyed_tickets.length */\n      dup1\n      sload\n      swap1\n      pop\n        /* \"Lottery/lottery.sol\":3175:3199  buyed_tickets.length > 0 */\n      gt\n        /* \"Lottery/lottery.sol\":3167:3200  require(buyed_tickets.length > 0) */\n      tag_141\n      jumpi\n      0x00\n      dup1\n      revert\n    tag_141:\n        /* \"Lottery/lottery.sol\":3210:3226  uint arrayLenght */\n      0x00\n        /* \"Lottery/lottery.sol\":3229:3242  buyed_tickets */\n      0x08\n        /* \"Lottery/lottery.sol\":3229:3249  buyed_tickets.length */\n      dup1\n      sload\n      swap1\n      pop\n        /* \"Lottery/lottery.sol\":3210:3249  uint arrayLenght = buyed_tickets.length */\n      swap1\n      pop\n        /* \"Lottery/lottery.sol\":3259:3273  uint array_pos */\n      0x00\n        /* \"Lottery/lottery.sol\":3355:3366  arrayLenght */\n      dup2\n        /* \"Lottery/lottery.sol\":3314:3329  block.timestamp */\n      timestamp\n        /* \"Lottery/lottery.sol\":3330:3338  msg.data */\n      0x00\n      calldatasize\n        /* \"Lottery/lottery.sol\":3339:3349  msg.sender */\n      caller\n        /* \"Lottery/lottery.sol\":3297:3350  abi.encodePacked(block.timestamp,msg.data,msg.sender) */\n      add(0x20, mload(0x40))\n      tag_142\n      swap5\n      swap4\n      swap3\n      swap2\n      swap1\n      tag_143\n      jump\t// in\n    tag_142:\n      mload(0x40)\n      0x20\n      dup2\n      dup4\n      sub\n      sub\n      dup2\n      mstore\n      swap1\n      0x40\n      mstore\n        /* \"Lottery/lottery.sol\":3287:3351  keccak256(abi.encodePacked(block.timestamp,msg.data,msg.sender)) */\n      dup1\n      mload\n      swap1\n      0x20\n      add\n      keccak256\n        /* \"Lottery/lottery.sol\":3282:3352  uint(keccak256(abi.encodePacked(block.timestamp,msg.data,msg.sender))) */\n      0x00\n      shr\n        /* \"Lottery/lottery.sol\":3282:3366  uint(keccak256(abi.encodePacked(block.timestamp,msg.data,msg.sender))) % arrayLenght */\n      tag_144\n      swap2\n      swap1\n      tag_121\n      jump\t// in\n    tag_144:\n        /* \"Lottery/lottery.sol\":3259:3367  uint array_pos = uint (uint(keccak256(abi.encodePacked(block.timestamp,msg.data,msg.sender))) % arrayLenght) */\n      swap1\n      pop\n        /* \"Lottery/lottery.sol\":3377:3388  uint winner */\n      0x00\n        /* \"Lottery/lottery.sol\":3391:3404  buyed_tickets */\n      0x08\n        /* \"Lottery/lottery.sol\":3405:3414  array_pos */\n      dup3\n        /* \"Lottery/lottery.sol\":3391:3415  buyed_tickets[array_pos] */\n      dup2\n      sload\n      dup2\n      lt\n      tag_145\n      jumpi\n      tag_146\n      tag_147\n      jump\t// in\n    tag_146:\n    tag_145:\n      swap1\n      0x00\n      mstore\n      keccak256(0x00, 0x20)\n      add\n      sload\n        /* \"Lottery/lottery.sol\":3377:3415  uint winner = buyed_tickets[array_pos] */\n      swap1\n      pop\n        /* \"Lottery/lottery.sol\":3430:3457  event_ticket_winner(winner) */\n      0xcf7ed6caf92fa707ae6184d55e725cd5a74953b093d606cb85b3d4c5981fb032\n        /* \"Lottery/lottery.sol\":3450:3456  winner */\n      dup2\n        /* \"Lottery/lottery.sol\":3430:3457  event_ticket_winner(winner) */\n      mload(0x40)\n      tag_149\n      swap2\n      swap1\n      tag_19\n      jump\t// in\n    tag_149:\n      mload(0x40)\n      dup1\n      swap2\n      sub\n      swap1\n      log1\n        /* \"Lottery/lottery.sol\":3467:3488  address winnerAddress */\n      0x00\n        /* \"Lottery/lottery.sol\":3491:3512  random_number_address */\n      0x06\n        /* \"Lottery/lottery.sol\":3491:3520  random_number_address[winner] */\n      0x00\n        /* \"Lottery/lottery.sol\":3513:3519  winner */\n      dup4\n        /* \"Lottery/lottery.sol\":3491:3520  random_number_address[winner] */\n      dup2\n      mstore\n      0x20\n      add\n      swap1\n      dup2\n      mstore\n      0x20\n      add\n      0x00\n      keccak256\n      0x00\n      swap1\n      sload\n      swap1\n      0x0100\n      exp\n      swap1\n      div\n      0xffffffffffffffffffffffffffffffffffffffff\n      and\n        /* \"Lottery/lottery.sol\":3467:3520  address winnerAddress = random_number_address[winner] */\n      swap1\n      pop\n        /* \"Lottery/lottery.sol\":3530:3535  token */\n      0x00\n      dup1\n      sload\n      swap1\n      0x0100\n      exp\n      swap1\n      div\n      0xffffffffffffffffffffffffffffffffffffffff\n      and\n        /* \"Lottery/lottery.sol\":3530:3548  token.transferFrom */\n      0xffffffffffffffffffffffffffffffffffffffff\n      and\n      0x23b872dd\n        /* \"Lottery/lottery.sol\":3549:3559  msg.sender */\n      caller\n        /* \"Lottery/lottery.sol\":3561:3574  winnerAddress */\n      dup4\n        /* \"Lottery/lottery.sol\":3576:3587  poolPrize() */\n      tag_150\n        /* \"Lottery/lottery.sol\":3576:3585  poolPrize */\n      tag_46\n        /* \"Lottery/lottery.sol\":3576:3587  poolPrize() */\n      jump\t// in\n    tag_150:\n        /* \"Lottery/lottery.sol\":3530:3588  token.transferFrom(msg.sender, winnerAddress, poolPrize()) */\n      mload(0x40)\n      dup5\n      0xffffffff\n      and\n      0xe0\n      shl\n      dup2\n      mstore\n      0x04\n      add\n      tag_151\n      swap4\n      swap3\n      swap2\n      swap1\n      tag_87\n      jump\t// in\n    tag_151:\n      0x20\n      mload(0x40)\n      dup1\n      dup4\n      sub\n      dup2\n      0x00\n      dup8\n      gas\n      call\n      iszero\n      dup1\n      iszero\n      tag_153\n      jumpi\n      returndatasize\n      0x00\n      dup1\n      returndatacopy\n      revert(0x00, returndatasize)\n    tag_153:\n      pop\n      pop\n      pop\n      pop\n      mload(0x40)\n      returndatasize\n      not(0x1f)\n      0x1f\n      dup3\n      add\n      and\n      dup3\n      add\n      dup1\n      0x40\n      mstore\n      pop\n      dup2\n      add\n      swap1\n      tag_154\n      swap2\n      swap1\n      tag_79\n      jump\t// in\n    tag_154:\n      pop\n        /* \"Lottery/lottery.sol\":3157:3595  {... */\n      pop\n      pop\n      pop\n      pop\n        /* \"Lottery/lottery.sol\":3118:3595  function getWinner() public onlyOwner(){... */\n      jump\t// out\n        /* \"Lottery/lottery.sol\":209:240  address public contract_address */\n    tag_58:\n      0x02\n      0x00\n      swap1\n      sload\n      swap1\n      0x0100\n      exp\n      swap1\n      div\n      0xffffffffffffffffffffffffffffffffffffffff\n      and\n      dup2\n      jump\t// out\n        /* \"Lottery/lottery.sol\":789:902  function mintTokens(uint _tokenAmount) public onlyOwner(){... */\n    tag_63:\n        /* \"Lottery/lottery.sol\":724:729  owner */\n      0x01\n      0x00\n      swap1\n      sload\n      swap1\n      0x0100\n      exp\n      swap1\n      div\n      0xffffffffffffffffffffffffffffffffffffffff\n      and\n        /* \"Lottery/lottery.sol\":710:729  msg.sender == owner */\n      0xffffffffffffffffffffffffffffffffffffffff\n      and\n        /* \"Lottery/lottery.sol\":710:720  msg.sender */\n      caller\n        /* \"Lottery/lottery.sol\":710:729  msg.sender == owner */\n      0xffffffffffffffffffffffffffffffffffffffff\n      and\n      eq\n        /* \"Lottery/lottery.sol\":702:730  require(msg.sender == owner) */\n      tag_156\n      jumpi\n      0x00\n      dup1\n      revert\n    tag_156:\n        /* \"Lottery/lottery.sol\":856:861  token */\n      0x00\n      dup1\n      sload\n      swap1\n      0x0100\n      exp\n      swap1\n      div\n      0xffffffffffffffffffffffffffffffffffffffff\n      and\n        /* \"Lottery/lottery.sol\":856:881  token.increaseTotalSupply */\n      0xffffffffffffffffffffffffffffffffffffffff\n      and\n      0x1d43cc98\n        /* \"Lottery/lottery.sol\":882:894  _tokenAmount */\n      dup3\n        /* \"Lottery/lottery.sol\":856:895  token.increaseTotalSupply(_tokenAmount) */\n      mload(0x40)\n      dup3\n      0xffffffff\n      and\n      0xe0\n      shl\n      dup2\n      mstore\n      0x04\n      add\n      tag_158\n      swap2\n      swap1\n      tag_19\n      jump\t// in\n    tag_158:\n      0x00\n      mload(0x40)\n      dup1\n      dup4\n      sub\n      dup2\n      0x00\n      dup8\n      dup1\n      extcodesize\n      iszero\n      dup1\n      iszero\n      tag_159\n      jumpi\n      0x00\n      dup1\n      revert\n    tag_159:\n      pop\n      gas\n      call\n      iszero\n      dup1\n      iszero\n      tag_161\n      jumpi\n      returndatasize\n      0x00\n      dup1\n      returndatacopy\n      revert(0x00, returndatasize)\n    tag_161:\n      pop\n      pop\n      pop\n      pop\n        /* \"Lottery/lottery.sol\":789:902  function mintTokens(uint _tokenAmount) public onlyOwner(){... */\n      pop\n      jump\t// out\n        /* \"Lottery/lottery.sol\":552:666  function tokenPrice(uint _tokenAmount) internal pure returns(uint){... */\n    tag_66:\n        /* \"Lottery/lottery.sol\":613:617  uint */\n      0x00\n        /* \"Lottery/lottery.sol\":651:658  1 ether */\n      0x0de0b6b3a7640000\n        /* \"Lottery/lottery.sol\":635:647  _tokenAmount */\n      dup3\n        /* \"Lottery/lottery.sol\":635:659  _tokenAmount * (1 ether) */\n      tag_163\n      swap2\n      swap1\n      tag_106\n      jump\t// in\n    tag_163:\n        /* \"Lottery/lottery.sol\":628:659  return _tokenAmount * (1 ether) */\n      swap1\n      pop\n        /* \"Lottery/lottery.sol\":552:666  function tokenPrice(uint _tokenAmount) internal pure returns(uint){... */\n      swap2\n      swap1\n      pop\n      jump\t// out\n        /* \"#utility.yul\":7:84   */\n    tag_164:\n        /* \"#utility.yul\":44:51   */\n      0x00\n        /* \"#utility.yul\":73:78   */\n      dup2\n        /* \"#utility.yul\":62:78   */\n      swap1\n      pop\n        /* \"#utility.yul\":7:84   */\n      swap2\n      swap1\n      pop\n      jump\t// out\n        /* \"#utility.yul\":90:208   */\n    tag_165:\n        /* \"#utility.yul\":177:201   */\n      tag_202\n        /* \"#utility.yul\":195:200   */\n      dup2\n        /* \"#utility.yul\":177:201   */\n      tag_164\n      jump\t// in\n    tag_202:\n        /* \"#utility.yul\":172:175   */\n      dup3\n        /* \"#utility.yul\":165:202   */\n      mstore\n        /* \"#utility.yul\":90:208   */\n      pop\n      pop\n      jump\t// out\n        /* \"#utility.yul\":214:436   */\n    tag_19:\n        /* \"#utility.yul\":307:311   */\n      0x00\n        /* \"#utility.yul\":345:347   */\n      0x20\n        /* \"#utility.yul\":334:343   */\n      dup3\n        /* \"#utility.yul\":330:348   */\n      add\n        /* \"#utility.yul\":322:348   */\n      swap1\n      pop\n        /* \"#utility.yul\":358:429   */\n      tag_204\n        /* \"#utility.yul\":426:427   */\n      0x00\n        /* \"#utility.yul\":415:424   */\n      dup4\n        /* \"#utility.yul\":411:428   */\n      add\n        /* \"#utility.yul\":402:408   */\n      dup5\n        /* \"#utility.yul\":358:429   */\n      tag_165\n      jump\t// in\n    tag_204:\n        /* \"#utility.yul\":214:436   */\n      swap3\n      swap2\n      pop\n      pop\n      jump\t// out\n        /* \"#utility.yul\":523:640   */\n    tag_167:\n        /* \"#utility.yul\":632:633   */\n      0x00\n        /* \"#utility.yul\":629:630   */\n      dup1\n        /* \"#utility.yul\":622:634   */\n      revert\n        /* \"#utility.yul\":769:891   */\n    tag_169:\n        /* \"#utility.yul\":842:866   */\n      tag_209\n        /* \"#utility.yul\":860:865   */\n      dup2\n        /* \"#utility.yul\":842:866   */\n      tag_164\n      jump\t// in\n    tag_209:\n        /* \"#utility.yul\":835:840   */\n      dup2\n        /* \"#utility.yul\":832:867   */\n      eq\n        /* \"#utility.yul\":822:885   */\n      tag_210\n      jumpi\n        /* \"#utility.yul\":881:882   */\n      0x00\n        /* \"#utility.yul\":878:879   */\n      dup1\n        /* \"#utility.yul\":871:883   */\n      revert\n        /* \"#utility.yul\":822:885   */\n    tag_210:\n        /* \"#utility.yul\":769:891   */\n      pop\n      jump\t// out\n        /* \"#utility.yul\":897:1036   */\n    tag_170:\n        /* \"#utility.yul\":943:948   */\n      0x00\n        /* \"#utility.yul\":981:987   */\n      dup2\n        /* \"#utility.yul\":968:988   */\n      calldataload\n        /* \"#utility.yul\":959:988   */\n      swap1\n      pop\n        /* \"#utility.yul\":997:1030   */\n      tag_212\n        /* \"#utility.yul\":1024:1029   */\n      dup2\n        /* \"#utility.yul\":997:1030   */\n      tag_169\n      jump\t// in\n    tag_212:\n        /* \"#utility.yul\":897:1036   */\n      swap3\n      swap2\n      pop\n      pop\n      jump\t// out\n        /* \"#utility.yul\":1042:1371   */\n    tag_22:\n        /* \"#utility.yul\":1101:1107   */\n      0x00\n        /* \"#utility.yul\":1150:1152   */\n      0x20\n        /* \"#utility.yul\":1138:1147   */\n      dup3\n        /* \"#utility.yul\":1129:1136   */\n      dup5\n        /* \"#utility.yul\":1125:1148   */\n      sub\n        /* \"#utility.yul\":1121:1153   */\n      slt\n        /* \"#utility.yul\":1118:1237   */\n      iszero\n      tag_214\n      jumpi\n        /* \"#utility.yul\":1156:1235   */\n      tag_215\n      tag_167\n      jump\t// in\n    tag_215:\n        /* \"#utility.yul\":1118:1237   */\n    tag_214:\n        /* \"#utility.yul\":1276:1277   */\n      0x00\n        /* \"#utility.yul\":1301:1354   */\n      tag_216\n        /* \"#utility.yul\":1346:1353   */\n      dup5\n        /* \"#utility.yul\":1337:1343   */\n      dup3\n        /* \"#utility.yul\":1326:1335   */\n      dup6\n        /* \"#utility.yul\":1322:1344   */\n      add\n        /* \"#utility.yul\":1301:1354   */\n      tag_170\n      jump\t// in\n    tag_216:\n        /* \"#utility.yul\":1291:1354   */\n      swap2\n      pop\n        /* \"#utility.yul\":1247:1364   */\n      pop\n        /* \"#utility.yul\":1042:1371   */\n      swap3\n      swap2\n      pop\n      pop\n      jump\t// out\n        /* \"#utility.yul\":1377:1491   */\n    tag_171:\n        /* \"#utility.yul\":1444:1450   */\n      0x00\n        /* \"#utility.yul\":1478:1483   */\n      dup2\n        /* \"#utility.yul\":1472:1484   */\n      mload\n        /* \"#utility.yul\":1462:1484   */\n      swap1\n      pop\n        /* \"#utility.yul\":1377:1491   */\n      swap2\n      swap1\n      pop\n      jump\t// out\n        /* \"#utility.yul\":1497:1681   */\n    tag_172:\n        /* \"#utility.yul\":1596:1607   */\n      0x00\n        /* \"#utility.yul\":1630:1636   */\n      dup3\n        /* \"#utility.yul\":1625:1628   */\n      dup3\n        /* \"#utility.yul\":1618:1637   */\n      mstore\n        /* \"#utility.yul\":1670:1674   */\n      0x20\n        /* \"#utility.yul\":1665:1668   */\n      dup3\n        /* \"#utility.yul\":1661:1675   */\n      add\n        /* \"#utility.yul\":1646:1675   */\n      swap1\n      pop\n        /* \"#utility.yul\":1497:1681   */\n      swap3\n      swap2\n      pop\n      pop\n      jump\t// out\n        /* \"#utility.yul\":1687:1819   */\n    tag_173:\n        /* \"#utility.yul\":1754:1758   */\n      0x00\n        /* \"#utility.yul\":1777:1780   */\n      dup2\n        /* \"#utility.yul\":1769:1780   */\n      swap1\n      pop\n        /* \"#utility.yul\":1807:1811   */\n      0x20\n        /* \"#utility.yul\":1802:1805   */\n      dup3\n        /* \"#utility.yul\":1798:1812   */\n      add\n        /* \"#utility.yul\":1790:1812   */\n      swap1\n      pop\n        /* \"#utility.yul\":1687:1819   */\n      swap2\n      swap1\n      pop\n      jump\t// out\n        /* \"#utility.yul\":1825:1933   */\n    tag_174:\n        /* \"#utility.yul\":1902:1926   */\n      tag_221\n        /* \"#utility.yul\":1920:1925   */\n      dup2\n        /* \"#utility.yul\":1902:1926   */\n      tag_164\n      jump\t// in\n    tag_221:\n        /* \"#utility.yul\":1897:1900   */\n      dup3\n        /* \"#utility.yul\":1890:1927   */\n      mstore\n        /* \"#utility.yul\":1825:1933   */\n      pop\n      pop\n      jump\t// out\n        /* \"#utility.yul\":1939:2118   */\n    tag_175:\n        /* \"#utility.yul\":2008:2018   */\n      0x00\n        /* \"#utility.yul\":2029:2075   */\n      tag_223\n        /* \"#utility.yul\":2071:2074   */\n      dup4\n        /* \"#utility.yul\":2063:2069   */\n      dup4\n        /* \"#utility.yul\":2029:2075   */\n      tag_174\n      jump\t// in\n    tag_223:\n        /* \"#utility.yul\":2107:2111   */\n      0x20\n        /* \"#utility.yul\":2102:2105   */\n      dup4\n        /* \"#utility.yul\":2098:2112   */\n      add\n        /* \"#utility.yul\":2084:2112   */\n      swap1\n      pop\n        /* \"#utility.yul\":1939:2118   */\n      swap3\n      swap2\n      pop\n      pop\n      jump\t// out\n        /* \"#utility.yul\":2124:2237   */\n    tag_176:\n        /* \"#utility.yul\":2194:2198   */\n      0x00\n        /* \"#utility.yul\":2226:2230   */\n      0x20\n        /* \"#utility.yul\":2221:2224   */\n      dup3\n        /* \"#utility.yul\":2217:2231   */\n      add\n        /* \"#utility.yul\":2209:2231   */\n      swap1\n      pop\n        /* \"#utility.yul\":2124:2237   */\n      swap2\n      swap1\n      pop\n      jump\t// out\n        /* \"#utility.yul\":2273:3005   */\n    tag_177:\n        /* \"#utility.yul\":2392:2395   */\n      0x00\n        /* \"#utility.yul\":2421:2475   */\n      tag_226\n        /* \"#utility.yul\":2469:2474   */\n      dup3\n        /* \"#utility.yul\":2421:2475   */\n      tag_171\n      jump\t// in\n    tag_226:\n        /* \"#utility.yul\":2491:2577   */\n      tag_227\n        /* \"#utility.yul\":2570:2576   */\n      dup2\n        /* \"#utility.yul\":2565:2568   */\n      dup6\n        /* \"#utility.yul\":2491:2577   */\n      tag_172\n      jump\t// in\n    tag_227:\n        /* \"#utility.yul\":2484:2577   */\n      swap4\n      pop\n        /* \"#utility.yul\":2601:2657   */\n      tag_228\n        /* \"#utility.yul\":2651:2656   */\n      dup4\n        /* \"#utility.yul\":2601:2657   */\n      tag_173\n      jump\t// in\n    tag_228:\n        /* \"#utility.yul\":2680:2687   */\n      dup1\n        /* \"#utility.yul\":2711:2712   */\n      0x00\n        /* \"#utility.yul\":2696:2980   */\n    tag_229:\n        /* \"#utility.yul\":2721:2727   */\n      dup4\n        /* \"#utility.yul\":2718:2719   */\n      dup2\n        /* \"#utility.yul\":2715:2728   */\n      lt\n        /* \"#utility.yul\":2696:2980   */\n      iszero\n      tag_231\n      jumpi\n        /* \"#utility.yul\":2797:2803   */\n      dup2\n        /* \"#utility.yul\":2791:2804   */\n      mload\n        /* \"#utility.yul\":2824:2887   */\n      tag_232\n        /* \"#utility.yul\":2883:2886   */\n      dup9\n        /* \"#utility.yul\":2868:2881   */\n      dup3\n        /* \"#utility.yul\":2824:2887   */\n      tag_175\n      jump\t// in\n    tag_232:\n        /* \"#utility.yul\":2817:2887   */\n      swap8\n      pop\n        /* \"#utility.yul\":2910:2970   */\n      tag_233\n        /* \"#utility.yul\":2963:2969   */\n      dup4\n        /* \"#utility.yul\":2910:2970   */\n      tag_176\n      jump\t// in\n    tag_233:\n        /* \"#utility.yul\":2900:2970   */\n      swap3\n      pop\n        /* \"#utility.yul\":2756:2980   */\n      pop\n        /* \"#utility.yul\":2743:2744   */\n      0x01\n        /* \"#utility.yul\":2740:2741   */\n      dup2\n        /* \"#utility.yul\":2736:2745   */\n      add\n        /* \"#utility.yul\":2731:2745   */\n      swap1\n      pop\n        /* \"#utility.yul\":2696:2980   */\n      jump(tag_229)\n    tag_231:\n        /* \"#utility.yul\":2700:2714   */\n      pop\n        /* \"#utility.yul\":2996:2999   */\n      dup6\n        /* \"#utility.yul\":2989:2999   */\n      swap4\n      pop\n        /* \"#utility.yul\":2397:3005   */\n      pop\n      pop\n      pop\n        /* \"#utility.yul\":2273:3005   */\n      swap3\n      swap2\n      pop\n      pop\n      jump\t// out\n        /* \"#utility.yul\":3011:3384   */\n    tag_35:\n        /* \"#utility.yul\":3154:3158   */\n      0x00\n        /* \"#utility.yul\":3192:3194   */\n      0x20\n        /* \"#utility.yul\":3181:3190   */\n      dup3\n        /* \"#utility.yul\":3177:3195   */\n      add\n        /* \"#utility.yul\":3169:3195   */\n      swap1\n      pop\n        /* \"#utility.yul\":3241:3250   */\n      dup2\n        /* \"#utility.yul\":3235:3239   */\n      dup2\n        /* \"#utility.yul\":3231:3251   */\n      sub\n        /* \"#utility.yul\":3227:3228   */\n      0x00\n        /* \"#utility.yul\":3216:3225   */\n      dup4\n        /* \"#utility.yul\":3212:3229   */\n      add\n        /* \"#utility.yul\":3205:3252   */\n      mstore\n        /* \"#utility.yul\":3269:3377   */\n      tag_235\n        /* \"#utility.yul\":3372:3376   */\n      dup2\n        /* \"#utility.yul\":3363:3369   */\n      dup5\n        /* \"#utility.yul\":3269:3377   */\n      tag_177\n      jump\t// in\n    tag_235:\n        /* \"#utility.yul\":3261:3377   */\n      swap1\n      pop\n        /* \"#utility.yul\":3011:3384   */\n      swap3\n      swap2\n      pop\n      pop\n      jump\t// out\n        /* \"#utility.yul\":3390:3516   */\n    tag_178:\n        /* \"#utility.yul\":3427:3434   */\n      0x00\n        /* \"#utility.yul\":3467:3509   */\n      0xffffffffffffffffffffffffffffffffffffffff\n        /* \"#utility.yul\":3460:3465   */\n      dup3\n        /* \"#utility.yul\":3456:3510   */\n      and\n        /* \"#utility.yul\":3445:3510   */\n      swap1\n      pop\n        /* \"#utility.yul\":3390:3516   */\n      swap2\n      swap1\n      pop\n      jump\t// out\n        /* \"#utility.yul\":3522:3618   */\n    tag_179:\n        /* \"#utility.yul\":3559:3566   */\n      0x00\n        /* \"#utility.yul\":3588:3612   */\n      tag_238\n        /* \"#utility.yul\":3606:3611   */\n      dup3\n        /* \"#utility.yul\":3588:3612   */\n      tag_178\n      jump\t// in\n    tag_238:\n        /* \"#utility.yul\":3577:3612   */\n      swap1\n      pop\n        /* \"#utility.yul\":3522:3618   */\n      swap2\n      swap1\n      pop\n      jump\t// out\n        /* \"#utility.yul\":3624:3742   */\n    tag_180:\n        /* \"#utility.yul\":3711:3735   */\n      tag_240\n        /* \"#utility.yul\":3729:3734   */\n      dup2\n        /* \"#utility.yul\":3711:3735   */\n      tag_179\n      jump\t// in\n    tag_240:\n        /* \"#utility.yul\":3706:3709   */\n      dup3\n        /* \"#utility.yul\":3699:3736   */\n      mstore\n        /* \"#utility.yul\":3624:3742   */\n      pop\n      pop\n      jump\t// out\n        /* \"#utility.yul\":3748:3970   */\n    tag_52:\n        /* \"#utility.yul\":3841:3845   */\n      0x00\n        /* \"#utility.yul\":3879:3881   */\n      0x20\n        /* \"#utility.yul\":3868:3877   */\n      dup3\n        /* \"#utility.yul\":3864:3882   */\n      add\n        /* \"#utility.yul\":3856:3882   */\n      swap1\n      pop\n        /* \"#utility.yul\":3892:3963   */\n      tag_242\n        /* \"#utility.yul\":3960:3961   */\n      0x00\n        /* \"#utility.yul\":3949:3958   */\n      dup4\n        /* \"#utility.yul\":3945:3962   */\n      add\n        /* \"#utility.yul\":3936:3942   */\n      dup5\n        /* \"#utility.yul\":3892:3963   */\n      tag_180\n      jump\t// in\n    tag_242:\n        /* \"#utility.yul\":3748:3970   */\n      swap3\n      swap2\n      pop\n      pop\n      jump\t// out\n        /* \"#utility.yul\":3976:4156   */\n    tag_181:\n        /* \"#utility.yul\":4024:4101   */\n      0x4e487b7100000000000000000000000000000000000000000000000000000000\n        /* \"#utility.yul\":4021:4022   */\n      0x00\n        /* \"#utility.yul\":4014:4102   */\n      mstore\n        /* \"#utility.yul\":4121:4125   */\n      0x11\n        /* \"#utility.yul\":4118:4119   */\n      0x04\n        /* \"#utility.yul\":4111:4126   */\n      mstore\n        /* \"#utility.yul\":4145:4149   */\n      0x24\n        /* \"#utility.yul\":4142:4143   */\n      0x00\n        /* \"#utility.yul\":4135:4150   */\n      revert\n        /* \"#utility.yul\":4162:4356   */\n    tag_69:\n        /* \"#utility.yul\":4202:4206   */\n      0x00\n        /* \"#utility.yul\":4222:4242   */\n      tag_245\n        /* \"#utility.yul\":4240:4241   */\n      dup3\n        /* \"#utility.yul\":4222:4242   */\n      tag_164\n      jump\t// in\n    tag_245:\n        /* \"#utility.yul\":4217:4242   */\n      swap2\n      pop\n        /* \"#utility.yul\":4256:4276   */\n      tag_246\n        /* \"#utility.yul\":4274:4275   */\n      dup4\n        /* \"#utility.yul\":4256:4276   */\n      tag_164\n      jump\t// in\n    tag_246:\n        /* \"#utility.yul\":4251:4276   */\n      swap3\n      pop\n        /* \"#utility.yul\":4300:4301   */\n      dup3\n        /* \"#utility.yul\":4297:4298   */\n      dup3\n        /* \"#utility.yul\":4293:4302   */\n      sub\n        /* \"#utility.yul\":4285:4302   */\n      swap1\n      pop\n        /* \"#utility.yul\":4324:4325   */\n      dup2\n        /* \"#utility.yul\":4318:4322   */\n      dup2\n        /* \"#utility.yul\":4315:4326   */\n      gt\n        /* \"#utility.yul\":4312:4349   */\n      iszero\n      tag_247\n      jumpi\n        /* \"#utility.yul\":4329:4347   */\n      tag_248\n      tag_181\n      jump\t// in\n    tag_248:\n        /* \"#utility.yul\":4312:4349   */\n    tag_247:\n        /* \"#utility.yul\":4162:4356   */\n      swap3\n      swap2\n      pop\n      pop\n      jump\t// out\n        /* \"#utility.yul\":4362:4694   */\n    tag_75:\n        /* \"#utility.yul\":4483:4487   */\n      0x00\n        /* \"#utility.yul\":4521:4523   */\n      0x40\n        /* \"#utility.yul\":4510:4519   */\n      dup3\n        /* \"#utility.yul\":4506:4524   */\n      add\n        /* \"#utility.yul\":4498:4524   */\n      swap1\n      pop\n        /* \"#utility.yul\":4534:4605   */\n      tag_250\n        /* \"#utility.yul\":4602:4603   */\n      0x00\n        /* \"#utility.yul\":4591:4600   */\n      dup4\n        /* \"#utility.yul\":4587:4604   */\n      add\n        /* \"#utility.yul\":4578:4584   */\n      dup6\n        /* \"#utility.yul\":4534:4605   */\n      tag_180\n      jump\t// in\n    tag_250:\n        /* \"#utility.yul\":4615:4687   */\n      tag_251\n        /* \"#utility.yul\":4683:4685   */\n      0x20\n        /* \"#utility.yul\":4672:4681   */\n      dup4\n        /* \"#utility.yul\":4668:4686   */\n      add\n        /* \"#utility.yul\":4659:4665   */\n      dup5\n        /* \"#utility.yul\":4615:4687   */\n      tag_165\n      jump\t// in\n    tag_251:\n        /* \"#utility.yul\":4362:4694   */\n      swap4\n      swap3\n      pop\n      pop\n      pop\n      jump\t// out\n        /* \"#utility.yul\":4700:4790   */\n    tag_182:\n        /* \"#utility.yul\":4734:4741   */\n      0x00\n        /* \"#utility.yul\":4777:4782   */\n      dup2\n        /* \"#utility.yul\":4770:4783   */\n      iszero\n        /* \"#utility.yul\":4763:4784   */\n      iszero\n        /* \"#utility.yul\":4752:4784   */\n      swap1\n      pop\n        /* \"#utility.yul\":4700:4790   */\n      swap2\n      swap1\n      pop\n      jump\t// out\n        /* \"#utility.yul\":4796:4912   */\n    tag_183:\n        /* \"#utility.yul\":4866:4887   */\n      tag_254\n        /* \"#utility.yul\":4881:4886   */\n      dup2\n        /* \"#utility.yul\":4866:4887   */\n      tag_182\n      jump\t// in\n    tag_254:\n        /* \"#utility.yul\":4859:4864   */\n      dup2\n        /* \"#utility.yul\":4856:4888   */\n      eq\n        /* \"#utility.yul\":4846:4906   */\n      tag_255\n      jumpi\n        /* \"#utility.yul\":4902:4903   */\n      0x00\n        /* \"#utility.yul\":4899:4900   */\n      dup1\n        /* \"#utility.yul\":4892:4904   */\n      revert\n        /* \"#utility.yul\":4846:4906   */\n    tag_255:\n        /* \"#utility.yul\":4796:4912   */\n      pop\n      jump\t// out\n        /* \"#utility.yul\":4918:5055   */\n    tag_184:\n        /* \"#utility.yul\":4972:4977   */\n      0x00\n        /* \"#utility.yul\":5003:5009   */\n      dup2\n        /* \"#utility.yul\":4997:5010   */\n      mload\n        /* \"#utility.yul\":4988:5010   */\n      swap1\n      pop\n        /* \"#utility.yul\":5019:5049   */\n      tag_257\n        /* \"#utility.yul\":5043:5048   */\n      dup2\n        /* \"#utility.yul\":5019:5049   */\n      tag_183\n      jump\t// in\n    tag_257:\n        /* \"#utility.yul\":4918:5055   */\n      swap3\n      swap2\n      pop\n      pop\n      jump\t// out\n        /* \"#utility.yul\":5061:5406   */\n    tag_79:\n        /* \"#utility.yul\":5128:5134   */\n      0x00\n        /* \"#utility.yul\":5177:5179   */\n      0x20\n        /* \"#utility.yul\":5165:5174   */\n      dup3\n        /* \"#utility.yul\":5156:5163   */\n      dup5\n        /* \"#utility.yul\":5152:5175   */\n      sub\n        /* \"#utility.yul\":5148:5180   */\n      slt\n        /* \"#utility.yul\":5145:5264   */\n      iszero\n      tag_259\n      jumpi\n        /* \"#utility.yul\":5183:5262   */\n      tag_260\n      tag_167\n      jump\t// in\n    tag_260:\n        /* \"#utility.yul\":5145:5264   */\n    tag_259:\n        /* \"#utility.yul\":5303:5304   */\n      0x00\n        /* \"#utility.yul\":5328:5389   */\n      tag_261\n        /* \"#utility.yul\":5381:5388   */\n      dup5\n        /* \"#utility.yul\":5372:5378   */\n      dup3\n        /* \"#utility.yul\":5361:5370   */\n      dup6\n        /* \"#utility.yul\":5357:5379   */\n      add\n        /* \"#utility.yul\":5328:5389   */\n      tag_184\n      jump\t// in\n    tag_261:\n        /* \"#utility.yul\":5318:5389   */\n      swap2\n      pop\n        /* \"#utility.yul\":5274:5399   */\n      pop\n        /* \"#utility.yul\":5061:5406   */\n      swap3\n      swap2\n      pop\n      pop\n      jump\t// out\n        /* \"#utility.yul\":5412:5744   */\n    tag_81:\n        /* \"#utility.yul\":5533:5537   */\n      0x00\n        /* \"#utility.yul\":5571:5573   */\n      0x40\n        /* \"#utility.yul\":5560:5569   */\n      dup3\n        /* \"#utility.yul\":5556:5574   */\n      add\n        /* \"#utility.yul\":5548:5574   */\n      swap1\n      pop\n        /* \"#utility.yul\":5584:5655   */\n      tag_263\n        /* \"#utility.yul\":5652:5653   */\n      0x00\n        /* \"#utility.yul\":5641:5650   */\n      dup4\n        /* \"#utility.yul\":5637:5654   */\n      add\n        /* \"#utility.yul\":5628:5634   */\n      dup6\n        /* \"#utility.yul\":5584:5655   */\n      tag_165\n      jump\t// in\n    tag_263:\n        /* \"#utility.yul\":5665:5737   */\n      tag_264\n        /* \"#utility.yul\":5733:5735   */\n      0x20\n        /* \"#utility.yul\":5722:5731   */\n      dup4\n        /* \"#utility.yul\":5718:5736   */\n      add\n        /* \"#utility.yul\":5709:5715   */\n      dup5\n        /* \"#utility.yul\":5665:5737   */\n      tag_180\n      jump\t// in\n    tag_264:\n        /* \"#utility.yul\":5412:5744   */\n      swap4\n      swap3\n      pop\n      pop\n      pop\n      jump\t// out\n        /* \"#utility.yul\":5750:6192   */\n    tag_87:\n        /* \"#utility.yul\":5899:5903   */\n      0x00\n        /* \"#utility.yul\":5937:5939   */\n      0x60\n        /* \"#utility.yul\":5926:5935   */\n      dup3\n        /* \"#utility.yul\":5922:5940   */\n      add\n        /* \"#utility.yul\":5914:5940   */\n      swap1\n      pop\n        /* \"#utility.yul\":5950:6021   */\n      tag_266\n        /* \"#utility.yul\":6018:6019   */\n      0x00\n        /* \"#utility.yul\":6007:6016   */\n      dup4\n        /* \"#utility.yul\":6003:6020   */\n      add\n        /* \"#utility.yul\":5994:6000   */\n      dup7\n        /* \"#utility.yul\":5950:6021   */\n      tag_180\n      jump\t// in\n    tag_266:\n        /* \"#utility.yul\":6031:6103   */\n      tag_267\n        /* \"#utility.yul\":6099:6101   */\n      0x20\n        /* \"#utility.yul\":6088:6097   */\n      dup4\n        /* \"#utility.yul\":6084:6102   */\n      add\n        /* \"#utility.yul\":6075:6081   */\n      dup6\n        /* \"#utility.yul\":6031:6103   */\n      tag_180\n      jump\t// in\n    tag_267:\n        /* \"#utility.yul\":6113:6185   */\n      tag_268\n        /* \"#utility.yul\":6181:6183   */\n      0x40\n        /* \"#utility.yul\":6170:6179   */\n      dup4\n        /* \"#utility.yul\":6166:6184   */\n      add\n        /* \"#utility.yul\":6157:6163   */\n      dup5\n        /* \"#utility.yul\":6113:6185   */\n      tag_165\n      jump\t// in\n    tag_268:\n        /* \"#utility.yul\":5750:6192   */\n      swap5\n      swap4\n      pop\n      pop\n      pop\n      pop\n      jump\t// out\n        /* \"#utility.yul\":6198:6341   */\n    tag_185:\n        /* \"#utility.yul\":6255:6260   */\n      0x00\n        /* \"#utility.yul\":6286:6292   */\n      dup2\n        /* \"#utility.yul\":6280:6293   */\n      mload\n        /* \"#utility.yul\":6271:6293   */\n      swap1\n      pop\n        /* \"#utility.yul\":6302:6335   */\n      tag_270\n        /* \"#utility.yul\":6329:6334   */\n      dup2\n        /* \"#utility.yul\":6302:6335   */\n      tag_169\n      jump\t// in\n    tag_270:\n        /* \"#utility.yul\":6198:6341   */\n      swap3\n      swap2\n      pop\n      pop\n      jump\t// out\n        /* \"#utility.yul\":6347:6698   */\n    tag_100:\n        /* \"#utility.yul\":6417:6423   */\n      0x00\n        /* \"#utility.yul\":6466:6468   */\n      0x20\n        /* \"#utility.yul\":6454:6463   */\n      dup3\n        /* \"#utility.yul\":6445:6452   */\n      dup5\n        /* \"#utility.yul\":6441:6464   */\n      sub\n        /* \"#utility.yul\":6437:6469   */\n      slt\n        /* \"#utility.yul\":6434:6553   */\n      iszero\n      tag_272\n      jumpi\n        /* \"#utility.yul\":6472:6551   */\n      tag_273\n      tag_167\n      jump\t// in\n    tag_273:\n        /* \"#utility.yul\":6434:6553   */\n    tag_272:\n        /* \"#utility.yul\":6592:6593   */\n      0x00\n        /* \"#utility.yul\":6617:6681   */\n      tag_274\n        /* \"#utility.yul\":6673:6680   */\n      dup5\n        /* \"#utility.yul\":6664:6670   */\n      dup3\n        /* \"#utility.yul\":6653:6662   */\n      dup6\n        /* \"#utility.yul\":6649:6671   */\n      add\n        /* \"#utility.yul\":6617:6681   */\n      tag_185\n      jump\t// in\n    tag_274:\n        /* \"#utility.yul\":6607:6681   */\n      swap2\n      pop\n        /* \"#utility.yul\":6563:6691   */\n      pop\n        /* \"#utility.yul\":6347:6698   */\n      swap3\n      swap2\n      pop\n      pop\n      jump\t// out\n        /* \"#utility.yul\":6704:7114   */\n    tag_106:\n        /* \"#utility.yul\":6744:6751   */\n      0x00\n        /* \"#utility.yul\":6767:6787   */\n      tag_276\n        /* \"#utility.yul\":6785:6786   */\n      dup3\n        /* \"#utility.yul\":6767:6787   */\n      tag_164\n      jump\t// in\n    tag_276:\n        /* \"#utility.yul\":6762:6787   */\n      swap2\n      pop\n        /* \"#utility.yul\":6801:6821   */\n      tag_277\n        /* \"#utility.yul\":6819:6820   */\n      dup4\n        /* \"#utility.yul\":6801:6821   */\n      tag_164\n      jump\t// in\n    tag_277:\n        /* \"#utility.yul\":6796:6821   */\n      swap3\n      pop\n        /* \"#utility.yul\":6856:6857   */\n      dup3\n        /* \"#utility.yul\":6853:6854   */\n      dup3\n        /* \"#utility.yul\":6849:6858   */\n      mul\n        /* \"#utility.yul\":6878:6908   */\n      tag_278\n        /* \"#utility.yul\":6896:6907   */\n      dup2\n        /* \"#utility.yul\":6878:6908   */\n      tag_164\n      jump\t// in\n    tag_278:\n        /* \"#utility.yul\":6867:6908   */\n      swap2\n      pop\n        /* \"#utility.yul\":7057:7058   */\n      dup3\n        /* \"#utility.yul\":7048:7055   */\n      dup3\n        /* \"#utility.yul\":7044:7059   */\n      div\n        /* \"#utility.yul\":7041:7042   */\n      dup5\n        /* \"#utility.yul\":7038:7060   */\n      eq\n        /* \"#utility.yul\":7018:7019   */\n      dup4\n        /* \"#utility.yul\":7011:7020   */\n      iszero\n        /* \"#utility.yul\":6991:7074   */\n      or\n        /* \"#utility.yul\":6968:7107   */\n      tag_279\n      jumpi\n        /* \"#utility.yul\":7087:7105   */\n      tag_280\n      tag_181\n      jump\t// in\n    tag_280:\n        /* \"#utility.yul\":6968:7107   */\n    tag_279:\n        /* \"#utility.yul\":6752:7114   */\n      pop\n        /* \"#utility.yul\":6704:7114   */\n      swap3\n      swap2\n      pop\n      pop\n      jump\t// out\n        /* \"#utility.yul\":7120:7289   */\n    tag_186:\n        /* \"#utility.yul\":7204:7215   */\n      0x00\n        /* \"#utility.yul\":7238:7244   */\n      dup3\n        /* \"#utility.yul\":7233:7236   */\n      dup3\n        /* \"#utility.yul\":7226:7245   */\n      mstore\n        /* \"#utility.yul\":7278:7282   */\n      0x20\n        /* \"#utility.yul\":7273:7276   */\n      dup3\n        /* \"#utility.yul\":7269:7283   */\n      add\n        /* \"#utility.yul\":7254:7283   */\n      swap1\n      pop\n        /* \"#utility.yul\":7120:7289   */\n      swap3\n      swap2\n      pop\n      pop\n      jump\t// out\n        /* \"#utility.yul\":7295:7465   */\n    tag_187:\n        /* \"#utility.yul\":7435:7457   */\n      0x496e73756666696369656e742062616c616e6365000000000000000000000000\n        /* \"#utility.yul\":7431:7432   */\n      0x00\n        /* \"#utility.yul\":7423:7429   */\n      dup3\n        /* \"#utility.yul\":7419:7433   */\n      add\n        /* \"#utility.yul\":7412:7458   */\n      mstore\n        /* \"#utility.yul\":7295:7465   */\n      pop\n      jump\t// out\n        /* \"#utility.yul\":7471:7837   */\n    tag_188:\n        /* \"#utility.yul\":7613:7616   */\n      0x00\n        /* \"#utility.yul\":7634:7701   */\n      tag_284\n        /* \"#utility.yul\":7698:7700   */\n      0x14\n        /* \"#utility.yul\":7693:7696   */\n      dup4\n        /* \"#utility.yul\":7634:7701   */\n      tag_186\n      jump\t// in\n    tag_284:\n        /* \"#utility.yul\":7627:7701   */\n      swap2\n      pop\n        /* \"#utility.yul\":7710:7803   */\n      tag_285\n        /* \"#utility.yul\":7799:7802   */\n      dup3\n        /* \"#utility.yul\":7710:7803   */\n      tag_187\n      jump\t// in\n    tag_285:\n        /* \"#utility.yul\":7828:7830   */\n      0x20\n        /* \"#utility.yul\":7823:7826   */\n      dup3\n        /* \"#utility.yul\":7819:7831   */\n      add\n        /* \"#utility.yul\":7812:7831   */\n      swap1\n      pop\n        /* \"#utility.yul\":7471:7837   */\n      swap2\n      swap1\n      pop\n      jump\t// out\n        /* \"#utility.yul\":7843:8262   */\n    tag_110:\n        /* \"#utility.yul\":8009:8013   */\n      0x00\n        /* \"#utility.yul\":8047:8049   */\n      0x20\n        /* \"#utility.yul\":8036:8045   */\n      dup3\n        /* \"#utility.yul\":8032:8050   */\n      add\n        /* \"#utility.yul\":8024:8050   */\n      swap1\n      pop\n        /* \"#utility.yul\":8096:8105   */\n      dup2\n        /* \"#utility.yul\":8090:8094   */\n      dup2\n        /* \"#utility.yul\":8086:8106   */\n      sub\n        /* \"#utility.yul\":8082:8083   */\n      0x00\n        /* \"#utility.yul\":8071:8080   */\n      dup4\n        /* \"#utility.yul\":8067:8084   */\n      add\n        /* \"#utility.yul\":8060:8107   */\n      mstore\n        /* \"#utility.yul\":8124:8255   */\n      tag_287\n        /* \"#utility.yul\":8250:8254   */\n      dup2\n        /* \"#utility.yul\":8124:8255   */\n      tag_188\n      jump\t// in\n    tag_287:\n        /* \"#utility.yul\":8116:8255   */\n      swap1\n      pop\n        /* \"#utility.yul\":7843:8262   */\n      swap2\n      swap1\n      pop\n      jump\t// out\n        /* \"#utility.yul\":8268:8347   */\n    tag_189:\n        /* \"#utility.yul\":8307:8314   */\n      0x00\n        /* \"#utility.yul\":8336:8341   */\n      dup2\n        /* \"#utility.yul\":8325:8341   */\n      swap1\n      pop\n        /* \"#utility.yul\":8268:8347   */\n      swap2\n      swap1\n      pop\n      jump\t// out\n        /* \"#utility.yul\":8353:8510   */\n    tag_190:\n        /* \"#utility.yul\":8458:8503   */\n      tag_290\n        /* \"#utility.yul\":8478:8502   */\n      tag_291\n        /* \"#utility.yul\":8496:8501   */\n      dup3\n        /* \"#utility.yul\":8478:8502   */\n      tag_164\n      jump\t// in\n    tag_291:\n        /* \"#utility.yul\":8458:8503   */\n      tag_189\n      jump\t// in\n    tag_290:\n        /* \"#utility.yul\":8453:8456   */\n      dup3\n        /* \"#utility.yul\":8446:8504   */\n      mstore\n        /* \"#utility.yul\":8353:8510   */\n      pop\n      pop\n      jump\t// out\n        /* \"#utility.yul\":8516:8610   */\n    tag_191:\n        /* \"#utility.yul\":8549:8557   */\n      0x00\n        /* \"#utility.yul\":8597:8602   */\n      dup2\n        /* \"#utility.yul\":8593:8595   */\n      0x60\n        /* \"#utility.yul\":8589:8603   */\n      shl\n        /* \"#utility.yul\":8568:8603   */\n      swap1\n      pop\n        /* \"#utility.yul\":8516:8610   */\n      swap2\n      swap1\n      pop\n      jump\t// out\n        /* \"#utility.yul\":8616:8710   */\n    tag_192:\n        /* \"#utility.yul\":8655:8662   */\n      0x00\n        /* \"#utility.yul\":8684:8704   */\n      tag_294\n        /* \"#utility.yul\":8698:8703   */\n      dup3\n        /* \"#utility.yul\":8684:8704   */\n      tag_191\n      jump\t// in\n    tag_294:\n        /* \"#utility.yul\":8673:8704   */\n      swap1\n      pop\n        /* \"#utility.yul\":8616:8710   */\n      swap2\n      swap1\n      pop\n      jump\t// out\n        /* \"#utility.yul\":8716:8816   */\n    tag_193:\n        /* \"#utility.yul\":8755:8762   */\n      0x00\n        /* \"#utility.yul\":8784:8810   */\n      tag_296\n        /* \"#utility.yul\":8804:8809   */\n      dup3\n        /* \"#utility.yul\":8784:8810   */\n      tag_192\n      jump\t// in\n    tag_296:\n        /* \"#utility.yul\":8773:8810   */\n      swap1\n      pop\n        /* \"#utility.yul\":8716:8816   */\n      swap2\n      swap1\n      pop\n      jump\t// out\n        /* \"#utility.yul\":8822:8979   */\n    tag_194:\n        /* \"#utility.yul\":8927:8972   */\n      tag_298\n        /* \"#utility.yul\":8947:8971   */\n      tag_299\n        /* \"#utility.yul\":8965:8970   */\n      dup3\n        /* \"#utility.yul\":8947:8971   */\n      tag_179\n      jump\t// in\n    tag_299:\n        /* \"#utility.yul\":8927:8972   */\n      tag_193\n      jump\t// in\n    tag_298:\n        /* \"#utility.yul\":8922:8925   */\n      dup3\n        /* \"#utility.yul\":8915:8973   */\n      mstore\n        /* \"#utility.yul\":8822:8979   */\n      pop\n      pop\n      jump\t// out\n        /* \"#utility.yul\":8985:9523   */\n    tag_119:\n        /* \"#utility.yul\":9153:9156   */\n      0x00\n        /* \"#utility.yul\":9168:9243   */\n      tag_301\n        /* \"#utility.yul\":9239:9242   */\n      dup3\n        /* \"#utility.yul\":9230:9236   */\n      dup7\n        /* \"#utility.yul\":9168:9243   */\n      tag_190\n      jump\t// in\n    tag_301:\n        /* \"#utility.yul\":9268:9270   */\n      0x20\n        /* \"#utility.yul\":9263:9266   */\n      dup3\n        /* \"#utility.yul\":9259:9271   */\n      add\n        /* \"#utility.yul\":9252:9271   */\n      swap2\n      pop\n        /* \"#utility.yul\":9281:9356   */\n      tag_302\n        /* \"#utility.yul\":9352:9355   */\n      dup3\n        /* \"#utility.yul\":9343:9349   */\n      dup6\n        /* \"#utility.yul\":9281:9356   */\n      tag_194\n      jump\t// in\n    tag_302:\n        /* \"#utility.yul\":9381:9383   */\n      0x14\n        /* \"#utility.yul\":9376:9379   */\n      dup3\n        /* \"#utility.yul\":9372:9384   */\n      add\n        /* \"#utility.yul\":9365:9384   */\n      swap2\n      pop\n        /* \"#utility.yul\":9394:9469   */\n      tag_303\n        /* \"#utility.yul\":9465:9468   */\n      dup3\n        /* \"#utility.yul\":9456:9462   */\n      dup5\n        /* \"#utility.yul\":9394:9469   */\n      tag_190\n      jump\t// in\n    tag_303:\n        /* \"#utility.yul\":9494:9496   */\n      0x20\n        /* \"#utility.yul\":9489:9492   */\n      dup3\n        /* \"#utility.yul\":9485:9497   */\n      add\n        /* \"#utility.yul\":9478:9497   */\n      swap2\n      pop\n        /* \"#utility.yul\":9514:9517   */\n      dup2\n        /* \"#utility.yul\":9507:9517   */\n      swap1\n      pop\n        /* \"#utility.yul\":8985:9523   */\n      swap5\n      swap4\n      pop\n      pop\n      pop\n      pop\n      jump\t// out\n        /* \"#utility.yul\":9529:9709   */\n    tag_195:\n        /* \"#utility.yul\":9577:9654   */\n      0x4e487b7100000000000000000000000000000000000000000000000000000000\n        /* \"#utility.yul\":9574:9575   */\n      0x00\n        /* \"#utility.yul\":9567:9655   */\n      mstore\n        /* \"#utility.yul\":9674:9678   */\n      0x12\n        /* \"#utility.yul\":9671:9672   */\n      0x04\n        /* \"#utility.yul\":9664:9679   */\n      mstore\n        /* \"#utility.yul\":9698:9702   */\n      0x24\n        /* \"#utility.yul\":9695:9696   */\n      0x00\n        /* \"#utility.yul\":9688:9703   */\n      revert\n        /* \"#utility.yul\":9715:9891   */\n    tag_121:\n        /* \"#utility.yul\":9747:9748   */\n      0x00\n        /* \"#utility.yul\":9764:9784   */\n      tag_306\n        /* \"#utility.yul\":9782:9783   */\n      dup3\n        /* \"#utility.yul\":9764:9784   */\n      tag_164\n      jump\t// in\n    tag_306:\n        /* \"#utility.yul\":9759:9784   */\n      swap2\n      pop\n        /* \"#utility.yul\":9798:9818   */\n      tag_307\n        /* \"#utility.yul\":9816:9817   */\n      dup4\n        /* \"#utility.yul\":9798:9818   */\n      tag_164\n      jump\t// in\n    tag_307:\n        /* \"#utility.yul\":9793:9818   */\n      swap3\n      pop\n        /* \"#utility.yul\":9837:9838   */\n      dup3\n        /* \"#utility.yul\":9827:9862   */\n      tag_308\n      jumpi\n        /* \"#utility.yul\":9842:9860   */\n      tag_309\n      tag_195\n      jump\t// in\n    tag_309:\n        /* \"#utility.yul\":9827:9862   */\n    tag_308:\n        /* \"#utility.yul\":9883:9884   */\n      dup3\n        /* \"#utility.yul\":9880:9881   */\n      dup3\n        /* \"#utility.yul\":9876:9885   */\n      mod\n        /* \"#utility.yul\":9871:9885   */\n      swap1\n      pop\n        /* \"#utility.yul\":9715:9891   */\n      swap3\n      swap2\n      pop\n      pop\n      jump\t// out\n        /* \"#utility.yul\":9897:10130   */\n    tag_123:\n        /* \"#utility.yul\":9936:9939   */\n      0x00\n        /* \"#utility.yul\":9959:9983   */\n      tag_311\n        /* \"#utility.yul\":9977:9982   */\n      dup3\n        /* \"#utility.yul\":9959:9983   */\n      tag_164\n      jump\t// in\n    tag_311:\n        /* \"#utility.yul\":9950:9983   */\n      swap2\n      pop\n        /* \"#utility.yul\":10005:10071   */\n      0xffffffffffffffffffffffffffffffffffffffffffffffffffffffffffffffff\n        /* \"#utility.yul\":9998:10003   */\n      dup3\n        /* \"#utility.yul\":9995:10072   */\n      sub\n        /* \"#utility.yul\":9992:10095   */\n      tag_312\n      jumpi\n        /* \"#utility.yul\":10075:10093   */\n      tag_313\n      tag_181\n      jump\t// in\n    tag_313:\n        /* \"#utility.yul\":9992:10095   */\n    tag_312:\n        /* \"#utility.yul\":10122:10123   */\n      0x01\n        /* \"#utility.yul\":10115:10120   */\n      dup3\n        /* \"#utility.yul\":10111:10124   */\n      add\n        /* \"#utility.yul\":10104:10124   */\n      swap1\n      pop\n        /* \"#utility.yul\":9897:10130   */\n      swap2\n      swap1\n      pop\n      jump\t// out\n        /* \"#utility.yul\":10136:10283   */\n    tag_196:\n        /* \"#utility.yul\":10237:10248   */\n      0x00\n        /* \"#utility.yul\":10274:10277   */\n      dup2\n        /* \"#utility.yul\":10259:10277   */\n      swap1\n      pop\n        /* \"#utility.yul\":10136:10283   */\n      swap3\n      swap2\n      pop\n      pop\n      jump\t// out\n        /* \"#utility.yul\":10289:10435   */\n    tag_197:\n        /* \"#utility.yul\":10386:10392   */\n      dup3\n        /* \"#utility.yul\":10381:10384   */\n      dup2\n        /* \"#utility.yul\":10376:10379   */\n      dup4\n        /* \"#utility.yul\":10363:10393   */\n      calldatacopy\n        /* \"#utility.yul\":10427:10428   */\n      0x00\n        /* \"#utility.yul\":10418:10424   */\n      dup4\n        /* \"#utility.yul\":10413:10416   */\n      dup4\n        /* \"#utility.yul\":10409:10425   */\n      add\n        /* \"#utility.yul\":10402:10429   */\n      mstore\n        /* \"#utility.yul\":10289:10435   */\n      pop\n      pop\n      pop\n      jump\t// out\n        /* \"#utility.yul\":10463:10790   */\n    tag_198:\n        /* \"#utility.yul\":10577:10580   */\n      0x00\n        /* \"#utility.yul\":10598:10686   */\n      tag_317\n        /* \"#utility.yul\":10679:10685   */\n      dup4\n        /* \"#utility.yul\":10674:10677   */\n      dup6\n        /* \"#utility.yul\":10598:10686   */\n      tag_196\n      jump\t// in\n    tag_317:\n        /* \"#utility.yul\":10591:10686   */\n      swap4\n      pop\n        /* \"#utility.yul\":10696:10752   */\n      tag_318\n        /* \"#utility.yul\":10745:10751   */\n      dup4\n        /* \"#utility.yul\":10740:10743   */\n      dup6\n        /* \"#utility.yul\":10733:10738   */\n      dup5\n        /* \"#utility.yul\":10696:10752   */\n      tag_197\n      jump\t// in\n    tag_318:\n        /* \"#utility.yul\":10777:10783   */\n      dup3\n        /* \"#utility.yul\":10772:10775   */\n      dup5\n        /* \"#utility.yul\":10768:10784   */\n      add\n        /* \"#utility.yul\":10761:10784   */\n      swap1\n      pop\n        /* \"#utility.yul\":10463:10790   */\n      swap4\n      swap3\n      pop\n      pop\n      pop\n      jump\t// out\n        /* \"#utility.yul\":10796:11369   */\n    tag_143:\n        /* \"#utility.yul\":10992:10995   */\n      0x00\n        /* \"#utility.yul\":11007:11082   */\n      tag_320\n        /* \"#utility.yul\":11078:11081   */\n      dup3\n        /* \"#utility.yul\":11069:11075   */\n      dup8\n        /* \"#utility.yul\":11007:11082   */\n      tag_190\n      jump\t// in\n    tag_320:\n        /* \"#utility.yul\":11107:11109   */\n      0x20\n        /* \"#utility.yul\":11102:11105   */\n      dup3\n        /* \"#utility.yul\":11098:11110   */\n      add\n        /* \"#utility.yul\":11091:11110   */\n      swap2\n      pop\n        /* \"#utility.yul\":11127:11230   */\n      tag_321\n        /* \"#utility.yul\":11226:11229   */\n      dup3\n        /* \"#utility.yul\":11217:11223   */\n      dup6\n        /* \"#utility.yul\":11209:11215   */\n      dup8\n        /* \"#utility.yul\":11127:11230   */\n      tag_198\n      jump\t// in\n    tag_321:\n        /* \"#utility.yul\":11120:11230   */\n      swap2\n      pop\n        /* \"#utility.yul\":11240:11315   */\n      tag_322\n        /* \"#utility.yul\":11311:11314   */\n      dup3\n        /* \"#utility.yul\":11302:11308   */\n      dup5\n        /* \"#utility.yul\":11240:11315   */\n      tag_194\n      jump\t// in\n    tag_322:\n        /* \"#utility.yul\":11340:11342   */\n      0x14\n        /* \"#utility.yul\":11335:11338   */\n      dup3\n        /* \"#utility.yul\":11331:11343   */\n      add\n        /* \"#utility.yul\":11324:11343   */\n      swap2\n      pop\n        /* \"#utility.yul\":11360:11363   */\n      dup2\n        /* \"#utility.yul\":11353:11363   */\n      swap1\n      pop\n        /* \"#utility.yul\":10796:11369   */\n      swap6\n      swap5\n      pop\n      pop\n      pop\n      pop\n      pop\n      jump\t// out\n        /* \"#utility.yul\":11375:11555   */\n    tag_147:\n        /* \"#utility.yul\":11423:11500   */\n      0x4e487b7100000000000000000000000000000000000000000000000000000000\n        /* \"#utility.yul\":11420:11421   */\n      0x00\n        /* \"#utility.yul\":11413:11501   */\n      mstore\n        /* \"#utility.yul\":11520:11524   */\n      0x32\n        /* \"#utility.yul\":11517:11518   */\n      0x04\n        /* \"#utility.yul\":11510:11525   */\n      mstore\n        /* \"#utility.yul\":11544:11548   */\n      0x24\n        /* \"#utility.yul\":11541:11542   */\n      0x00\n        /* \"#utility.yul\":11534:11549   */\n      revert\n\n    auxdata: 0xa264697066735822122090291f3c44d682cbad5bdcac8f94b4a26607af0207960a29f7c3a3798d05811e64736f6c63430008120033\n}\n\nsub_1: assembly {\n        /* \"Lottery/ERC20.sol\":747:3041  contract ERC20Basic is IERC20{... */\n      mstore(0x40, 0x80)\n        /* \"Lottery/ERC20.sol\":1194:1347  constructor (uint256 initialSupply){... */\n      callvalue\n      dup1\n      iszero\n      tag_1\n      jumpi\n      0x00\n      dup1\n      revert\n    tag_1:\n      pop\n      mload(0x40)\n      sub(codesize, bytecodeSize)\n      dup1\n      bytecodeSize\n      dup4\n      codecopy\n      dup2\n      dup2\n      add\n      0x40\n      mstore\n      dup2\n      add\n      swap1\n      tag_2\n      swap2\n      swap1\n      tag_3\n      jump\t// in\n    tag_2:\n        /* \"Lottery/ERC20.sol\":1247:1257  msg.sender */\n      caller\n        /* \"Lottery/ERC20.sol\":1239:1244  owner */\n      0x00\n      dup1\n        /* \"Lottery/ERC20.sol\":1239:1257  owner = msg.sender */\n      0x0100\n      exp\n      dup2\n      sload\n      dup2\n      0xffffffffffffffffffffffffffffffffffffffff\n      mul\n      not\n      and\n      swap1\n      dup4\n      0xffffffffffffffffffffffffffffffffffffffff\n      and\n      mul\n      or\n      swap1\n      sstore\n      pop\n        /* \"Lottery/ERC20.sol\":1282:1295  initialSupply */\n      dup1\n        /* \"Lottery/ERC20.sol\":1267:1279  totalSupply_ */\n      0x03\n        /* \"Lottery/ERC20.sol\":1267:1295  totalSupply_ = initialSupply */\n      dup2\n      swap1\n      sstore\n      pop\n        /* \"Lottery/ERC20.sol\":1328:1340  totalSupply_ */\n      sload(0x03)\n        /* \"Lottery/ERC20.sol\":1305:1313  balances */\n      0x01\n        /* \"Lottery/ERC20.sol\":1305:1325  balances[msg.sender] */\n      0x00\n        /* \"Lottery/ERC20.sol\":1314:1324  msg.sender */\n      caller\n        /* \"Lottery/ERC20.sol\":1305:1325  balances[msg.sender] */\n      0xffffffffffffffffffffffffffffffffffffffff\n      and\n      0xffffffffffffffffffffffffffffffffffffffff\n      and\n      dup2\n      mstore\n      0x20\n      add\n      swap1\n      dup2\n      mstore\n      0x20\n      add\n      0x00\n      keccak256\n        /* \"Lottery/ERC20.sol\":1305:1340  balances[msg.sender] = totalSupply_ */\n      dup2\n      swap1\n      sstore\n      pop\n        /* \"Lottery/ERC20.sol\":1194:1347  constructor (uint256 initialSupply){... */\n      pop\n        /* \"Lottery/ERC20.sol\":747:3041  contract ERC20Basic is IERC20{... */\n      jump(tag_6)\n        /* \"#utility.yul\":88:205   */\n    tag_8:\n        /* \"#utility.yul\":197:198   */\n      0x00\n        /* \"#utility.yul\":194:195   */\n      dup1\n        /* \"#utility.yul\":187:199   */\n      revert\n        /* \"#utility.yul\":334:411   */\n    tag_10:\n        /* \"#utility.yul\":371:378   */\n      0x00\n        /* \"#utility.yul\":400:405   */\n      dup2\n        /* \"#utility.yul\":389:405   */\n      swap1\n      pop\n        /* \"#utility.yul\":334:411   */\n      swap2\n      swap1\n      pop\n      jump\t// out\n        /* \"#utility.yul\":417:539   */\n    tag_11:\n        /* \"#utility.yul\":490:514   */\n      tag_19\n        /* \"#utility.yul\":508:513   */\n      dup2\n        /* \"#utility.yul\":490:514   */\n      tag_10\n      jump\t// in\n    tag_19:\n        /* \"#utility.yul\":483:488   */\n      dup2\n        /* \"#utility.yul\":480:515   */\n      eq\n        /* \"#utility.yul\":470:533   */\n      tag_20\n      jumpi\n        /* \"#utility.yul\":529:530   */\n      0x00\n        /* \"#utility.yul\":526:527   */\n      dup1\n        /* \"#utility.yul\":519:531   */\n      revert\n        /* \"#utility.yul\":470:533   */\n    tag_20:\n        /* \"#utility.yul\":417:539   */\n      pop\n      jump\t// out\n        /* \"#utility.yul\":545:688   */\n    tag_12:\n        /* \"#utility.yul\":602:607   */\n      0x00\n        /* \"#utility.yul\":633:639   */\n      dup2\n        /* \"#utility.yul\":627:640   */\n      mload\n        /* \"#utility.yul\":618:640   */\n      swap1\n      pop\n        /* \"#utility.yul\":649:682   */\n      tag_22\n        /* \"#utility.yul\":676:681   */\n      dup2\n        /* \"#utility.yul\":649:682   */\n      tag_11\n      jump\t// in\n    tag_22:\n        /* \"#utility.yul\":545:688   */\n      swap3\n      swap2\n      pop\n      pop\n      jump\t// out\n        /* \"#utility.yul\":694:1045   */\n    tag_3:\n        /* \"#utility.yul\":764:770   */\n      0x00\n        /* \"#utility.yul\":813:815   */\n      0x20\n        /* \"#utility.yul\":801:810   */\n      dup3\n        /* \"#utility.yul\":792:799   */\n      dup5\n        /* \"#utility.yul\":788:811   */\n      sub\n        /* \"#utility.yul\":784:816   */\n      slt\n        /* \"#utility.yul\":781:900   */\n      iszero\n      tag_24\n      jumpi\n        /* \"#utility.yul\":819:898   */\n      tag_25\n      tag_8\n      jump\t// in\n    tag_25:\n        /* \"#utility.yul\":781:900   */\n    tag_24:\n        /* \"#utility.yul\":939:940   */\n      0x00\n        /* \"#utility.yul\":964:1028   */\n      tag_26\n        /* \"#utility.yul\":1020:1027   */\n      dup5\n        /* \"#utility.yul\":1011:1017   */\n      dup3\n        /* \"#utility.yul\":1000:1009   */\n      dup6\n        /* \"#utility.yul\":996:1018   */\n      add\n        /* \"#utility.yul\":964:1028   */\n      tag_12\n      jump\t// in\n    tag_26:\n        /* \"#utility.yul\":954:1028   */\n      swap2\n      pop\n        /* \"#utility.yul\":910:1038   */\n      pop\n        /* \"#utility.yul\":694:1045   */\n      swap3\n      swap2\n      pop\n      pop\n      jump\t// out\n        /* \"Lottery/ERC20.sol\":747:3041  contract ERC20Basic is IERC20{... */\n    tag_6:\n      dataSize(sub_0)\n      dup1\n      dataOffset(sub_0)\n      0x00\n      codecopy\n      0x00\n      return\n    stop\n\n    sub_0: assembly {\n            /* \"Lottery/ERC20.sol\":747:3041  contract ERC20Basic is IERC20{... */\n          mstore(0x40, 0x80)\n          callvalue\n          dup1\n          iszero\n          tag_1\n          jumpi\n          0x00\n          dup1\n          revert\n        tag_1:\n          pop\n          jumpi(tag_2, lt(calldatasize, 0x04))\n          shr(0xe0, calldataload(0x00))\n          dup1\n          0x313ce567\n          gt\n          tag_14\n          jumpi\n          dup1\n          0x313ce567\n          eq\n          tag_8\n          jumpi\n          dup1\n          0x70a08231\n          eq\n          tag_9\n          jumpi\n          dup1\n          0x715018a6\n          eq\n          tag_10\n          jumpi\n          dup1\n          0x95d89b41\n          eq\n          tag_11\n          jumpi\n          dup1\n          0xa9059cbb\n          eq\n          tag_12\n          jumpi\n          dup1\n          0xdd62ed3e\n          eq\n          tag_13\n          jumpi\n          jump(tag_2)\n        tag_14:\n          dup1\n          0x06fdde03\n          eq\n          tag_3\n          jumpi\n          dup1\n          0x095ea7b3\n          eq\n          tag_4\n          jumpi\n          dup1\n          0x18160ddd\n          eq\n          tag_5\n          jumpi\n          dup1\n          0x1d43cc98\n          eq\n          tag_6\n          jumpi\n          dup1\n          0x23b872dd\n          eq\n          tag_7\n          jumpi\n        tag_2:\n          0x00\n          dup1\n          revert\n            /* \"Lottery/ERC20.sol\":783:824  string public constant name = \"TestERC20\" */\n        tag_3:\n          tag_15\n          tag_16\n          jump\t// in\n        tag_15:\n          mload(0x40)\n          tag_17\n          swap2\n          swap1\n          tag_18\n          jump\t// in\n        tag_17:\n          mload(0x40)\n          dup1\n          swap2\n          sub\n          swap1\n          return\n            /* \"Lottery/ERC20.sol\":2101:2379  function approve(address _delegate, uint256 _numTokens) public override returns (bool){... */\n        tag_4:\n          tag_19\n          0x04\n          dup1\n          calldatasize\n          sub\n          dup2\n          add\n          swap1\n          tag_20\n          swap2\n          swap1\n          tag_21\n          jump\t// in\n        tag_20:\n          tag_22\n          jump\t// in\n        tag_19:\n          mload(0x40)\n          tag_23\n          swap2\n          swap1\n          tag_24\n          jump\t// in\n        tag_23:\n          mload(0x40)\n          dup1\n          swap2\n          sub\n          swap1\n          return\n            /* \"Lottery/ERC20.sol\":1353:1450  function totalSupply() public override view returns (uint256){... */\n        tag_5:\n          tag_25\n          tag_26\n          jump\t// in\n        tag_25:\n          mload(0x40)\n          tag_27\n          swap2\n          swap1\n          tag_28\n          jump\t// in\n        tag_27:\n          mload(0x40)\n          dup1\n          swap2\n          sub\n          swap1\n          return\n            /* \"Lottery/ERC20.sol\":2869:3037  function increaseTotalSupply(uint _newTokensAmount) public onlyOwner{... */\n        tag_6:\n          tag_29\n          0x04\n          dup1\n          calldatasize\n          sub\n          dup2\n          add\n          swap1\n          tag_30\n          swap2\n          swap1\n          tag_31\n          jump\t// in\n        tag_30:\n          tag_32\n          jump\t// in\n        tag_29:\n          stop\n            /* \"Lottery/ERC20.sol\":2385:2749  function transferFrom(address _owner, address _receiver, uint256 _numTokens) public override returns (bool){... */\n        tag_7:\n          tag_33\n          0x04\n          dup1\n          calldatasize\n          sub\n          dup2\n          add\n          swap1\n          tag_34\n          swap2\n          swap1\n          tag_35\n          jump\t// in\n        tag_34:\n          tag_36\n          jump\t// in\n        tag_33:\n          mload(0x40)\n          tag_37\n          swap2\n          swap1\n          tag_24\n          jump\t// in\n        tag_37:\n          mload(0x40)\n          dup1\n          swap2\n          sub\n          swap1\n          return\n            /* \"Lottery/ERC20.sol\":875:910  uint8 public constant decimals = 18 */\n        tag_8:\n          tag_38\n          tag_39\n          jump\t// in\n        tag_38:\n          mload(0x40)\n          tag_40\n          swap2\n          swap1\n          tag_41\n          jump\t// in\n        tag_40:\n          mload(0x40)\n          dup1\n          swap2\n          sub\n          swap1\n          return\n            /* \"Lottery/ERC20.sol\":1456:1578  function balanceOf(address _tokenOwner) public override view returns(uint256){... */\n        tag_9:\n          tag_42\n          0x04\n          dup1\n          calldatasize\n          sub\n          dup2\n          add\n          swap1\n          tag_43\n          swap2\n          swap1\n          tag_44\n          jump\t// in\n        tag_43:\n          tag_45\n          jump\t// in\n        tag_42:\n          mload(0x40)\n          tag_46\n          swap2\n          swap1\n          tag_28\n          jump\t// in\n        tag_46:\n          mload(0x40)\n          dup1\n          swap2\n          sub\n          swap1\n          return\n            /* \"Lottery/ERC20.sol\":2782:2862  function renounceOwnership() public onlyOwner{... */\n        tag_10:\n          tag_47\n          tag_48\n          jump\t// in\n        tag_47:\n          stop\n            /* \"Lottery/ERC20.sol\":830:869  string public constant symbol = \"ERC20\" */\n        tag_11:\n          tag_49\n          tag_50\n          jump\t// in\n        tag_49:\n          mload(0x40)\n          tag_51\n          swap2\n          swap1\n          tag_18\n          jump\t// in\n        tag_51:\n          mload(0x40)\n          dup1\n          swap2\n          sub\n          swap1\n          return\n            /* \"Lottery/ERC20.sol\":1731:2095  function transfer(address _recipient, uint256 _numTokens) public override returns (bool){... */\n        tag_12:\n          tag_52\n          0x04\n          dup1\n          calldatasize\n          sub\n          dup2\n          add\n          swap1\n          tag_53\n          swap2\n          swap1\n          tag_21\n          jump\t// in\n        tag_53:\n          tag_54\n          jump\t// in\n        tag_52:\n          mload(0x40)\n          tag_55\n          swap2\n          swap1\n          tag_24\n          jump\t// in\n        tag_55:\n          mload(0x40)\n          dup1\n          swap2\n          sub\n          swap1\n          return\n            /* \"Lottery/ERC20.sol\":1584:1725  function allowance(address _owner, address _delegate) public override view returns(uint256){... */\n        tag_13:\n          tag_56\n          0x04\n          dup1\n          calldatasize\n          sub\n          dup2\n          add\n          swap1\n          tag_57\n          swap2\n          swap1\n          tag_58\n          jump\t// in\n        tag_57:\n          tag_59\n          jump\t// in\n        tag_56:\n          mload(0x40)\n          tag_60\n          swap2\n          swap1\n          tag_28\n          jump\t// in\n        tag_60:\n          mload(0x40)\n          dup1\n          swap2\n          sub\n          swap1\n          return\n            /* \"Lottery/ERC20.sol\":783:824  string public constant name = \"TestERC20\" */\n        tag_16:\n          mload(0x40)\n          dup1\n          0x40\n          add\n          0x40\n          mstore\n          dup1\n          0x09\n          dup2\n          mstore\n          0x20\n          add\n          0x5465737445524332300000000000000000000000000000000000000000000000\n          dup2\n          mstore\n          pop\n          dup2\n          jump\t// out\n            /* \"Lottery/ERC20.sol\":2101:2379  function approve(address _delegate, uint256 _numTokens) public override returns (bool){... */\n        tag_22:\n            /* \"Lottery/ERC20.sol\":2182:2186  bool */\n          0x00\n            /* \"Lottery/ERC20.sol\":2219:2227  balances */\n          0x01\n            /* \"Lottery/ERC20.sol\":2219:2239  balances[msg.sender] */\n          0x00\n            /* \"Lottery/ERC20.sol\":2228:2238  msg.sender */\n          caller\n            /* \"Lottery/ERC20.sol\":2219:2239  balances[msg.sender] */\n          0xffffffffffffffffffffffffffffffffffffffff\n          and\n          0xffffffffffffffffffffffffffffffffffffffff\n          and\n          dup2\n          mstore\n          0x20\n          add\n          swap1\n          dup2\n          mstore\n          0x20\n          add\n          0x00\n          keccak256\n          sload\n            /* \"Lottery/ERC20.sol\":2205:2215  _numTokens */\n          dup3\n            /* \"Lottery/ERC20.sol\":2205:2239  _numTokens <= balances[msg.sender] */\n          gt\n          iszero\n            /* \"Lottery/ERC20.sol\":2197:2240  require(_numTokens <= balances[msg.sender]) */\n          tag_62\n          jumpi\n          0x00\n          dup1\n          revert\n        tag_62:\n            /* \"Lottery/ERC20.sol\":2283:2293  _numTokens */\n          dup2\n            /* \"Lottery/ERC20.sol\":2250:2257  allowed */\n          0x02\n            /* \"Lottery/ERC20.sol\":2250:2269  allowed[msg.sender] */\n          0x00\n            /* \"Lottery/ERC20.sol\":2258:2268  msg.sender */\n          caller\n            /* \"Lottery/ERC20.sol\":2250:2269  allowed[msg.sender] */\n          0xffffffffffffffffffffffffffffffffffffffff\n          and\n          0xffffffffffffffffffffffffffffffffffffffff\n          and\n          dup2\n          mstore\n          0x20\n          add\n          swap1\n          dup2\n          mstore\n          0x20\n          add\n          0x00\n          keccak256\n            /* \"Lottery/ERC20.sol\":2250:2280  allowed[msg.sender][_delegate] */\n          0x00\n            /* \"Lottery/ERC20.sol\":2270:2279  _delegate */\n          dup6\n            /* \"Lottery/ERC20.sol\":2250:2280  allowed[msg.sender][_delegate] */\n          0xffffffffffffffffffffffffffffffffffffffff\n          and\n          0xffffffffffffffffffffffffffffffffffffffff\n          and\n          dup2\n          mstore\n          0x20\n          add\n          swap1\n          dup2\n          mstore\n          0x20\n          add\n          0x00\n          keccak256\n            /* \"Lottery/ERC20.sol\":2250:2293  allowed[msg.sender][_delegate] = _numTokens */\n          dup2\n          swap1\n          sstore\n          pop\n            /* \"Lottery/ERC20.sol\":2329:2338  _delegate */\n          dup3\n            /* \"Lottery/ERC20.sol\":2308:2351  Approval(msg.sender, _delegate, _numTokens) */\n          0xffffffffffffffffffffffffffffffffffffffff\n          and\n            /* \"Lottery/ERC20.sol\":2317:2327  msg.sender */\n          caller\n            /* \"Lottery/ERC20.sol\":2308:2351  Approval(msg.sender, _delegate, _numTokens) */\n          0xffffffffffffffffffffffffffffffffffffffff\n          and\n          0x8c5be1e5ebec7d5bd14f71427d1e84f3dd0314c0f7b2291e5b200ac8c7c3b925\n            /* \"Lottery/ERC20.sol\":2340:2350  _numTokens */\n          dup5\n            /* \"Lottery/ERC20.sol\":2308:2351  Approval(msg.sender, _delegate, _numTokens) */\n          mload(0x40)\n          tag_63\n          swap2\n          swap1\n          tag_28\n          jump\t// in\n        tag_63:\n          mload(0x40)\n          dup1\n          swap2\n          sub\n          swap1\n          log3\n            /* \"Lottery/ERC20.sol\":2368:2372  true */\n          0x01\n            /* \"Lottery/ERC20.sol\":2361:2372  return true */\n          swap1\n          pop\n            /* \"Lottery/ERC20.sol\":2101:2379  function approve(address _delegate, uint256 _numTokens) public override returns (bool){... */\n          swap3\n          swap2\n          pop\n          pop\n          jump\t// out\n            /* \"Lottery/ERC20.sol\":1353:1450  function totalSupply() public override view returns (uint256){... */\n        tag_26:\n            /* \"Lottery/ERC20.sol\":1406:1413  uint256 */\n          0x00\n            /* \"Lottery/ERC20.sol\":1431:1443  totalSupply_ */\n          sload(0x03)\n            /* \"Lottery/ERC20.sol\":1424:1443  return totalSupply_ */\n          swap1\n          pop\n            /* \"Lottery/ERC20.sol\":1353:1450  function totalSupply() public override view returns (uint256){... */\n          swap1\n          jump\t// out\n            /* \"Lottery/ERC20.sol\":2869:3037  function increaseTotalSupply(uint _newTokensAmount) public onlyOwner{... */\n        tag_32:\n            /* \"Lottery/ERC20.sol\":1143:1153  msg.sender */\n          caller\n            /* \"Lottery/ERC20.sol\":1134:1153  owner == msg.sender */\n          0xffffffffffffffffffffffffffffffffffffffff\n          and\n            /* \"Lottery/ERC20.sol\":1134:1139  owner */\n          0x00\n          dup1\n          sload\n          swap1\n          0x0100\n          exp\n          swap1\n          div\n          0xffffffffffffffffffffffffffffffffffffffff\n          and\n            /* \"Lottery/ERC20.sol\":1134:1153  owner == msg.sender */\n          0xffffffffffffffffffffffffffffffffffffffff\n          and\n          eq\n            /* \"Lottery/ERC20.sol\":1126:1170  require(owner == msg.sender,\"Must be Owner\") */\n          tag_66\n          jumpi\n          mload(0x40)\n          0x08c379a000000000000000000000000000000000000000000000000000000000\n          dup2\n          mstore\n          0x04\n          add\n          tag_67\n          swap1\n          tag_68\n          jump\t// in\n        tag_67:\n          mload(0x40)\n          dup1\n          swap2\n          sub\n          swap1\n          revert\n        tag_66:\n            /* \"Lottery/ERC20.sol\":2964:2980  _newTokensAmount */\n          dup1\n            /* \"Lottery/ERC20.sol\":2947:2959  totalSupply_ */\n          0x03\n          0x00\n            /* \"Lottery/ERC20.sol\":2947:2980  totalSupply_ +=  _newTokensAmount */\n          dup3\n          dup3\n          sload\n          tag_70\n          swap2\n          swap1\n          tag_71\n          jump\t// in\n        tag_70:\n          swap3\n          pop\n          pop\n          dup2\n          swap1\n          sstore\n          pop\n            /* \"Lottery/ERC20.sol\":3014:3030  _newTokensAmount */\n          dup1\n            /* \"Lottery/ERC20.sol\":2990:2998  balances */\n          0x01\n            /* \"Lottery/ERC20.sol\":2990:3010  balances[msg.sender] */\n          0x00\n            /* \"Lottery/ERC20.sol\":2999:3009  msg.sender */\n          caller\n            /* \"Lottery/ERC20.sol\":2990:3010  balances[msg.sender] */\n          0xffffffffffffffffffffffffffffffffffffffff\n          and\n          0xffffffffffffffffffffffffffffffffffffffff\n          and\n          dup2\n          mstore\n          0x20\n          add\n          swap1\n          dup2\n          mstore\n          0x20\n          add\n          0x00\n          keccak256\n          0x00\n            /* \"Lottery/ERC20.sol\":2990:3030  balances[msg.sender] += _newTokensAmount */\n          dup3\n          dup3\n          sload\n          tag_72\n          swap2\n          swap1\n          tag_71\n          jump\t// in\n        tag_72:\n          swap3\n          pop\n          pop\n          dup2\n          swap1\n          sstore\n          pop\n            /* \"Lottery/ERC20.sol\":2869:3037  function increaseTotalSupply(uint _newTokensAmount) public onlyOwner{... */\n          pop\n          jump\t// out\n            /* \"Lottery/ERC20.sol\":2385:2749  function transferFrom(address _owner, address _receiver, uint256 _numTokens) public override returns (bool){... */\n        tag_36:\n            /* \"Lottery/ERC20.sol\":2487:2491  bool */\n          0x00\n            /* \"Lottery/ERC20.sol\":2524:2532  balances */\n          0x01\n            /* \"Lottery/ERC20.sol\":2524:2540  balances[_owner] */\n          0x00\n            /* \"Lottery/ERC20.sol\":2533:2539  _owner */\n          dup6\n            /* \"Lottery/ERC20.sol\":2524:2540  balances[_owner] */\n          0xffffffffffffffffffffffffffffffffffffffff\n          and\n          0xffffffffffffffffffffffffffffffffffffffff\n          and\n          dup2\n          mstore\n          0x20\n          add\n          swap1\n          dup2\n          mstore\n          0x20\n          add\n          0x00\n          keccak256\n          sload\n            /* \"Lottery/ERC20.sol\":2510:2520  _numTokens */\n          dup3\n            /* \"Lottery/ERC20.sol\":2510:2540  _numTokens <= balances[_owner] */\n          gt\n          iszero\n            /* \"Lottery/ERC20.sol\":2502:2541  require(_numTokens <= balances[_owner]) */\n          tag_74\n          jumpi\n          0x00\n          dup1\n          revert\n        tag_74:\n            /* \"Lottery/ERC20.sol\":2570:2602  balances[_owner].sub(_numTokens) */\n          tag_75\n            /* \"Lottery/ERC20.sol\":2591:2601  _numTokens */\n          dup3\n            /* \"Lottery/ERC20.sol\":2570:2578  balances */\n          0x01\n            /* \"Lottery/ERC20.sol\":2570:2586  balances[_owner] */\n          0x00\n            /* \"Lottery/ERC20.sol\":2579:2585  _owner */\n          dup8\n            /* \"Lottery/ERC20.sol\":2570:2586  balances[_owner] */\n          0xffffffffffffffffffffffffffffffffffffffff\n          and\n          0xffffffffffffffffffffffffffffffffffffffff\n          and\n          dup2\n          mstore\n          0x20\n          add\n          swap1\n          dup2\n          mstore\n          0x20\n          add\n          0x00\n          keccak256\n          sload\n            /* \"Lottery/ERC20.sol\":2570:2590  balances[_owner].sub */\n          tag_76\n          swap1\n            /* \"Lottery/ERC20.sol\":2570:2602  balances[_owner].sub(_numTokens) */\n          swap2\n          swap1\n          0xffffffff\n          and\n          jump\t// in\n        tag_75:\n            /* \"Lottery/ERC20.sol\":2551:2559  balances */\n          0x01\n            /* \"Lottery/ERC20.sol\":2551:2567  balances[_owner] */\n          0x00\n            /* \"Lottery/ERC20.sol\":2560:2566  _owner */\n          dup7\n            /* \"Lottery/ERC20.sol\":2551:2567  balances[_owner] */\n          0xffffffffffffffffffffffffffffffffffffffff\n          and\n          0xffffffffffffffffffffffffffffffffffffffff\n          and\n          dup2\n          mstore\n          0x20\n          add\n          swap1\n          dup2\n          mstore\n          0x20\n          add\n          0x00\n          keccak256\n            /* \"Lottery/ERC20.sol\":2551:2602  balances[_owner] = balances[_owner].sub(_numTokens) */\n          dup2\n          swap1\n          sstore\n          pop\n            /* \"Lottery/ERC20.sol\":2634:2669  balances[_receiver].add(_numTokens) */\n          tag_77\n            /* \"Lottery/ERC20.sol\":2658:2668  _numTokens */\n          dup3\n            /* \"Lottery/ERC20.sol\":2634:2642  balances */\n          0x01\n            /* \"Lottery/ERC20.sol\":2634:2653  balances[_receiver] */\n          0x00\n            /* \"Lottery/ERC20.sol\":2643:2652  _receiver */\n          dup7\n            /* \"Lottery/ERC20.sol\":2634:2653  balances[_receiver] */\n          0xffffffffffffffffffffffffffffffffffffffff\n          and\n          0xffffffffffffffffffffffffffffffffffffffff\n          and\n          dup2\n          mstore\n          0x20\n          add\n          swap1\n          dup2\n          mstore\n          0x20\n          add\n          0x00\n          keccak256\n          sload\n            /* \"Lottery/ERC20.sol\":2634:2657  balances[_receiver].add */\n          tag_78\n          swap1\n            /* \"Lottery/ERC20.sol\":2634:2669  balances[_receiver].add(_numTokens) */\n          swap2\n          swap1\n          0xffffffff\n          and\n          jump\t// in\n        tag_77:\n            /* \"Lottery/ERC20.sol\":2612:2620  balances */\n          0x01\n            /* \"Lottery/ERC20.sol\":2612:2631  balances[_receiver] */\n          0x00\n            /* \"Lottery/ERC20.sol\":2621:2630  _receiver */\n          dup6\n            /* \"Lottery/ERC20.sol\":2612:2631  balances[_receiver] */\n          0xffffffffffffffffffffffffffffffffffffffff\n          and\n          0xffffffffffffffffffffffffffffffffffffffff\n          and\n          dup2\n          mstore\n          0x20\n          add\n          swap1\n          dup2\n          mstore\n          0x20\n          add\n          0x00\n          keccak256\n            /* \"Lottery/ERC20.sol\":2612:2669  balances[_receiver] = balances[_receiver].add(_numTokens) */\n          dup2\n          swap1\n          sstore\n          pop\n            /* \"Lottery/ERC20.sol\":2700:2709  _receiver */\n          dup3\n            /* \"Lottery/ERC20.sol\":2684:2721  Transfer(_owner,_receiver,_numTokens) */\n          0xffffffffffffffffffffffffffffffffffffffff\n          and\n            /* \"Lottery/ERC20.sol\":2693:2699  _owner */\n          dup5\n            /* \"Lottery/ERC20.sol\":2684:2721  Transfer(_owner,_receiver,_numTokens) */\n          0xffffffffffffffffffffffffffffffffffffffff\n          and\n          0xddf252ad1be2c89b69c2b068fc378daa952ba7f163c4a11628f55a4df523b3ef\n            /* \"Lottery/ERC20.sol\":2710:2720  _numTokens */\n          dup5\n            /* \"Lottery/ERC20.sol\":2684:2721  Transfer(_owner,_receiver,_numTokens) */\n          mload(0x40)\n          tag_79\n          swap2\n          swap1\n          tag_28\n          jump\t// in\n        tag_79:\n          mload(0x40)\n          dup1\n          swap2\n          sub\n          swap1\n          log3\n            /* \"Lottery/ERC20.sol\":2738:2742  true */\n          0x01\n            /* \"Lottery/ERC20.sol\":2731:2742  return true */\n          swap1\n          pop\n            /* \"Lottery/ERC20.sol\":2385:2749  function transferFrom(address _owner, address _receiver, uint256 _numTokens) public override returns (bool){... */\n          swap4\n          swap3\n          pop\n          pop\n          pop\n          jump\t// out\n            /* \"Lottery/ERC20.sol\":875:910  uint8 public constant decimals = 18 */\n        tag_39:\n            /* \"Lottery/ERC20.sol\":908:910  18 */\n          0x12\n            /* \"Lottery/ERC20.sol\":875:910  uint8 public constant decimals = 18 */\n          dup2\n          jump\t// out\n            /* \"Lottery/ERC20.sol\":1456:1578  function balanceOf(address _tokenOwner) public override view returns(uint256){... */\n        tag_45:\n            /* \"Lottery/ERC20.sol\":1525:1532  uint256 */\n          0x00\n            /* \"Lottery/ERC20.sol\":1550:1558  balances */\n          0x01\n            /* \"Lottery/ERC20.sol\":1550:1571  balances[_tokenOwner] */\n          0x00\n            /* \"Lottery/ERC20.sol\":1559:1570  _tokenOwner */\n          dup4\n            /* \"Lottery/ERC20.sol\":1550:1571  balances[_tokenOwner] */\n          0xffffffffffffffffffffffffffffffffffffffff\n          and\n          0xffffffffffffffffffffffffffffffffffffffff\n          and\n          dup2\n          mstore\n          0x20\n          add\n          swap1\n          dup2\n          mstore\n          0x20\n          add\n          0x00\n          keccak256\n          sload\n            /* \"Lottery/ERC20.sol\":1543:1571  return balances[_tokenOwner] */\n          swap1\n          pop\n            /* \"Lottery/ERC20.sol\":1456:1578  function balanceOf(address _tokenOwner) public override view returns(uint256){... */\n          swap2\n          swap1\n          pop\n          jump\t// out\n            /* \"Lottery/ERC20.sol\":2782:2862  function renounceOwnership() public onlyOwner{... */\n        tag_48:\n            /* \"Lottery/ERC20.sol\":1143:1153  msg.sender */\n          caller\n            /* \"Lottery/ERC20.sol\":1134:1153  owner == msg.sender */\n          0xffffffffffffffffffffffffffffffffffffffff\n          and\n            /* \"Lottery/ERC20.sol\":1134:1139  owner */\n          0x00\n          dup1\n          sload\n          swap1\n          0x0100\n          exp\n          swap1\n          div\n          0xffffffffffffffffffffffffffffffffffffffff\n          and\n            /* \"Lottery/ERC20.sol\":1134:1153  owner == msg.sender */\n          0xffffffffffffffffffffffffffffffffffffffff\n          and\n          eq\n            /* \"Lottery/ERC20.sol\":1126:1170  require(owner == msg.sender,\"Must be Owner\") */\n          tag_82\n          jumpi\n          mload(0x40)\n          0x08c379a000000000000000000000000000000000000000000000000000000000\n          dup2\n          mstore\n          0x04\n          add\n          tag_83\n          swap1\n          tag_68\n          jump\t// in\n        tag_83:\n          mload(0x40)\n          dup1\n          swap2\n          sub\n          swap1\n          revert\n        tag_82:\n            /* \"Lottery/ERC20.sol\":2853:2854  0 */\n          0x00\n            /* \"Lottery/ERC20.sol\":2837:2842  owner */\n          dup1\n          0x00\n            /* \"Lottery/ERC20.sol\":2837:2855  owner = address(0) */\n          0x0100\n          exp\n          dup2\n          sload\n          dup2\n          0xffffffffffffffffffffffffffffffffffffffff\n          mul\n          not\n          and\n          swap1\n          dup4\n          0xffffffffffffffffffffffffffffffffffffffff\n          and\n          mul\n          or\n          swap1\n          sstore\n          pop\n            /* \"Lottery/ERC20.sol\":2782:2862  function renounceOwnership() public onlyOwner{... */\n          jump\t// out\n            /* \"Lottery/ERC20.sol\":830:869  string public constant symbol = \"ERC20\" */\n        tag_50:\n          mload(0x40)\n          dup1\n          0x40\n          add\n          0x40\n          mstore\n          dup1\n          0x05\n          dup2\n          mstore\n          0x20\n          add\n          0x4552433230000000000000000000000000000000000000000000000000000000\n          dup2\n          mstore\n          pop\n          dup2\n          jump\t// out\n            /* \"Lottery/ERC20.sol\":1731:2095  function transfer(address _recipient, uint256 _numTokens) public override returns (bool){... */\n        tag_54:\n            /* \"Lottery/ERC20.sol\":1814:1818  bool */\n          0x00\n            /* \"Lottery/ERC20.sol\":1851:1859  balances */\n          0x01\n            /* \"Lottery/ERC20.sol\":1851:1871  balances[msg.sender] */\n          0x00\n            /* \"Lottery/ERC20.sol\":1860:1870  msg.sender */\n          caller\n            /* \"Lottery/ERC20.sol\":1851:1871  balances[msg.sender] */\n          0xffffffffffffffffffffffffffffffffffffffff\n          and\n          0xffffffffffffffffffffffffffffffffffffffff\n          and\n          dup2\n          mstore\n          0x20\n          add\n          swap1\n          dup2\n          mstore\n          0x20\n          add\n          0x00\n          keccak256\n          sload\n            /* \"Lottery/ERC20.sol\":1837:1847  _numTokens */\n          dup3\n            /* \"Lottery/ERC20.sol\":1837:1871  _numTokens <= balances[msg.sender] */\n          gt\n          iszero\n            /* \"Lottery/ERC20.sol\":1829:1872  require(_numTokens <= balances[msg.sender]) */\n          tag_86\n          jumpi\n          0x00\n          dup1\n          revert\n        tag_86:\n            /* \"Lottery/ERC20.sol\":1905:1941  balances[msg.sender].sub(_numTokens) */\n          tag_87\n            /* \"Lottery/ERC20.sol\":1930:1940  _numTokens */\n          dup3\n            /* \"Lottery/ERC20.sol\":1905:1913  balances */\n          0x01\n            /* \"Lottery/ERC20.sol\":1905:1925  balances[msg.sender] */\n          0x00\n            /* \"Lottery/ERC20.sol\":1914:1924  msg.sender */\n          caller\n            /* \"Lottery/ERC20.sol\":1905:1925  balances[msg.sender] */\n          0xffffffffffffffffffffffffffffffffffffffff\n          and\n          0xffffffffffffffffffffffffffffffffffffffff\n          and\n          dup2\n          mstore\n          0x20\n          add\n          swap1\n          dup2\n          mstore\n          0x20\n          add\n          0x00\n          keccak256\n          sload\n            /* \"Lottery/ERC20.sol\":1905:1929  balances[msg.sender].sub */\n          tag_76\n          swap1\n            /* \"Lottery/ERC20.sol\":1905:1941  balances[msg.sender].sub(_numTokens) */\n          swap2\n          swap1\n          0xffffffff\n          and\n          jump\t// in\n        tag_87:\n            /* \"Lottery/ERC20.sol\":1882:1890  balances */\n          0x01\n            /* \"Lottery/ERC20.sol\":1882:1902  balances[msg.sender] */\n          0x00\n            /* \"Lottery/ERC20.sol\":1891:1901  msg.sender */\n          caller\n            /* \"Lottery/ERC20.sol\":1882:1902  balances[msg.sender] */\n          0xffffffffffffffffffffffffffffffffffffffff\n          and\n          0xffffffffffffffffffffffffffffffffffffffff\n          and\n          dup2\n          mstore\n          0x20\n          add\n          swap1\n          dup2\n          mstore\n          0x20\n          add\n          0x00\n          keccak256\n            /* \"Lottery/ERC20.sol\":1882:1941  balances[msg.sender] = balances[msg.sender].sub(_numTokens) */\n          dup2\n          swap1\n          sstore\n          pop\n            /* \"Lottery/ERC20.sol\":1974:2010  balances[_recipient].add(_numTokens) */\n          tag_88\n            /* \"Lottery/ERC20.sol\":1999:2009  _numTokens */\n          dup3\n            /* \"Lottery/ERC20.sol\":1974:1982  balances */\n          0x01\n            /* \"Lottery/ERC20.sol\":1974:1994  balances[_recipient] */\n          0x00\n            /* \"Lottery/ERC20.sol\":1983:1993  _recipient */\n          dup7\n            /* \"Lottery/ERC20.sol\":1974:1994  balances[_recipient] */\n          0xffffffffffffffffffffffffffffffffffffffff\n          and\n          0xffffffffffffffffffffffffffffffffffffffff\n          and\n          dup2\n          mstore\n          0x20\n          add\n          swap1\n          dup2\n          mstore\n          0x20\n          add\n          0x00\n          keccak256\n          sload\n            /* \"Lottery/ERC20.sol\":1974:1998  balances[_recipient].add */\n          tag_78\n          swap1\n            /* \"Lottery/ERC20.sol\":1974:2010  balances[_recipient].add(_numTokens) */\n          swap2\n          swap1\n          0xffffffff\n          and\n          jump\t// in\n        tag_88:\n            /* \"Lottery/ERC20.sol\":1951:1959  balances */\n          0x01\n            /* \"Lottery/ERC20.sol\":1951:1971  balances[_recipient] */\n          0x00\n            /* \"Lottery/ERC20.sol\":1960:1970  _recipient */\n          dup6\n            /* \"Lottery/ERC20.sol\":1951:1971  balances[_recipient] */\n          0xffffffffffffffffffffffffffffffffffffffff\n          and\n          0xffffffffffffffffffffffffffffffffffffffff\n          and\n          dup2\n          mstore\n          0x20\n          add\n          swap1\n          dup2\n          mstore\n          0x20\n          add\n          0x00\n          keccak256\n            /* \"Lottery/ERC20.sol\":1951:2010  balances[_recipient] = balances[_recipient].add(_numTokens) */\n          dup2\n          swap1\n          sstore\n          pop\n            /* \"Lottery/ERC20.sol\":2045:2055  _recipient */\n          dup3\n            /* \"Lottery/ERC20.sol\":2025:2067  Transfer(msg.sender,_recipient,_numTokens) */\n          0xffffffffffffffffffffffffffffffffffffffff\n          and\n            /* \"Lottery/ERC20.sol\":2034:2044  msg.sender */\n          caller\n            /* \"Lottery/ERC20.sol\":2025:2067  Transfer(msg.sender,_recipient,_numTokens) */\n          0xffffffffffffffffffffffffffffffffffffffff\n          and\n          0xddf252ad1be2c89b69c2b068fc378daa952ba7f163c4a11628f55a4df523b3ef\n            /* \"Lottery/ERC20.sol\":2056:2066  _numTokens */\n          dup5\n            /* \"Lottery/ERC20.sol\":2025:2067  Transfer(msg.sender,_recipient,_numTokens) */\n          mload(0x40)\n          tag_89\n          swap2\n          swap1\n          tag_28\n          jump\t// in\n        tag_89:\n          mload(0x40)\n          dup1\n          swap2\n          sub\n          swap1\n          log3\n            /* \"Lottery/ERC20.sol\":2084:2088  true */\n          0x01\n            /* \"Lottery/ERC20.sol\":2077:2088  return true */\n          swap1\n          pop\n            /* \"Lottery/ERC20.sol\":1731:2095  function transfer(address _recipient, uint256 _numTokens) public override returns (bool){... */\n          swap3\n          swap2\n          pop\n          pop\n          jump\t// out\n            /* \"Lottery/ERC20.sol\":1584:1725  function allowance(address _owner, address _delegate) public override view returns(uint256){... */\n        tag_59:\n            /* \"Lottery/ERC20.sol\":1667:1674  uint256 */\n          0x00\n            /* \"Lottery/ERC20.sol\":1692:1699  allowed */\n          0x02\n            /* \"Lottery/ERC20.sol\":1692:1707  allowed[_owner] */\n          0x00\n            /* \"Lottery/ERC20.sol\":1700:1706  _owner */\n          dup5\n            /* \"Lottery/ERC20.sol\":1692:1707  allowed[_owner] */\n          0xffffffffffffffffffffffffffffffffffffffff\n          and\n          0xffffffffffffffffffffffffffffffffffffffff\n          and\n          dup2\n          mstore\n          0x20\n          add\n          swap1\n          dup2\n          mstore\n          0x20\n          add\n          0x00\n          keccak256\n            /* \"Lottery/ERC20.sol\":1692:1718  allowed[_owner][_delegate] */\n          0x00\n            /* \"Lottery/ERC20.sol\":1708:1717  _delegate */\n          dup4\n            /* \"Lottery/ERC20.sol\":1692:1718  allowed[_owner][_delegate] */\n          0xffffffffffffffffffffffffffffffffffffffff\n          and\n          0xffffffffffffffffffffffffffffffffffffffff\n          and\n          dup2\n          mstore\n          0x20\n          add\n          swap1\n          dup2\n          mstore\n          0x20\n          add\n          0x00\n          keccak256\n          sload\n            /* \"Lottery/ERC20.sol\":1685:1718  return allowed[_owner][_delegate] */\n          swap1\n          pop\n            /* \"Lottery/ERC20.sol\":1584:1725  function allowance(address _owner, address _delegate) public override view returns(uint256){... */\n          swap3\n          swap2\n          pop\n          pop\n          jump\t// out\n            /* \"Lottery/SafeMath.sol\":867:977  function sub(uint256 a, uint256 b) internal pure returns (uint256) {... */\n        tag_76:\n            /* \"Lottery/SafeMath.sol\":925:932  uint256 */\n          0x00\n            /* \"Lottery/SafeMath.sol\":952:953  a */\n          dup3\n            /* \"Lottery/SafeMath.sol\":947:948  b */\n          dup3\n            /* \"Lottery/SafeMath.sol\":947:953  b <= a */\n          gt\n          iszero\n            /* \"Lottery/SafeMath.sol\":940:954  assert(b <= a) */\n          tag_92\n          jumpi\n          tag_93\n          tag_94\n          jump\t// in\n        tag_93:\n        tag_92:\n            /* \"Lottery/SafeMath.sol\":971:972  b */\n          dup2\n            /* \"Lottery/SafeMath.sol\":967:968  a */\n          dup4\n            /* \"Lottery/SafeMath.sol\":967:972  a - b */\n          tag_95\n          swap2\n          swap1\n          tag_96\n          jump\t// in\n        tag_95:\n            /* \"Lottery/SafeMath.sol\":960:972  return a - b */\n          swap1\n          pop\n            /* \"Lottery/SafeMath.sol\":867:977  function sub(uint256 a, uint256 b) internal pure returns (uint256) {... */\n          swap3\n          swap2\n          pop\n          pop\n          jump\t// out\n            /* \"Lottery/SafeMath.sol\":1039:1162  function add(uint256 a, uint256 b) internal pure returns (uint256 c) {... */\n        tag_78:\n            /* \"Lottery/SafeMath.sol\":1097:1106  uint256 c */\n          0x00\n            /* \"Lottery/SafeMath.sol\":1122:1123  b */\n          dup2\n            /* \"Lottery/SafeMath.sol\":1118:1119  a */\n          dup4\n            /* \"Lottery/SafeMath.sol\":1118:1123  a + b */\n          tag_98\n          swap2\n          swap1\n          tag_71\n          jump\t// in\n        tag_98:\n            /* \"Lottery/SafeMath.sol\":1114:1123  c = a + b */\n          swap1\n          pop\n            /* \"Lottery/SafeMath.sol\":1141:1142  a */\n          dup3\n            /* \"Lottery/SafeMath.sol\":1136:1137  c */\n          dup2\n            /* \"Lottery/SafeMath.sol\":1136:1142  c >= a */\n          lt\n          iszero\n            /* \"Lottery/SafeMath.sol\":1129:1143  assert(c >= a) */\n          tag_99\n          jumpi\n          tag_100\n          tag_94\n          jump\t// in\n        tag_100:\n        tag_99:\n            /* \"Lottery/SafeMath.sol\":1039:1162  function add(uint256 a, uint256 b) internal pure returns (uint256 c) {... */\n          swap3\n          swap2\n          pop\n          pop\n          jump\t// out\n            /* \"#utility.yul\":7:106   */\n        tag_101:\n            /* \"#utility.yul\":59:65   */\n          0x00\n            /* \"#utility.yul\":93:98   */\n          dup2\n            /* \"#utility.yul\":87:99   */\n          mload\n            /* \"#utility.yul\":77:99   */\n          swap1\n          pop\n            /* \"#utility.yul\":7:106   */\n          swap2\n          swap1\n          pop\n          jump\t// out\n            /* \"#utility.yul\":112:281   */\n        tag_102:\n            /* \"#utility.yul\":196:207   */\n          0x00\n            /* \"#utility.yul\":230:236   */\n          dup3\n            /* \"#utility.yul\":225:228   */\n          dup3\n            /* \"#utility.yul\":218:237   */\n          mstore\n            /* \"#utility.yul\":270:274   */\n          0x20\n            /* \"#utility.yul\":265:268   */\n          dup3\n            /* \"#utility.yul\":261:275   */\n          add\n            /* \"#utility.yul\":246:275   */\n          swap1\n          pop\n            /* \"#utility.yul\":112:281   */\n          swap3\n          swap2\n          pop\n          pop\n          jump\t// out\n            /* \"#utility.yul\":287:533   */\n        tag_103:\n            /* \"#utility.yul\":368:369   */\n          0x00\n            /* \"#utility.yul\":378:491   */\n        tag_128:\n            /* \"#utility.yul\":392:398   */\n          dup4\n            /* \"#utility.yul\":389:390   */\n          dup2\n            /* \"#utility.yul\":386:399   */\n          lt\n            /* \"#utility.yul\":378:491   */\n          iszero\n          tag_130\n          jumpi\n            /* \"#utility.yul\":477:478   */\n          dup1\n            /* \"#utility.yul\":472:475   */\n          dup3\n            /* \"#utility.yul\":468:479   */\n          add\n            /* \"#utility.yul\":462:480   */\n          mload\n            /* \"#utility.yul\":458:459   */\n          dup2\n            /* \"#utility.yul\":453:456   */\n          dup5\n            /* \"#utility.yul\":449:460   */\n          add\n            /* \"#utility.yul\":442:481   */\n          mstore\n            /* \"#utility.yul\":414:416   */\n          0x20\n            /* \"#utility.yul\":411:412   */\n          dup2\n            /* \"#utility.yul\":407:417   */\n          add\n            /* \"#utility.yul\":402:417   */\n          swap1\n          pop\n            /* \"#utility.yul\":378:491   */\n          jump(tag_128)\n        tag_130:\n            /* \"#utility.yul\":525:526   */\n          0x00\n            /* \"#utility.yul\":516:522   */\n          dup5\n            /* \"#utility.yul\":511:514   */\n          dup5\n            /* \"#utility.yul\":507:523   */\n          add\n            /* \"#utility.yul\":500:527   */\n          mstore\n            /* \"#utility.yul\":349:533   */\n          pop\n            /* \"#utility.yul\":287:533   */\n          pop\n          pop\n          pop\n          jump\t// out\n            /* \"#utility.yul\":539:641   */\n        tag_104:\n            /* \"#utility.yul\":580:586   */\n          0x00\n            /* \"#utility.yul\":631:633   */\n          0x1f\n            /* \"#utility.yul\":627:634   */\n          not\n            /* \"#utility.yul\":622:624   */\n          0x1f\n            /* \"#utility.yul\":615:620   */\n          dup4\n            /* \"#utility.yul\":611:625   */\n          add\n            /* \"#utility.yul\":607:635   */\n          and\n            /* \"#utility.yul\":597:635   */\n          swap1\n          pop\n            /* \"#utility.yul\":539:641   */\n          swap2\n          swap1\n          pop\n          jump\t// out\n            /* \"#utility.yul\":647:1024   */\n        tag_105:\n            /* \"#utility.yul\":735:738   */\n          0x00\n            /* \"#utility.yul\":763:802   */\n          tag_133\n            /* \"#utility.yul\":796:801   */\n          dup3\n            /* \"#utility.yul\":763:802   */\n          tag_101\n          jump\t// in\n        tag_133:\n            /* \"#utility.yul\":818:889   */\n          tag_134\n            /* \"#utility.yul\":882:888   */\n          dup2\n            /* \"#utility.yul\":877:880   */\n          dup6\n            /* \"#utility.yul\":818:889   */\n          tag_102\n          jump\t// in\n        tag_134:\n            /* \"#utility.yul\":811:889   */\n          swap4\n          pop\n            /* \"#utility.yul\":898:963   */\n          tag_135\n            /* \"#utility.yul\":956:962   */\n          dup2\n            /* \"#utility.yul\":951:954   */\n          dup6\n            /* \"#utility.yul\":944:948   */\n          0x20\n            /* \"#utility.yul\":937:942   */\n          dup7\n            /* \"#utility.yul\":933:949   */\n          add\n            /* \"#utility.yul\":898:963   */\n          tag_103\n          jump\t// in\n        tag_135:\n            /* \"#utility.yul\":988:1017   */\n          tag_136\n            /* \"#utility.yul\":1010:1016   */\n          dup2\n            /* \"#utility.yul\":988:1017   */\n          tag_104\n          jump\t// in\n        tag_136:\n            /* \"#utility.yul\":983:986   */\n          dup5\n            /* \"#utility.yul\":979:1018   */\n          add\n            /* \"#utility.yul\":972:1018   */\n          swap2\n          pop\n            /* \"#utility.yul\":739:1024   */\n          pop\n            /* \"#utility.yul\":647:1024   */\n          swap3\n          swap2\n          pop\n          pop\n          jump\t// out\n            /* \"#utility.yul\":1030:1343   */\n        tag_18:\n            /* \"#utility.yul\":1143:1147   */\n          0x00\n            /* \"#utility.yul\":1181:1183   */\n          0x20\n            /* \"#utility.yul\":1170:1179   */\n          dup3\n            /* \"#utility.yul\":1166:1184   */\n          add\n            /* \"#utility.yul\":1158:1184   */\n          swap1\n          pop\n            /* \"#utility.yul\":1230:1239   */\n          dup2\n            /* \"#utility.yul\":1224:1228   */\n          dup2\n            /* \"#utility.yul\":1220:1240   */\n          sub\n            /* \"#utility.yul\":1216:1217   */\n          0x00\n            /* \"#utility.yul\":1205:1214   */\n          dup4\n            /* \"#utility.yul\":1201:1218   */\n          add\n            /* \"#utility.yul\":1194:1241   */\n          mstore\n            /* \"#utility.yul\":1258:1336   */\n          tag_138\n            /* \"#utility.yul\":1331:1335   */\n          dup2\n            /* \"#utility.yul\":1322:1328   */\n          dup5\n            /* \"#utility.yul\":1258:1336   */\n          tag_105\n          jump\t// in\n        tag_138:\n            /* \"#utility.yul\":1250:1336   */\n          swap1\n          pop\n            /* \"#utility.yul\":1030:1343   */\n          swap3\n          swap2\n          pop\n          pop\n          jump\t// out\n            /* \"#utility.yul\":1430:1547   */\n        tag_107:\n            /* \"#utility.yul\":1539:1540   */\n          0x00\n            /* \"#utility.yul\":1536:1537   */\n          dup1\n            /* \"#utility.yul\":1529:1541   */\n          revert\n            /* \"#utility.yul\":1676:1802   */\n        tag_109:\n            /* \"#utility.yul\":1713:1720   */\n          0x00\n            /* \"#utility.yul\":1753:1795   */\n          0xffffffffffffffffffffffffffffffffffffffff\n            /* \"#utility.yul\":1746:1751   */\n          dup3\n            /* \"#utility.yul\":1742:1796   */\n          and\n            /* \"#utility.yul\":1731:1796   */\n          swap1\n          pop\n            /* \"#utility.yul\":1676:1802   */\n          swap2\n          swap1\n          pop\n          jump\t// out\n            /* \"#utility.yul\":1808:1904   */\n        tag_110:\n            /* \"#utility.yul\":1845:1852   */\n          0x00\n            /* \"#utility.yul\":1874:1898   */\n          tag_144\n            /* \"#utility.yul\":1892:1897   */\n          dup3\n            /* \"#utility.yul\":1874:1898   */\n          tag_109\n          jump\t// in\n        tag_144:\n            /* \"#utility.yul\":1863:1898   */\n          swap1\n          pop\n            /* \"#utility.yul\":1808:1904   */\n          swap2\n          swap1\n          pop\n          jump\t// out\n            /* \"#utility.yul\":1910:2032   */\n        tag_111:\n            /* \"#utility.yul\":1983:2007   */\n          tag_146\n            /* \"#utility.yul\":2001:2006   */\n          dup2\n            /* \"#utility.yul\":1983:2007   */\n          tag_110\n          jump\t// in\n        tag_146:\n            /* \"#utility.yul\":1976:1981   */\n          dup2\n            /* \"#utility.yul\":1973:2008   */\n          eq\n            /* \"#utility.yul\":1963:2026   */\n          tag_147\n          jumpi\n            /* \"#utility.yul\":2022:2023   */\n          0x00\n            /* \"#utility.yul\":2019:2020   */\n          dup1\n            /* \"#utility.yul\":2012:2024   */\n          revert\n            /* \"#utility.yul\":1963:2026   */\n        tag_147:\n            /* \"#utility.yul\":1910:2032   */\n          pop\n          jump\t// out\n            /* \"#utility.yul\":2038:2177   */\n        tag_112:\n            /* \"#utility.yul\":2084:2089   */\n          0x00\n            /* \"#utility.yul\":2122:2128   */\n          dup2\n            /* \"#utility.yul\":2109:2129   */\n          calldataload\n            /* \"#utility.yul\":2100:2129   */\n          swap1\n          pop\n            /* \"#utility.yul\":2138:2171   */\n          tag_149\n            /* \"#utility.yul\":2165:2170   */\n          dup2\n            /* \"#utility.yul\":2138:2171   */\n          tag_111\n          jump\t// in\n        tag_149:\n            /* \"#utility.yul\":2038:2177   */\n          swap3\n          swap2\n          pop\n          pop\n          jump\t// out\n            /* \"#utility.yul\":2183:2260   */\n        tag_113:\n            /* \"#utility.yul\":2220:2227   */\n          0x00\n            /* \"#utility.yul\":2249:2254   */\n          dup2\n            /* \"#utility.yul\":2238:2254   */\n          swap1\n          pop\n            /* \"#utility.yul\":2183:2260   */\n          swap2\n          swap1\n          pop\n          jump\t// out\n            /* \"#utility.yul\":2266:2388   */\n        tag_114:\n            /* \"#utility.yul\":2339:2363   */\n          tag_152\n            /* \"#utility.yul\":2357:2362   */\n          dup2\n            /* \"#utility.yul\":2339:2363   */\n          tag_113\n          jump\t// in\n        tag_152:\n            /* \"#utility.yul\":2332:2337   */\n          dup2\n            /* \"#utility.yul\":2329:2364   */\n          eq\n            /* \"#utility.yul\":2319:2382   */\n          tag_153\n          jumpi\n            /* \"#utility.yul\":2378:2379   */\n          0x00\n            /* \"#utility.yul\":2375:2376   */\n          dup1\n            /* \"#utility.yul\":2368:2380   */\n          revert\n            /* \"#utility.yul\":2319:2382   */\n        tag_153:\n            /* \"#utility.yul\":2266:2388   */\n          pop\n          jump\t// out\n            /* \"#utility.yul\":2394:2533   */\n        tag_115:\n            /* \"#utility.yul\":2440:2445   */\n          0x00\n            /* \"#utility.yul\":2478:2484   */\n          dup2\n            /* \"#utility.yul\":2465:2485   */\n          calldataload\n            /* \"#utility.yul\":2456:2485   */\n          swap1\n          pop\n            /* \"#utility.yul\":2494:2527   */\n          tag_155\n            /* \"#utility.yul\":2521:2526   */\n          dup2\n            /* \"#utility.yul\":2494:2527   */\n          tag_114\n          jump\t// in\n        tag_155:\n            /* \"#utility.yul\":2394:2533   */\n          swap3\n          swap2\n          pop\n          pop\n          jump\t// out\n            /* \"#utility.yul\":2539:3013   */\n        tag_21:\n            /* \"#utility.yul\":2607:2613   */\n          0x00\n            /* \"#utility.yul\":2615:2621   */\n          dup1\n            /* \"#utility.yul\":2664:2666   */\n          0x40\n            /* \"#utility.yul\":2652:2661   */\n          dup4\n            /* \"#utility.yul\":2643:2650   */\n          dup6\n            /* \"#utility.yul\":2639:2662   */\n          sub\n            /* \"#utility.yul\":2635:2667   */\n          slt\n            /* \"#utility.yul\":2632:2751   */\n          iszero\n          tag_157\n          jumpi\n            /* \"#utility.yul\":2670:2749   */\n          tag_158\n          tag_107\n          jump\t// in\n        tag_158:\n            /* \"#utility.yul\":2632:2751   */\n        tag_157:\n            /* \"#utility.yul\":2790:2791   */\n          0x00\n            /* \"#utility.yul\":2815:2868   */\n          tag_159\n            /* \"#utility.yul\":2860:2867   */\n          dup6\n            /* \"#utility.yul\":2851:2857   */\n          dup3\n            /* \"#utility.yul\":2840:2849   */\n          dup7\n            /* \"#utility.yul\":2836:2858   */\n          add\n            /* \"#utility.yul\":2815:2868   */\n          tag_112\n          jump\t// in\n        tag_159:\n            /* \"#utility.yul\":2805:2868   */\n          swap3\n          pop\n            /* \"#utility.yul\":2761:2878   */\n          pop\n            /* \"#utility.yul\":2917:2919   */\n          0x20\n            /* \"#utility.yul\":2943:2996   */\n          tag_160\n            /* \"#utility.yul\":2988:2995   */\n          dup6\n            /* \"#utility.yul\":2979:2985   */\n          dup3\n            /* \"#utility.yul\":2968:2977   */\n          dup7\n            /* \"#utility.yul\":2964:2986   */\n          add\n            /* \"#utility.yul\":2943:2996   */\n          tag_115\n          jump\t// in\n        tag_160:\n            /* \"#utility.yul\":2933:2996   */\n          swap2\n          pop\n            /* \"#utility.yul\":2888:3006   */\n          pop\n            /* \"#utility.yul\":2539:3013   */\n          swap3\n          pop\n          swap3\n          swap1\n          pop\n          jump\t// out\n            /* \"#utility.yul\":3019:3109   */\n        tag_116:\n            /* \"#utility.yul\":3053:3060   */\n          0x00\n            /* \"#utility.yul\":3096:3101   */\n          dup2\n            /* \"#utility.yul\":3089:3102   */\n          iszero\n            /* \"#utility.yul\":3082:3103   */\n          iszero\n            /* \"#utility.yul\":3071:3103   */\n          swap1\n          pop\n            /* \"#utility.yul\":3019:3109   */\n          swap2\n          swap1\n          pop\n          jump\t// out\n            /* \"#utility.yul\":3115:3224   */\n        tag_117:\n            /* \"#utility.yul\":3196:3217   */\n          tag_163\n            /* \"#utility.yul\":3211:3216   */\n          dup2\n            /* \"#utility.yul\":3196:3217   */\n          tag_116\n          jump\t// in\n        tag_163:\n            /* \"#utility.yul\":3191:3194   */\n          dup3\n            /* \"#utility.yul\":3184:3218   */\n          mstore\n            /* \"#utility.yul\":3115:3224   */\n          pop\n          pop\n          jump\t// out\n            /* \"#utility.yul\":3230:3440   */\n        tag_24:\n            /* \"#utility.yul\":3317:3321   */\n          0x00\n            /* \"#utility.yul\":3355:3357   */\n          0x20\n            /* \"#utility.yul\":3344:3353   */\n          dup3\n            /* \"#utility.yul\":3340:3358   */\n          add\n            /* \"#utility.yul\":3332:3358   */\n          swap1\n          pop\n            /* \"#utility.yul\":3368:3433   */\n          tag_165\n            /* \"#utility.yul\":3430:3431   */\n          0x00\n            /* \"#utility.yul\":3419:3428   */\n          dup4\n            /* \"#utility.yul\":3415:3432   */\n          add\n            /* \"#utility.yul\":3406:3412   */\n          dup5\n            /* \"#utility.yul\":3368:3433   */\n          tag_117\n          jump\t// in\n        tag_165:\n            /* \"#utility.yul\":3230:3440   */\n          swap3\n          swap2\n          pop\n          pop\n          jump\t// out\n            /* \"#utility.yul\":3446:3564   */\n        tag_118:\n            /* \"#utility.yul\":3533:3557   */\n          tag_167\n            /* \"#utility.yul\":3551:3556   */\n          dup2\n            /* \"#utility.yul\":3533:3557   */\n          tag_113\n          jump\t// in\n        tag_167:\n            /* \"#utility.yul\":3528:3531   */\n          dup3\n            /* \"#utility.yul\":3521:3558   */\n          mstore\n            /* \"#utility.yul\":3446:3564   */\n          pop\n          pop\n          jump\t// out\n            /* \"#utility.yul\":3570:3792   */\n        tag_28:\n            /* \"#utility.yul\":3663:3667   */\n          0x00\n            /* \"#utility.yul\":3701:3703   */\n          0x20\n            /* \"#utility.yul\":3690:3699   */\n          dup3\n            /* \"#utility.yul\":3686:3704   */\n          add\n            /* \"#utility.yul\":3678:3704   */\n          swap1\n          pop\n            /* \"#utility.yul\":3714:3785   */\n          tag_169\n            /* \"#utility.yul\":3782:3783   */\n          0x00\n            /* \"#utility.yul\":3771:3780   */\n          dup4\n            /* \"#utility.yul\":3767:3784   */\n          add\n            /* \"#utility.yul\":3758:3764   */\n          dup5\n            /* \"#utility.yul\":3714:3785   */\n          tag_118\n          jump\t// in\n        tag_169:\n            /* \"#utility.yul\":3570:3792   */\n          swap3\n          swap2\n          pop\n          pop\n          jump\t// out\n            /* \"#utility.yul\":3798:4127   */\n        tag_31:\n            /* \"#utility.yul\":3857:3863   */\n          0x00\n            /* \"#utility.yul\":3906:3908   */\n          0x20\n            /* \"#utility.yul\":3894:3903   */\n          dup3\n            /* \"#utility.yul\":3885:3892   */\n          dup5\n            /* \"#utility.yul\":3881:3904   */\n          sub\n            /* \"#utility.yul\":3877:3909   */\n          slt\n            /* \"#utility.yul\":3874:3993   */\n          iszero\n          tag_171\n          jumpi\n            /* \"#utility.yul\":3912:3991   */\n          tag_172\n          tag_107\n          jump\t// in\n        tag_172:\n            /* \"#utility.yul\":3874:3993   */\n        tag_171:\n            /* \"#utility.yul\":4032:4033   */\n          0x00\n            /* \"#utility.yul\":4057:4110   */\n          tag_173\n            /* \"#utility.yul\":4102:4109   */\n          dup5\n            /* \"#utility.yul\":4093:4099   */\n          dup3\n            /* \"#utility.yul\":4082:4091   */\n          dup6\n            /* \"#utility.yul\":4078:4100   */\n          add\n            /* \"#utility.yul\":4057:4110   */\n          tag_115\n          jump\t// in\n        tag_173:\n            /* \"#utility.yul\":4047:4110   */\n          swap2\n          pop\n            /* \"#utility.yul\":4003:4120   */\n          pop\n            /* \"#utility.yul\":3798:4127   */\n          swap3\n          swap2\n          pop\n          pop\n          jump\t// out\n            /* \"#utility.yul\":4133:4752   */\n        tag_35:\n            /* \"#utility.yul\":4210:4216   */\n          0x00\n            /* \"#utility.yul\":4218:4224   */\n          dup1\n            /* \"#utility.yul\":4226:4232   */\n          0x00\n            /* \"#utility.yul\":4275:4277   */\n          0x60\n            /* \"#utility.yul\":4263:4272   */\n          dup5\n            /* \"#utility.yul\":4254:4261   */\n          dup7\n            /* \"#utility.yul\":4250:4273   */\n          sub\n            /* \"#utility.yul\":4246:4278   */\n          slt\n            /* \"#utility.yul\":4243:4362   */\n          iszero\n          tag_175\n          jumpi\n            /* \"#utility.yul\":4281:4360   */\n          tag_176\n          tag_107\n          jump\t// in\n        tag_176:\n            /* \"#utility.yul\":4243:4362   */\n        tag_175:\n            /* \"#utility.yul\":4401:4402   */\n          0x00\n            /* \"#utility.yul\":4426:4479   */\n          tag_177\n            /* \"#utility.yul\":4471:4478   */\n          dup7\n            /* \"#utility.yul\":4462:4468   */\n          dup3\n            /* \"#utility.yul\":4451:4460   */\n          dup8\n            /* \"#utility.yul\":4447:4469   */\n          add\n            /* \"#utility.yul\":4426:4479   */\n          tag_112\n          jump\t// in\n        tag_177:\n            /* \"#utility.yul\":4416:4479   */\n          swap4\n          pop\n            /* \"#utility.yul\":4372:4489   */\n          pop\n            /* \"#utility.yul\":4528:4530   */\n          0x20\n            /* \"#utility.yul\":4554:4607   */\n          tag_178\n            /* \"#utility.yul\":4599:4606   */\n          dup7\n            /* \"#utility.yul\":4590:4596   */\n          dup3\n            /* \"#utility.yul\":4579:4588   */\n          dup8\n            /* \"#utility.yul\":4575:4597   */\n          add\n            /* \"#utility.yul\":4554:4607   */\n          tag_112\n          jump\t// in\n        tag_178:\n            /* \"#utility.yul\":4544:4607   */\n          swap3\n          pop\n            /* \"#utility.yul\":4499:4617   */\n          pop\n            /* \"#utility.yul\":4656:4658   */\n          0x40\n            /* \"#utility.yul\":4682:4735   */\n          tag_179\n            /* \"#utility.yul\":4727:4734   */\n          dup7\n            /* \"#utility.yul\":4718:4724   */\n          dup3\n            /* \"#utility.yul\":4707:4716   */\n          dup8\n            /* \"#utility.yul\":4703:4725   */\n          add\n            /* \"#utility.yul\":4682:4735   */\n          tag_115\n          jump\t// in\n        tag_179:\n            /* \"#utility.yul\":4672:4735   */\n          swap2\n          pop\n            /* \"#utility.yul\":4627:4745   */\n          pop\n            /* \"#utility.yul\":4133:4752   */\n          swap3\n          pop\n          swap3\n          pop\n          swap3\n          jump\t// out\n            /* \"#utility.yul\":4758:4844   */\n        tag_119:\n            /* \"#utility.yul\":4793:4800   */\n          0x00\n            /* \"#utility.yul\":4833:4837   */\n          0xff\n            /* \"#utility.yul\":4826:4831   */\n          dup3\n            /* \"#utility.yul\":4822:4838   */\n          and\n            /* \"#utility.yul\":4811:4838   */\n          swap1\n          pop\n            /* \"#utility.yul\":4758:4844   */\n          swap2\n          swap1\n          pop\n          jump\t// out\n            /* \"#utility.yul\":4850:4962   */\n        tag_120:\n            /* \"#utility.yul\":4933:4955   */\n          tag_182\n            /* \"#utility.yul\":4949:4954   */\n          dup2\n            /* \"#utility.yul\":4933:4955   */\n          tag_119\n          jump\t// in\n        tag_182:\n            /* \"#utility.yul\":4928:4931   */\n          dup3\n            /* \"#utility.yul\":4921:4956   */\n          mstore\n            /* \"#utility.yul\":4850:4962   */\n          pop\n          pop\n          jump\t// out\n            /* \"#utility.yul\":4968:5182   */\n        tag_41:\n            /* \"#utility.yul\":5057:5061   */\n          0x00\n            /* \"#utility.yul\":5095:5097   */\n          0x20\n            /* \"#utility.yul\":5084:5093   */\n          dup3\n            /* \"#utility.yul\":5080:5098   */\n          add\n            /* \"#utility.yul\":5072:5098   */\n          swap1\n          pop\n            /* \"#utility.yul\":5108:5175   */\n          tag_184\n            /* \"#utility.yul\":5172:5173   */\n          0x00\n            /* \"#utility.yul\":5161:5170   */\n          dup4\n            /* \"#utility.yul\":5157:5174   */\n          add\n            /* \"#utility.yul\":5148:5154   */\n          dup5\n            /* \"#utility.yul\":5108:5175   */\n          tag_120\n          jump\t// in\n        tag_184:\n            /* \"#utility.yul\":4968:5182   */\n          swap3\n          swap2\n          pop\n          pop\n          jump\t// out\n            /* \"#utility.yul\":5188:5517   */\n        tag_44:\n            /* \"#utility.yul\":5247:5253   */\n          0x00\n            /* \"#utility.yul\":5296:5298   */\n          0x20\n            /* \"#utility.yul\":5284:5293   */\n          dup3\n            /* \"#utility.yul\":5275:5282   */\n          dup5\n            /* \"#utility.yul\":5271:5294   */\n          sub\n            /* \"#utility.yul\":5267:5299   */\n          slt\n            /* \"#utility.yul\":5264:5383   */\n          iszero\n          tag_186\n          jumpi\n            /* \"#utility.yul\":5302:5381   */\n          tag_187\n          tag_107\n          jump\t// in\n        tag_187:\n            /* \"#utility.yul\":5264:5383   */\n        tag_186:\n            /* \"#utility.yul\":5422:5423   */\n          0x00\n            /* \"#utility.yul\":5447:5500   */\n          tag_188\n            /* \"#utility.yul\":5492:5499   */\n          dup5\n            /* \"#utility.yul\":5483:5489   */\n          dup3\n            /* \"#utility.yul\":5472:5481   */\n          dup6\n            /* \"#utility.yul\":5468:5490   */\n          add\n            /* \"#utility.yul\":5447:5500   */\n          tag_112\n          jump\t// in\n        tag_188:\n            /* \"#utility.yul\":5437:5500   */\n          swap2\n          pop\n            /* \"#utility.yul\":5393:5510   */\n          pop\n            /* \"#utility.yul\":5188:5517   */\n          swap3\n          swap2\n          pop\n          pop\n          jump\t// out\n            /* \"#utility.yul\":5523:5997   */\n        tag_58:\n            /* \"#utility.yul\":5591:5597   */\n          0x00\n            /* \"#utility.yul\":5599:5605   */\n          dup1\n            /* \"#utility.yul\":5648:5650   */\n          0x40\n            /* \"#utility.yul\":5636:5645   */\n          dup4\n            /* \"#utility.yul\":5627:5634   */\n          dup6\n            /* \"#utility.yul\":5623:5646   */\n          sub\n            /* \"#utility.yul\":5619:5651   */\n          slt\n            /* \"#utility.yul\":5616:5735   */\n          iszero\n          tag_190\n          jumpi\n            /* \"#utility.yul\":5654:5733   */\n          tag_191\n          tag_107\n          jump\t// in\n        tag_191:\n            /* \"#utility.yul\":5616:5735   */\n        tag_190:\n            /* \"#utility.yul\":5774:5775   */\n          0x00\n            /* \"#utility.yul\":5799:5852   */\n          tag_192\n            /* \"#utility.yul\":5844:5851   */\n          dup6\n            /* \"#utility.yul\":5835:5841   */\n          dup3\n            /* \"#utility.yul\":5824:5833   */\n          dup7\n            /* \"#utility.yul\":5820:5842   */\n          add\n            /* \"#utility.yul\":5799:5852   */\n          tag_112\n          jump\t// in\n        tag_192:\n            /* \"#utility.yul\":5789:5852   */\n          swap3\n          pop\n            /* \"#utility.yul\":5745:5862   */\n          pop\n            /* \"#utility.yul\":5901:5903   */\n          0x20\n            /* \"#utility.yul\":5927:5980   */\n          tag_193\n            /* \"#utility.yul\":5972:5979   */\n          dup6\n            /* \"#utility.yul\":5963:5969   */\n          dup3\n            /* \"#utility.yul\":5952:5961   */\n          dup7\n            /* \"#utility.yul\":5948:5970   */\n          add\n            /* \"#utility.yul\":5927:5980   */\n          tag_112\n          jump\t// in\n        tag_193:\n            /* \"#utility.yul\":5917:5980   */\n          swap2\n          pop\n            /* \"#utility.yul\":5872:5990   */\n          pop\n            /* \"#utility.yul\":5523:5997   */\n          swap3\n          pop\n          swap3\n          swap1\n          pop\n          jump\t// out\n            /* \"#utility.yul\":6003:6166   */\n        tag_121:\n            /* \"#utility.yul\":6143:6158   */\n          0x4d757374206265204f776e657200000000000000000000000000000000000000\n            /* \"#utility.yul\":6139:6140   */\n          0x00\n            /* \"#utility.yul\":6131:6137   */\n          dup3\n            /* \"#utility.yul\":6127:6141   */\n          add\n            /* \"#utility.yul\":6120:6159   */\n          mstore\n            /* \"#utility.yul\":6003:6166   */\n          pop\n          jump\t// out\n            /* \"#utility.yul\":6172:6538   */\n        tag_122:\n            /* \"#utility.yul\":6314:6317   */\n          0x00\n            /* \"#utility.yul\":6335:6402   */\n          tag_196\n            /* \"#utility.yul\":6399:6401   */\n          0x0d\n            /* \"#utility.yul\":6394:6397   */\n          dup4\n            /* \"#utility.yul\":6335:6402   */\n          tag_102\n          jump\t// in\n        tag_196:\n            /* \"#utility.yul\":6328:6402   */\n          swap2\n          pop\n            /* \"#utility.yul\":6411:6504   */\n          tag_197\n            /* \"#utility.yul\":6500:6503   */\n          dup3\n            /* \"#utility.yul\":6411:6504   */\n          tag_121\n          jump\t// in\n        tag_197:\n            /* \"#utility.yul\":6529:6531   */\n          0x20\n            /* \"#utility.yul\":6524:6527   */\n          dup3\n            /* \"#utility.yul\":6520:6532   */\n          add\n            /* \"#utility.yul\":6513:6532   */\n          swap1\n          pop\n            /* \"#utility.yul\":6172:6538   */\n          swap2\n          swap1\n          pop\n          jump\t// out\n            /* \"#utility.yul\":6544:6963   */\n        tag_68:\n            /* \"#utility.yul\":6710:6714   */\n          0x00\n            /* \"#utility.yul\":6748:6750   */\n          0x20\n            /* \"#utility.yul\":6737:6746   */\n          dup3\n            /* \"#utility.yul\":6733:6751   */\n          add\n            /* \"#utility.yul\":6725:6751   */\n          swap1\n          pop\n            /* \"#utility.yul\":6797:6806   */\n          dup2\n            /* \"#utility.yul\":6791:6795   */\n          dup2\n            /* \"#utility.yul\":6787:6807   */\n          sub\n            /* \"#utility.yul\":6783:6784   */\n          0x00\n            /* \"#utility.yul\":6772:6781   */\n          dup4\n            /* \"#utility.yul\":6768:6785   */\n          add\n            /* \"#utility.yul\":6761:6808   */\n          mstore\n            /* \"#utility.yul\":6825:6956   */\n          tag_199\n            /* \"#utility.yul\":6951:6955   */\n          dup2\n            /* \"#utility.yul\":6825:6956   */\n          tag_122\n          jump\t// in\n        tag_199:\n            /* \"#utility.yul\":6817:6956   */\n          swap1\n          pop\n            /* \"#utility.yul\":6544:6963   */\n          swap2\n          swap1\n          pop\n          jump\t// out\n            /* \"#utility.yul\":6969:7149   */\n        tag_123:\n            /* \"#utility.yul\":7017:7094   */\n          0x4e487b7100000000000000000000000000000000000000000000000000000000\n            /* \"#utility.yul\":7014:7015   */\n          0x00\n            /* \"#utility.yul\":7007:7095   */\n          mstore\n            /* \"#utility.yul\":7114:7118   */\n          0x11\n            /* \"#utility.yul\":7111:7112   */\n          0x04\n            /* \"#utility.yul\":7104:7119   */\n          mstore\n            /* \"#utility.yul\":7138:7142   */\n          0x24\n            /* \"#utility.yul\":7135:7136   */\n          0x00\n            /* \"#utility.yul\":7128:7143   */\n          revert\n            /* \"#utility.yul\":7155:7346   */\n        tag_71:\n            /* \"#utility.yul\":7195:7198   */\n          0x00\n            /* \"#utility.yul\":7214:7234   */\n          tag_202\n            /* \"#utility.yul\":7232:7233   */\n          dup3\n            /* \"#utility.yul\":7214:7234   */\n          tag_113\n          jump\t// in\n        tag_202:\n            /* \"#utility.yul\":7209:7234   */\n          swap2\n          pop\n            /* \"#utility.yul\":7248:7268   */\n          tag_203\n            /* \"#utility.yul\":7266:7267   */\n          dup4\n            /* \"#utility.yul\":7248:7268   */\n          tag_113\n          jump\t// in\n        tag_203:\n            /* \"#utility.yul\":7243:7268   */\n          swap3\n          pop\n            /* \"#utility.yul\":7291:7292   */\n          dup3\n            /* \"#utility.yul\":7288:7289   */\n          dup3\n            /* \"#utility.yul\":7284:7293   */\n          add\n            /* \"#utility.yul\":7277:7293   */\n          swap1\n          pop\n            /* \"#utility.yul\":7312:7315   */\n          dup1\n            /* \"#utility.yul\":7309:7310   */\n          dup3\n            /* \"#utility.yul\":7306:7316   */\n          gt\n            /* \"#utility.yul\":7303:7339   */\n          iszero\n          tag_204\n          jumpi\n            /* \"#utility.yul\":7319:7337   */\n          tag_205\n          tag_123\n          jump\t// in\n        tag_205:\n            /* \"#utility.yul\":7303:7339   */\n        tag_204:\n            /* \"#utility.yul\":7155:7346   */\n          swap3\n          swap2\n          pop\n          pop\n          jump\t// out\n            /* \"#utility.yul\":7352:7532   */\n        tag_94:\n            /* \"#utility.yul\":7400:7477   */\n          0x4e487b7100000000000000000000000000000000000000000000000000000000\n            /* \"#utility.yul\":7397:7398   */\n          0x00\n            /* \"#utility.yul\":7390:7478   */\n          mstore\n            /* \"#utility.yul\":7497:7501   */\n          0x01\n            /* \"#utility.yul\":7494:7495   */\n          0x04\n            /* \"#utility.yul\":7487:7502   */\n          mstore\n            /* \"#utility.yul\":7521:7525   */\n          0x24\n            /* \"#utility.yul\":7518:7519   */\n          0x00\n            /* \"#utility.yul\":7511:7526   */\n          revert\n            /* \"#utility.yul\":7538:7732   */\n        tag_96:\n            /* \"#utility.yul\":7578:7582   */\n          0x00\n            /* \"#utility.yul\":7598:7618   */\n          tag_208\n            /* \"#utility.yul\":7616:7617   */\n          dup3\n            /* \"#utility.yul\":7598:7618   */\n          tag_113\n          jump\t// in\n        tag_208:\n            /* \"#utility.yul\":7593:7618   */\n          swap2\n          pop\n            /* \"#utility.yul\":7632:7652   */\n          tag_209\n            /* \"#utility.yul\":7650:7651   */\n          dup4\n            /* \"#utility.yul\":7632:7652   */\n          tag_113\n          jump\t// in\n        tag_209:\n            /* \"#utility.yul\":7627:7652   */\n          swap3\n          pop\n            /* \"#utility.yul\":7676:7677   */\n          dup3\n            /* \"#utility.yul\":7673:7674   */\n          dup3\n            /* \"#utility.yul\":7669:7678   */\n          sub\n            /* \"#utility.yul\":7661:7678   */\n          swap1\n          pop\n            /* \"#utility.yul\":7700:7701   */\n          dup2\n            /* \"#utility.yul\":7694:7698   */\n          dup2\n            /* \"#utility.yul\":7691:7702   */\n          gt\n            /* \"#utility.yul\":7688:7725   */\n          iszero\n          tag_210\n          jumpi\n            /* \"#utility.yul\":7705:7723   */\n          tag_211\n          tag_123\n          jump\t// in\n        tag_211:\n            /* \"#utility.yul\":7688:7725   */\n        tag_210:\n            /* \"#utility.yul\":7538:7732   */\n          swap3\n          swap2\n          pop\n          pop\n          jump\t// out\n\n        auxdata: 0xa2646970667358221220cfe1b0d68ff057631d5fa2b78b5d696ef5662882895546caf5db1a0164c796bb64736f6c63430008120033\n    }\n}\n",
				"bytecode": {
					"linkReferences": {},
					"object": "6080604052612710600355600260045560006007553480156200002157600080fd5b50600354604051620000339062000124565b6200003f91906200014d565b604051809103906000f0801580156200005c573d6000803e3d6000fd5b506000806101000a81548173ffffffffffffffffffffffffffffffffffffffff021916908373ffffffffffffffffffffffffffffffffffffffff16021790555033600160006101000a81548173ffffffffffffffffffffffffffffffffffffffff021916908373ffffffffffffffffffffffffffffffffffffffff16021790555030600260006101000a81548173ffffffffffffffffffffffffffffffffffffffff021916908373ffffffffffffffffffffffffffffffffffffffff1602179055506200016a565b61106c80620015b883390190565b6000819050919050565b620001478162000132565b82525050565b60006020820190506200016460008301846200013c565b92915050565b61143e806200017a6000396000f3fe6080604052600436106100a75760003560e01c806369bb4dc21161006457806369bb4dc21461018e578063835a1fae146101b95780638da5cb5b146101e45780638e7ea5b21461020f578063966b35141461022657806397304ced14610251576100a7565b806319d41c69146100ac5780633610724e146100d757806340477126146100f35780634d3a2cbc1461010f578063591d46981461013a57806367dd74ca14610165575b600080fd5b3480156100b857600080fd5b506100c161027a565b6040516100ce9190610e0a565b60405180910390f35b6100f160048036038101906100ec9190610e56565b610280565b005b61010d60048036038101906101089190610e56565b6103e8565b005b34801561011b57600080fd5b50610124610535565b6040516101319190610e0a565b60405180910390f35b34801561014657600080fd5b5061014f6105d7565b60405161015c9190610f41565b60405180910390f35b34801561017157600080fd5b5061018c60048036038101906101879190610e56565b61066c565b005b34801561019a57600080fd5b506101a3610922565b6040516101b09190610e0a565b60405180910390f35b3480156101c557600080fd5b506101ce6109e6565b6040516101db9190610e0a565b60405180910390f35b3480156101f057600080fd5b506101f9610aaa565b6040516102069190610fa4565b60405180910390f35b34801561021b57600080fd5b50610224610ad0565b005b34801561023257600080fd5b5061023b610cc6565b6040516102489190610fa4565b60405180910390f35b34801561025d57600080fd5b5061027860048036038101906102739190610e56565b610cec565b005b60045481565b600061028b82610dd4565b90508034101561029a57600080fd5b600081346102a89190610fee565b90503373ffffffffffffffffffffffffffffffffffffffff166108fc829081150290604051600060405180830381858888f193505050501580156102f0573d6000803e3d6000fd5b5060006102fb610922565b90508084111561030a57600080fd5b60008054906101000a900473ffffffffffffffffffffffffffffffffffffffff1673ffffffffffffffffffffffffffffffffffffffff1663a9059cbb33866040518363ffffffff1660e01b8152600401610365929190611022565b6020604051808303816000875af1158015610384573d6000803e3d6000fd5b505050506040513d601f19601f820116820180604052508101906103a89190611083565b507f9d85404bd8b83639dfb807c0644305ddd5e4016d5e75b13dbf3ff251ed33c9a784336040516103da9291906110b0565b60405180910390a150505050565b600081116103f557600080fd5b6103fd610535565b81111561040957600080fd5b60008054906101000a900473ffffffffffffffffffffffffffffffffffffffff1673ffffffffffffffffffffffffffffffffffffffff166323b872dd3330846040518463ffffffff1660e01b8152600401610466939291906110d9565b6020604051808303816000875af1158015610485573d6000803e3d6000fd5b505050506040513d601f19601f820116820180604052508101906104a99190611083565b503373ffffffffffffffffffffffffffffffffffffffff166108fc6104cd83610dd4565b9081150290604051600060405180830381858888f193505050501580156104f8573d6000803e3d6000fd5b507f86473ced04f830437b0990507a98b33cd2089eabd1351ff1d1de942121cda9a4813360405161052a9291906110b0565b60405180910390a150565b60008060009054906101000a900473ffffffffffffffffffffffffffffffffffffffff1673ffffffffffffffffffffffffffffffffffffffff166370a08231336040518263ffffffff1660e01b81526004016105919190610fa4565b602060405180830381865afa1580156105ae573d6000803e3d6000fd5b505050506040513d601f19601f820116820180604052508101906105d29190611125565b905090565b6060600560003373ffffffffffffffffffffffffffffffffffffffff1673ffffffffffffffffffffffffffffffffffffffff16815260200190815260200160002080548060200260200160405190810160405280929190818152602001828054801561066257602002820191906000526020600020905b81548152602001906001019080831161064e575b5050505050905090565b60008160045461067c9190611152565b9050610686610535565b8111156106c8576040517f08c379a00000000000000000000000000000000000000000000000000000000081526004016106bf906111f1565b60405180910390fd5b60008054906101000a900473ffffffffffffffffffffffffffffffffffffffff1673ffffffffffffffffffffffffffffffffffffffff166323b872dd33600160009054906101000a900473ffffffffffffffffffffffffffffffffffffffff16846040518463ffffffff1660e01b8152600401610747939291906110d9565b6020604051808303816000875af1158015610766573d6000803e3d6000fd5b505050506040513d601f19601f8201168201806040525081019061078a9190611083565b5060005b8281101561091d57600061271042336007546040516020016107b29392919061127a565b6040516020818303038152906040528051906020012060001c6107d591906112e6565b9050600760008154809291906107ea90611317565b9190505550600560003373ffffffffffffffffffffffffffffffffffffffff1673ffffffffffffffffffffffffffffffffffffffff1681526020019081526020016000208190806001815401808255809150506001900390600052602060002001600090919091909150556008819080600181540180825580915050600190039060005260206000200160009091909190915055336006600083815260200190815260200160002060006101000a81548173ffffffffffffffffffffffffffffffffffffffff021916908373ffffffffffffffffffffffffffffffffffffffff1602179055507f8881aae6b7c101f6567278af64617d941c5b235790663b6e40929db26ad085db81336040516109019291906110b0565b60405180910390a150808061091590611317565b91505061078e565b505050565b60008060009054906101000a900473ffffffffffffffffffffffffffffffffffffffff1673ffffffffffffffffffffffffffffffffffffffff166370a08231600260009054906101000a900473ffffffffffffffffffffffffffffffffffffffff166040518263ffffffff1660e01b81526004016109a09190610fa4565b602060405180830381865afa1580156109bd573d6000803e3d6000fd5b505050506040513d601f19601f820116820180604052508101906109e19190611125565b905090565b60008060009054906101000a900473ffffffffffffffffffffffffffffffffffffffff1673ffffffffffffffffffffffffffffffffffffffff166370a08231600160009054906101000a900473ffffffffffffffffffffffffffffffffffffffff166040518263ffffffff1660e01b8152600401610a649190610fa4565b602060405180830381865afa158015610a81573d6000803e3d6000fd5b505050506040513d601f19601f82011682018060405250810190610aa59190611125565b905090565b600160009054906101000a900473ffffffffffffffffffffffffffffffffffffffff1681565b600160009054906101000a900473ffffffffffffffffffffffffffffffffffffffff1673ffffffffffffffffffffffffffffffffffffffff163373ffffffffffffffffffffffffffffffffffffffff1614610b2a57600080fd5b600060088054905011610b3c57600080fd5b600060088054905090506000814260003633604051602001610b61949392919061139e565b6040516020818303038152906040528051906020012060001c610b8491906112e6565b9050600060088281548110610b9c57610b9b6113d9565b5b906000526020600020015490507fcf7ed6caf92fa707ae6184d55e725cd5a74953b093d606cb85b3d4c5981fb03281604051610bd89190610e0a565b60405180910390a160006006600083815260200190815260200160002060009054906101000a900473ffffffffffffffffffffffffffffffffffffffff16905060008054906101000a900473ffffffffffffffffffffffffffffffffffffffff1673ffffffffffffffffffffffffffffffffffffffff166323b872dd3383610c5e6109e6565b6040518463ffffffff1660e01b8152600401610c7c939291906110d9565b6020604051808303816000875af1158015610c9b573d6000803e3d6000fd5b505050506040513d601f19601f82011682018060405250810190610cbf9190611083565b5050505050565b600260009054906101000a900473ffffffffffffffffffffffffffffffffffffffff1681565b600160009054906101000a900473ffffffffffffffffffffffffffffffffffffffff1673ffffffffffffffffffffffffffffffffffffffff163373ffffffffffffffffffffffffffffffffffffffff1614610d4657600080fd5b60008054906101000a900473ffffffffffffffffffffffffffffffffffffffff1673ffffffffffffffffffffffffffffffffffffffff16631d43cc98826040518263ffffffff1660e01b8152600401610d9f9190610e0a565b600060405180830381600087803b158015610db957600080fd5b505af1158015610dcd573d6000803e3d6000fd5b5050505050565b6000670de0b6b3a764000082610dea9190611152565b9050919050565b6000819050919050565b610e0481610df1565b82525050565b6000602082019050610e1f6000830184610dfb565b92915050565b600080fd5b610e3381610df1565b8114610e3e57600080fd5b50565b600081359050610e5081610e2a565b92915050565b600060208284031215610e6c57610e6b610e25565b5b6000610e7a84828501610e41565b91505092915050565b600081519050919050565b600082825260208201905092915050565b6000819050602082019050919050565b610eb881610df1565b82525050565b6000610eca8383610eaf565b60208301905092915050565b6000602082019050919050565b6000610eee82610e83565b610ef88185610e8e565b9350610f0383610e9f565b8060005b83811015610f34578151610f1b8882610ebe565b9750610f2683610ed6565b925050600181019050610f07565b5085935050505092915050565b60006020820190508181036000830152610f5b8184610ee3565b905092915050565b600073ffffffffffffffffffffffffffffffffffffffff82169050919050565b6000610f8e82610f63565b9050919050565b610f9e81610f83565b82525050565b6000602082019050610fb96000830184610f95565b92915050565b7f4e487b7100000000000000000000000000000000000000000000000000000000600052601160045260246000fd5b6000610ff982610df1565b915061100483610df1565b925082820390508181111561101c5761101b610fbf565b5b92915050565b60006040820190506110376000830185610f95565b6110446020830184610dfb565b9392505050565b60008115159050919050565b6110608161104b565b811461106b57600080fd5b50565b60008151905061107d81611057565b92915050565b60006020828403121561109957611098610e25565b5b60006110a78482850161106e565b91505092915050565b60006040820190506110c56000830185610dfb565b6110d26020830184610f95565b9392505050565b60006060820190506110ee6000830186610f95565b6110fb6020830185610f95565b6111086040830184610dfb565b949350505050565b60008151905061111f81610e2a565b92915050565b60006020828403121561113b5761113a610e25565b5b600061114984828501611110565b91505092915050565b600061115d82610df1565b915061116883610df1565b925082820261117681610df1565b9150828204841483151761118d5761118c610fbf565b5b5092915050565b600082825260208201905092915050565b7f496e73756666696369656e742062616c616e6365000000000000000000000000600082015250565b60006111db601483611194565b91506111e6826111a5565b602082019050919050565b6000602082019050818103600083015261120a816111ce565b9050919050565b6000819050919050565b61122c61122782610df1565b611211565b82525050565b60008160601b9050919050565b600061124a82611232565b9050919050565b600061125c8261123f565b9050919050565b61127461126f82610f83565b611251565b82525050565b6000611286828661121b565b6020820191506112968285611263565b6014820191506112a6828461121b565b602082019150819050949350505050565b7f4e487b7100000000000000000000000000000000000000000000000000000000600052601260045260246000fd5b60006112f182610df1565b91506112fc83610df1565b92508261130c5761130b6112b7565b5b828206905092915050565b600061132282610df1565b91507fffffffffffffffffffffffffffffffffffffffffffffffffffffffffffffffff820361135457611353610fbf565b5b600182019050919050565b600081905092915050565b82818337600083830152505050565b6000611385838561135f565b935061139283858461136a565b82840190509392505050565b60006113aa828761121b565b6020820191506113bb828587611379565b91506113c78284611263565b60148201915081905095945050505050565b7f4e487b7100000000000000000000000000000000000000000000000000000000600052603260045260246000fdfea264697066735822122090291f3c44d682cbad5bdcac8f94b4a26607af0207960a29f7c3a3798d05811e64736f6c63430008120033608060405234801561001057600080fd5b5060405161106c38038061106c83398181016040528101906100329190610100565b336000806101000a81548173ffffffffffffffffffffffffffffffffffffffff021916908373ffffffffffffffffffffffffffffffffffffffff16021790555080600381905550600354600160003373ffffffffffffffffffffffffffffffffffffffff1673ffffffffffffffffffffffffffffffffffffffff168152602001908152602001600020819055505061012d565b600080fd5b6000819050919050565b6100dd816100ca565b81146100e857600080fd5b50565b6000815190506100fa816100d4565b92915050565b600060208284031215610116576101156100c5565b5b6000610124848285016100eb565b91505092915050565b610f308061013c6000396000f3fe608060405234801561001057600080fd5b50600436106100a95760003560e01c8063313ce56711610071578063313ce5671461016657806370a0823114610184578063715018a6146101b457806395d89b41146101be578063a9059cbb146101dc578063dd62ed3e1461020c576100a9565b806306fdde03146100ae578063095ea7b3146100cc57806318160ddd146100fc5780631d43cc981461011a57806323b872dd14610136575b600080fd5b6100b661023c565b6040516100c39190610b49565b60405180910390f35b6100e660048036038101906100e19190610c04565b610275565b6040516100f39190610c5f565b60405180910390f35b6101046103b3565b6040516101119190610c89565b60405180910390f35b610134600480360381019061012f9190610ca4565b6103bd565b005b610150600480360381019061014b9190610cd1565b6104bd565b60405161015d9190610c5f565b60405180910390f35b61016e6106a5565b60405161017b9190610d40565b60405180910390f35b61019e60048036038101906101999190610d5b565b6106aa565b6040516101ab9190610c89565b60405180910390f35b6101bc6106f3565b005b6101c66107c4565b6040516101d39190610b49565b60405180910390f35b6101f660048036038101906101f19190610c04565b6107fd565b6040516102039190610c5f565b60405180910390f35b61022660048036038101906102219190610d88565b6109e4565b6040516102339190610c89565b60405180910390f35b6040518060400160405280600981526020017f546573744552433230000000000000000000000000000000000000000000000081525081565b6000600160003373ffffffffffffffffffffffffffffffffffffffff1673ffffffffffffffffffffffffffffffffffffffff168152602001908152602001600020548211156102c357600080fd5b81600260003373ffffffffffffffffffffffffffffffffffffffff1673ffffffffffffffffffffffffffffffffffffffff16815260200190815260200160002060008573ffffffffffffffffffffffffffffffffffffffff1673ffffffffffffffffffffffffffffffffffffffff168152602001908152602001600020819055508273ffffffffffffffffffffffffffffffffffffffff163373ffffffffffffffffffffffffffffffffffffffff167f8c5be1e5ebec7d5bd14f71427d1e84f3dd0314c0f7b2291e5b200ac8c7c3b925846040516103a19190610c89565b60405180910390a36001905092915050565b6000600354905090565b3373ffffffffffffffffffffffffffffffffffffffff1660008054906101000a900473ffffffffffffffffffffffffffffffffffffffff1673ffffffffffffffffffffffffffffffffffffffff161461044b576040517f08c379a000000000000000000000000000000000000000000000000000000000815260040161044290610e14565b60405180910390fd5b806003600082825461045d9190610e63565b9250508190555080600160003373ffffffffffffffffffffffffffffffffffffffff1673ffffffffffffffffffffffffffffffffffffffff16815260200190815260200160002060008282546104b39190610e63565b9250508190555050565b6000600160008573ffffffffffffffffffffffffffffffffffffffff1673ffffffffffffffffffffffffffffffffffffffff1681526020019081526020016000205482111561050b57600080fd5b61055d82600160008773ffffffffffffffffffffffffffffffffffffffff1673ffffffffffffffffffffffffffffffffffffffff16815260200190815260200160002054610a6b90919063ffffffff16565b600160008673ffffffffffffffffffffffffffffffffffffffff1673ffffffffffffffffffffffffffffffffffffffff168152602001908152602001600020819055506105f282600160008673ffffffffffffffffffffffffffffffffffffffff1673ffffffffffffffffffffffffffffffffffffffff16815260200190815260200160002054610a9290919063ffffffff16565b600160008573ffffffffffffffffffffffffffffffffffffffff1673ffffffffffffffffffffffffffffffffffffffff168152602001908152602001600020819055508273ffffffffffffffffffffffffffffffffffffffff168473ffffffffffffffffffffffffffffffffffffffff167fddf252ad1be2c89b69c2b068fc378daa952ba7f163c4a11628f55a4df523b3ef846040516106929190610c89565b60405180910390a3600190509392505050565b601281565b6000600160008373ffffffffffffffffffffffffffffffffffffffff1673ffffffffffffffffffffffffffffffffffffffff168152602001908152602001600020549050919050565b3373ffffffffffffffffffffffffffffffffffffffff1660008054906101000a900473ffffffffffffffffffffffffffffffffffffffff1673ffffffffffffffffffffffffffffffffffffffff1614610781576040517f08c379a000000000000000000000000000000000000000000000000000000000815260040161077890610e14565b60405180910390fd5b60008060006101000a81548173ffffffffffffffffffffffffffffffffffffffff021916908373ffffffffffffffffffffffffffffffffffffffff160217905550565b6040518060400160405280600581526020017f455243323000000000000000000000000000000000000000000000000000000081525081565b6000600160003373ffffffffffffffffffffffffffffffffffffffff1673ffffffffffffffffffffffffffffffffffffffff1681526020019081526020016000205482111561084b57600080fd5b61089d82600160003373ffffffffffffffffffffffffffffffffffffffff1673ffffffffffffffffffffffffffffffffffffffff16815260200190815260200160002054610a6b90919063ffffffff16565b600160003373ffffffffffffffffffffffffffffffffffffffff1673ffffffffffffffffffffffffffffffffffffffff1681526020019081526020016000208190555061093282600160008673ffffffffffffffffffffffffffffffffffffffff1673ffffffffffffffffffffffffffffffffffffffff16815260200190815260200160002054610a9290919063ffffffff16565b600160008573ffffffffffffffffffffffffffffffffffffffff1673ffffffffffffffffffffffffffffffffffffffff168152602001908152602001600020819055508273ffffffffffffffffffffffffffffffffffffffff163373ffffffffffffffffffffffffffffffffffffffff167fddf252ad1be2c89b69c2b068fc378daa952ba7f163c4a11628f55a4df523b3ef846040516109d29190610c89565b60405180910390a36001905092915050565b6000600260008473ffffffffffffffffffffffffffffffffffffffff1673ffffffffffffffffffffffffffffffffffffffff16815260200190815260200160002060008373ffffffffffffffffffffffffffffffffffffffff1673ffffffffffffffffffffffffffffffffffffffff16815260200190815260200160002054905092915050565b600082821115610a7e57610a7d610e97565b5b8183610a8a9190610ec6565b905092915050565b60008183610aa09190610e63565b905082811015610ab357610ab2610e97565b5b92915050565b600081519050919050565b600082825260208201905092915050565b60005b83811015610af3578082015181840152602081019050610ad8565b60008484015250505050565b6000601f19601f8301169050919050565b6000610b1b82610ab9565b610b258185610ac4565b9350610b35818560208601610ad5565b610b3e81610aff565b840191505092915050565b60006020820190508181036000830152610b638184610b10565b905092915050565b600080fd5b600073ffffffffffffffffffffffffffffffffffffffff82169050919050565b6000610b9b82610b70565b9050919050565b610bab81610b90565b8114610bb657600080fd5b50565b600081359050610bc881610ba2565b92915050565b6000819050919050565b610be181610bce565b8114610bec57600080fd5b50565b600081359050610bfe81610bd8565b92915050565b60008060408385031215610c1b57610c1a610b6b565b5b6000610c2985828601610bb9565b9250506020610c3a85828601610bef565b9150509250929050565b60008115159050919050565b610c5981610c44565b82525050565b6000602082019050610c746000830184610c50565b92915050565b610c8381610bce565b82525050565b6000602082019050610c9e6000830184610c7a565b92915050565b600060208284031215610cba57610cb9610b6b565b5b6000610cc884828501610bef565b91505092915050565b600080600060608486031215610cea57610ce9610b6b565b5b6000610cf886828701610bb9565b9350506020610d0986828701610bb9565b9250506040610d1a86828701610bef565b9150509250925092565b600060ff82169050919050565b610d3a81610d24565b82525050565b6000602082019050610d556000830184610d31565b92915050565b600060208284031215610d7157610d70610b6b565b5b6000610d7f84828501610bb9565b91505092915050565b60008060408385031215610d9f57610d9e610b6b565b5b6000610dad85828601610bb9565b9250506020610dbe85828601610bb9565b9150509250929050565b7f4d757374206265204f776e657200000000000000000000000000000000000000600082015250565b6000610dfe600d83610ac4565b9150610e0982610dc8565b602082019050919050565b60006020820190508181036000830152610e2d81610df1565b9050919050565b7f4e487b7100000000000000000000000000000000000000000000000000000000600052601160045260246000fd5b6000610e6e82610bce565b9150610e7983610bce565b9250828201905080821115610e9157610e90610e34565b5b92915050565b7f4e487b7100000000000000000000000000000000000000000000000000000000600052600160045260246000fd5b6000610ed182610bce565b9150610edc83610bce565b9250828203905081811115610ef457610ef3610e34565b5b9291505056fea2646970667358221220cfe1b0d68ff057631d5fa2b78b5d696ef5662882895546caf5db1a0164c796bb64736f6c63430008120033",
					"opcodes": "PUSH1 0x80 PUSH1 0x40 MSTORE PUSH2 0x2710 PUSH1 0x3 SSTORE PUSH1 0x2 PUSH1 0x4 SSTORE PUSH1 0x0 PUSH1 0x7 SSTORE CALLVALUE DUP1 ISZERO PUSH3 0x21 JUMPI PUSH1 0x0 DUP1 REVERT JUMPDEST POP PUSH1 0x3 SLOAD PUSH1 0x40 MLOAD PUSH3 0x33 SWAP1 PUSH3 0x124 JUMP JUMPDEST PUSH3 0x3F SWAP2 SWAP1 PUSH3 0x14D JUMP JUMPDEST PUSH1 0x40 MLOAD DUP1 SWAP2 SUB SWAP1 PUSH1 0x0 CREATE DUP1 ISZERO DUP1 ISZERO PUSH3 0x5C JUMPI RETURNDATASIZE PUSH1 0x0 DUP1 RETURNDATACOPY RETURNDATASIZE PUSH1 0x0 REVERT JUMPDEST POP PUSH1 0x0 DUP1 PUSH2 0x100 EXP DUP2 SLOAD DUP2 PUSH20 0xFFFFFFFFFFFFFFFFFFFFFFFFFFFFFFFFFFFFFFFF MUL NOT AND SWAP1 DUP4 PUSH20 0xFFFFFFFFFFFFFFFFFFFFFFFFFFFFFFFFFFFFFFFF AND MUL OR SWAP1 SSTORE POP CALLER PUSH1 0x1 PUSH1 0x0 PUSH2 0x100 EXP DUP2 SLOAD DUP2 PUSH20 0xFFFFFFFFFFFFFFFFFFFFFFFFFFFFFFFFFFFFFFFF MUL NOT AND SWAP1 DUP4 PUSH20 0xFFFFFFFFFFFFFFFFFFFFFFFFFFFFFFFFFFFFFFFF AND MUL OR SWAP1 SSTORE POP ADDRESS PUSH1 0x2 PUSH1 0x0 PUSH2 0x100 EXP DUP2 SLOAD DUP2 PUSH20 0xFFFFFFFFFFFFFFFFFFFFFFFFFFFFFFFFFFFFFFFF MUL NOT AND SWAP1 DUP4 PUSH20 0xFFFFFFFFFFFFFFFFFFFFFFFFFFFFFFFFFFFFFFFF AND MUL OR SWAP1 SSTORE POP PUSH3 0x16A JUMP JUMPDEST PUSH2 0x106C DUP1 PUSH3 0x15B8 DUP4 CODECOPY ADD SWAP1 JUMP JUMPDEST PUSH1 0x0 DUP2 SWAP1 POP SWAP2 SWAP1 POP JUMP JUMPDEST PUSH3 0x147 DUP2 PUSH3 0x132 JUMP JUMPDEST DUP3 MSTORE POP POP JUMP JUMPDEST PUSH1 0x0 PUSH1 0x20 DUP3 ADD SWAP1 POP PUSH3 0x164 PUSH1 0x0 DUP4 ADD DUP5 PUSH3 0x13C JUMP JUMPDEST SWAP3 SWAP2 POP POP JUMP JUMPDEST PUSH2 0x143E DUP1 PUSH3 0x17A PUSH1 0x0 CODECOPY PUSH1 0x0 RETURN INVALID PUSH1 0x80 PUSH1 0x40 MSTORE PUSH1 0x4 CALLDATASIZE LT PUSH2 0xA7 JUMPI PUSH1 0x0 CALLDATALOAD PUSH1 0xE0 SHR DUP1 PUSH4 0x69BB4DC2 GT PUSH2 0x64 JUMPI DUP1 PUSH4 0x69BB4DC2 EQ PUSH2 0x18E JUMPI DUP1 PUSH4 0x835A1FAE EQ PUSH2 0x1B9 JUMPI DUP1 PUSH4 0x8DA5CB5B EQ PUSH2 0x1E4 JUMPI DUP1 PUSH4 0x8E7EA5B2 EQ PUSH2 0x20F JUMPI DUP1 PUSH4 0x966B3514 EQ PUSH2 0x226 JUMPI DUP1 PUSH4 0x97304CED EQ PUSH2 0x251 JUMPI PUSH2 0xA7 JUMP JUMPDEST DUP1 PUSH4 0x19D41C69 EQ PUSH2 0xAC JUMPI DUP1 PUSH4 0x3610724E EQ PUSH2 0xD7 JUMPI DUP1 PUSH4 0x40477126 EQ PUSH2 0xF3 JUMPI DUP1 PUSH4 0x4D3A2CBC EQ PUSH2 0x10F JUMPI DUP1 PUSH4 0x591D4698 EQ PUSH2 0x13A JUMPI DUP1 PUSH4 0x67DD74CA EQ PUSH2 0x165 JUMPI JUMPDEST PUSH1 0x0 DUP1 REVERT JUMPDEST CALLVALUE DUP1 ISZERO PUSH2 0xB8 JUMPI PUSH1 0x0 DUP1 REVERT JUMPDEST POP PUSH2 0xC1 PUSH2 0x27A JUMP JUMPDEST PUSH1 0x40 MLOAD PUSH2 0xCE SWAP2 SWAP1 PUSH2 0xE0A JUMP JUMPDEST PUSH1 0x40 MLOAD DUP1 SWAP2 SUB SWAP1 RETURN JUMPDEST PUSH2 0xF1 PUSH1 0x4 DUP1 CALLDATASIZE SUB DUP2 ADD SWAP1 PUSH2 0xEC SWAP2 SWAP1 PUSH2 0xE56 JUMP JUMPDEST PUSH2 0x280 JUMP JUMPDEST STOP JUMPDEST PUSH2 0x10D PUSH1 0x4 DUP1 CALLDATASIZE SUB DUP2 ADD SWAP1 PUSH2 0x108 SWAP2 SWAP1 PUSH2 0xE56 JUMP JUMPDEST PUSH2 0x3E8 JUMP JUMPDEST STOP JUMPDEST CALLVALUE DUP1 ISZERO PUSH2 0x11B JUMPI PUSH1 0x0 DUP1 REVERT JUMPDEST POP PUSH2 0x124 PUSH2 0x535 JUMP JUMPDEST PUSH1 0x40 MLOAD PUSH2 0x131 SWAP2 SWAP1 PUSH2 0xE0A JUMP JUMPDEST PUSH1 0x40 MLOAD DUP1 SWAP2 SUB SWAP1 RETURN JUMPDEST CALLVALUE DUP1 ISZERO PUSH2 0x146 JUMPI PUSH1 0x0 DUP1 REVERT JUMPDEST POP PUSH2 0x14F PUSH2 0x5D7 JUMP JUMPDEST PUSH1 0x40 MLOAD PUSH2 0x15C SWAP2 SWAP1 PUSH2 0xF41 JUMP JUMPDEST PUSH1 0x40 MLOAD DUP1 SWAP2 SUB SWAP1 RETURN JUMPDEST CALLVALUE DUP1 ISZERO PUSH2 0x171 JUMPI PUSH1 0x0 DUP1 REVERT JUMPDEST POP PUSH2 0x18C PUSH1 0x4 DUP1 CALLDATASIZE SUB DUP2 ADD SWAP1 PUSH2 0x187 SWAP2 SWAP1 PUSH2 0xE56 JUMP JUMPDEST PUSH2 0x66C JUMP JUMPDEST STOP JUMPDEST CALLVALUE DUP1 ISZERO PUSH2 0x19A JUMPI PUSH1 0x0 DUP1 REVERT JUMPDEST POP PUSH2 0x1A3 PUSH2 0x922 JUMP JUMPDEST PUSH1 0x40 MLOAD PUSH2 0x1B0 SWAP2 SWAP1 PUSH2 0xE0A JUMP JUMPDEST PUSH1 0x40 MLOAD DUP1 SWAP2 SUB SWAP1 RETURN JUMPDEST CALLVALUE DUP1 ISZERO PUSH2 0x1C5 JUMPI PUSH1 0x0 DUP1 REVERT JUMPDEST POP PUSH2 0x1CE PUSH2 0x9E6 JUMP JUMPDEST PUSH1 0x40 MLOAD PUSH2 0x1DB SWAP2 SWAP1 PUSH2 0xE0A JUMP JUMPDEST PUSH1 0x40 MLOAD DUP1 SWAP2 SUB SWAP1 RETURN JUMPDEST CALLVALUE DUP1 ISZERO PUSH2 0x1F0 JUMPI PUSH1 0x0 DUP1 REVERT JUMPDEST POP PUSH2 0x1F9 PUSH2 0xAAA JUMP JUMPDEST PUSH1 0x40 MLOAD PUSH2 0x206 SWAP2 SWAP1 PUSH2 0xFA4 JUMP JUMPDEST PUSH1 0x40 MLOAD DUP1 SWAP2 SUB SWAP1 RETURN JUMPDEST CALLVALUE DUP1 ISZERO PUSH2 0x21B JUMPI PUSH1 0x0 DUP1 REVERT JUMPDEST POP PUSH2 0x224 PUSH2 0xAD0 JUMP JUMPDEST STOP JUMPDEST CALLVALUE DUP1 ISZERO PUSH2 0x232 JUMPI PUSH1 0x0 DUP1 REVERT JUMPDEST POP PUSH2 0x23B PUSH2 0xCC6 JUMP JUMPDEST PUSH1 0x40 MLOAD PUSH2 0x248 SWAP2 SWAP1 PUSH2 0xFA4 JUMP JUMPDEST PUSH1 0x40 MLOAD DUP1 SWAP2 SUB SWAP1 RETURN JUMPDEST CALLVALUE DUP1 ISZERO PUSH2 0x25D JUMPI PUSH1 0x0 DUP1 REVERT JUMPDEST POP PUSH2 0x278 PUSH1 0x4 DUP1 CALLDATASIZE SUB DUP2 ADD SWAP1 PUSH2 0x273 SWAP2 SWAP1 PUSH2 0xE56 JUMP JUMPDEST PUSH2 0xCEC JUMP JUMPDEST STOP JUMPDEST PUSH1 0x4 SLOAD DUP2 JUMP JUMPDEST PUSH1 0x0 PUSH2 0x28B DUP3 PUSH2 0xDD4 JUMP JUMPDEST SWAP1 POP DUP1 CALLVALUE LT ISZERO PUSH2 0x29A JUMPI PUSH1 0x0 DUP1 REVERT JUMPDEST PUSH1 0x0 DUP2 CALLVALUE PUSH2 0x2A8 SWAP2 SWAP1 PUSH2 0xFEE JUMP JUMPDEST SWAP1 POP CALLER PUSH20 0xFFFFFFFFFFFFFFFFFFFFFFFFFFFFFFFFFFFFFFFF AND PUSH2 0x8FC DUP3 SWAP1 DUP2 ISZERO MUL SWAP1 PUSH1 0x40 MLOAD PUSH1 0x0 PUSH1 0x40 MLOAD DUP1 DUP4 SUB DUP2 DUP6 DUP9 DUP9 CALL SWAP4 POP POP POP POP ISZERO DUP1 ISZERO PUSH2 0x2F0 JUMPI RETURNDATASIZE PUSH1 0x0 DUP1 RETURNDATACOPY RETURNDATASIZE PUSH1 0x0 REVERT JUMPDEST POP PUSH1 0x0 PUSH2 0x2FB PUSH2 0x922 JUMP JUMPDEST SWAP1 POP DUP1 DUP5 GT ISZERO PUSH2 0x30A JUMPI PUSH1 0x0 DUP1 REVERT JUMPDEST PUSH1 0x0 DUP1 SLOAD SWAP1 PUSH2 0x100 EXP SWAP1 DIV PUSH20 0xFFFFFFFFFFFFFFFFFFFFFFFFFFFFFFFFFFFFFFFF AND PUSH20 0xFFFFFFFFFFFFFFFFFFFFFFFFFFFFFFFFFFFFFFFF AND PUSH4 0xA9059CBB CALLER DUP7 PUSH1 0x40 MLOAD DUP4 PUSH4 0xFFFFFFFF AND PUSH1 0xE0 SHL DUP2 MSTORE PUSH1 0x4 ADD PUSH2 0x365 SWAP3 SWAP2 SWAP1 PUSH2 0x1022 JUMP JUMPDEST PUSH1 0x20 PUSH1 0x40 MLOAD DUP1 DUP4 SUB DUP2 PUSH1 0x0 DUP8 GAS CALL ISZERO DUP1 ISZERO PUSH2 0x384 JUMPI RETURNDATASIZE PUSH1 0x0 DUP1 RETURNDATACOPY RETURNDATASIZE PUSH1 0x0 REVERT JUMPDEST POP POP POP POP PUSH1 0x40 MLOAD RETURNDATASIZE PUSH1 0x1F NOT PUSH1 0x1F DUP3 ADD AND DUP3 ADD DUP1 PUSH1 0x40 MSTORE POP DUP2 ADD SWAP1 PUSH2 0x3A8 SWAP2 SWAP1 PUSH2 0x1083 JUMP JUMPDEST POP PUSH32 0x9D85404BD8B83639DFB807C0644305DDD5E4016D5E75B13DBF3FF251ED33C9A7 DUP5 CALLER PUSH1 0x40 MLOAD PUSH2 0x3DA SWAP3 SWAP2 SWAP1 PUSH2 0x10B0 JUMP JUMPDEST PUSH1 0x40 MLOAD DUP1 SWAP2 SUB SWAP1 LOG1 POP POP POP POP JUMP JUMPDEST PUSH1 0x0 DUP2 GT PUSH2 0x3F5 JUMPI PUSH1 0x0 DUP1 REVERT JUMPDEST PUSH2 0x3FD PUSH2 0x535 JUMP JUMPDEST DUP2 GT ISZERO PUSH2 0x409 JUMPI PUSH1 0x0 DUP1 REVERT JUMPDEST PUSH1 0x0 DUP1 SLOAD SWAP1 PUSH2 0x100 EXP SWAP1 DIV PUSH20 0xFFFFFFFFFFFFFFFFFFFFFFFFFFFFFFFFFFFFFFFF AND PUSH20 0xFFFFFFFFFFFFFFFFFFFFFFFFFFFFFFFFFFFFFFFF AND PUSH4 0x23B872DD CALLER ADDRESS DUP5 PUSH1 0x40 MLOAD DUP5 PUSH4 0xFFFFFFFF AND PUSH1 0xE0 SHL DUP2 MSTORE PUSH1 0x4 ADD PUSH2 0x466 SWAP4 SWAP3 SWAP2 SWAP1 PUSH2 0x10D9 JUMP JUMPDEST PUSH1 0x20 PUSH1 0x40 MLOAD DUP1 DUP4 SUB DUP2 PUSH1 0x0 DUP8 GAS CALL ISZERO DUP1 ISZERO PUSH2 0x485 JUMPI RETURNDATASIZE PUSH1 0x0 DUP1 RETURNDATACOPY RETURNDATASIZE PUSH1 0x0 REVERT JUMPDEST POP POP POP POP PUSH1 0x40 MLOAD RETURNDATASIZE PUSH1 0x1F NOT PUSH1 0x1F DUP3 ADD AND DUP3 ADD DUP1 PUSH1 0x40 MSTORE POP DUP2 ADD SWAP1 PUSH2 0x4A9 SWAP2 SWAP1 PUSH2 0x1083 JUMP JUMPDEST POP CALLER PUSH20 0xFFFFFFFFFFFFFFFFFFFFFFFFFFFFFFFFFFFFFFFF AND PUSH2 0x8FC PUSH2 0x4CD DUP4 PUSH2 0xDD4 JUMP JUMPDEST SWAP1 DUP2 ISZERO MUL SWAP1 PUSH1 0x40 MLOAD PUSH1 0x0 PUSH1 0x40 MLOAD DUP1 DUP4 SUB DUP2 DUP6 DUP9 DUP9 CALL SWAP4 POP POP POP POP ISZERO DUP1 ISZERO PUSH2 0x4F8 JUMPI RETURNDATASIZE PUSH1 0x0 DUP1 RETURNDATACOPY RETURNDATASIZE PUSH1 0x0 REVERT JUMPDEST POP PUSH32 0x86473CED04F830437B0990507A98B33CD2089EABD1351FF1D1DE942121CDA9A4 DUP2 CALLER PUSH1 0x40 MLOAD PUSH2 0x52A SWAP3 SWAP2 SWAP1 PUSH2 0x10B0 JUMP JUMPDEST PUSH1 0x40 MLOAD DUP1 SWAP2 SUB SWAP1 LOG1 POP JUMP JUMPDEST PUSH1 0x0 DUP1 PUSH1 0x0 SWAP1 SLOAD SWAP1 PUSH2 0x100 EXP SWAP1 DIV PUSH20 0xFFFFFFFFFFFFFFFFFFFFFFFFFFFFFFFFFFFFFFFF AND PUSH20 0xFFFFFFFFFFFFFFFFFFFFFFFFFFFFFFFFFFFFFFFF AND PUSH4 0x70A08231 CALLER PUSH1 0x40 MLOAD DUP3 PUSH4 0xFFFFFFFF AND PUSH1 0xE0 SHL DUP2 MSTORE PUSH1 0x4 ADD PUSH2 0x591 SWAP2 SWAP1 PUSH2 0xFA4 JUMP JUMPDEST PUSH1 0x20 PUSH1 0x40 MLOAD DUP1 DUP4 SUB DUP2 DUP7 GAS STATICCALL ISZERO DUP1 ISZERO PUSH2 0x5AE JUMPI RETURNDATASIZE PUSH1 0x0 DUP1 RETURNDATACOPY RETURNDATASIZE PUSH1 0x0 REVERT JUMPDEST POP POP POP POP PUSH1 0x40 MLOAD RETURNDATASIZE PUSH1 0x1F NOT PUSH1 0x1F DUP3 ADD AND DUP3 ADD DUP1 PUSH1 0x40 MSTORE POP DUP2 ADD SWAP1 PUSH2 0x5D2 SWAP2 SWAP1 PUSH2 0x1125 JUMP JUMPDEST SWAP1 POP SWAP1 JUMP JUMPDEST PUSH1 0x60 PUSH1 0x5 PUSH1 0x0 CALLER PUSH20 0xFFFFFFFFFFFFFFFFFFFFFFFFFFFFFFFFFFFFFFFF AND PUSH20 0xFFFFFFFFFFFFFFFFFFFFFFFFFFFFFFFFFFFFFFFF AND DUP2 MSTORE PUSH1 0x20 ADD SWAP1 DUP2 MSTORE PUSH1 0x20 ADD PUSH1 0x0 KECCAK256 DUP1 SLOAD DUP1 PUSH1 0x20 MUL PUSH1 0x20 ADD PUSH1 0x40 MLOAD SWAP1 DUP2 ADD PUSH1 0x40 MSTORE DUP1 SWAP3 SWAP2 SWAP1 DUP2 DUP2 MSTORE PUSH1 0x20 ADD DUP3 DUP1 SLOAD DUP1 ISZERO PUSH2 0x662 JUMPI PUSH1 0x20 MUL DUP3 ADD SWAP2 SWAP1 PUSH1 0x0 MSTORE PUSH1 0x20 PUSH1 0x0 KECCAK256 SWAP1 JUMPDEST DUP2 SLOAD DUP2 MSTORE PUSH1 0x20 ADD SWAP1 PUSH1 0x1 ADD SWAP1 DUP1 DUP4 GT PUSH2 0x64E JUMPI JUMPDEST POP POP POP POP POP SWAP1 POP SWAP1 JUMP JUMPDEST PUSH1 0x0 DUP2 PUSH1 0x4 SLOAD PUSH2 0x67C SWAP2 SWAP1 PUSH2 0x1152 JUMP JUMPDEST SWAP1 POP PUSH2 0x686 PUSH2 0x535 JUMP JUMPDEST DUP2 GT ISZERO PUSH2 0x6C8 JUMPI PUSH1 0x40 MLOAD PUSH32 0x8C379A000000000000000000000000000000000000000000000000000000000 DUP2 MSTORE PUSH1 0x4 ADD PUSH2 0x6BF SWAP1 PUSH2 0x11F1 JUMP JUMPDEST PUSH1 0x40 MLOAD DUP1 SWAP2 SUB SWAP1 REVERT JUMPDEST PUSH1 0x0 DUP1 SLOAD SWAP1 PUSH2 0x100 EXP SWAP1 DIV PUSH20 0xFFFFFFFFFFFFFFFFFFFFFFFFFFFFFFFFFFFFFFFF AND PUSH20 0xFFFFFFFFFFFFFFFFFFFFFFFFFFFFFFFFFFFFFFFF AND PUSH4 0x23B872DD CALLER PUSH1 0x1 PUSH1 0x0 SWAP1 SLOAD SWAP1 PUSH2 0x100 EXP SWAP1 DIV PUSH20 0xFFFFFFFFFFFFFFFFFFFFFFFFFFFFFFFFFFFFFFFF AND DUP5 PUSH1 0x40 MLOAD DUP5 PUSH4 0xFFFFFFFF AND PUSH1 0xE0 SHL DUP2 MSTORE PUSH1 0x4 ADD PUSH2 0x747 SWAP4 SWAP3 SWAP2 SWAP1 PUSH2 0x10D9 JUMP JUMPDEST PUSH1 0x20 PUSH1 0x40 MLOAD DUP1 DUP4 SUB DUP2 PUSH1 0x0 DUP8 GAS CALL ISZERO DUP1 ISZERO PUSH2 0x766 JUMPI RETURNDATASIZE PUSH1 0x0 DUP1 RETURNDATACOPY RETURNDATASIZE PUSH1 0x0 REVERT JUMPDEST POP POP POP POP PUSH1 0x40 MLOAD RETURNDATASIZE PUSH1 0x1F NOT PUSH1 0x1F DUP3 ADD AND DUP3 ADD DUP1 PUSH1 0x40 MSTORE POP DUP2 ADD SWAP1 PUSH2 0x78A SWAP2 SWAP1 PUSH2 0x1083 JUMP JUMPDEST POP PUSH1 0x0 JUMPDEST DUP3 DUP2 LT ISZERO PUSH2 0x91D JUMPI PUSH1 0x0 PUSH2 0x2710 TIMESTAMP CALLER PUSH1 0x7 SLOAD PUSH1 0x40 MLOAD PUSH1 0x20 ADD PUSH2 0x7B2 SWAP4 SWAP3 SWAP2 SWAP1 PUSH2 0x127A JUMP JUMPDEST PUSH1 0x40 MLOAD PUSH1 0x20 DUP2 DUP4 SUB SUB DUP2 MSTORE SWAP1 PUSH1 0x40 MSTORE DUP1 MLOAD SWAP1 PUSH1 0x20 ADD KECCAK256 PUSH1 0x0 SHR PUSH2 0x7D5 SWAP2 SWAP1 PUSH2 0x12E6 JUMP JUMPDEST SWAP1 POP PUSH1 0x7 PUSH1 0x0 DUP2 SLOAD DUP1 SWAP3 SWAP2 SWAP1 PUSH2 0x7EA SWAP1 PUSH2 0x1317 JUMP JUMPDEST SWAP2 SWAP1 POP SSTORE POP PUSH1 0x5 PUSH1 0x0 CALLER PUSH20 0xFFFFFFFFFFFFFFFFFFFFFFFFFFFFFFFFFFFFFFFF AND PUSH20 0xFFFFFFFFFFFFFFFFFFFFFFFFFFFFFFFFFFFFFFFF AND DUP2 MSTORE PUSH1 0x20 ADD SWAP1 DUP2 MSTORE PUSH1 0x20 ADD PUSH1 0x0 KECCAK256 DUP2 SWAP1 DUP1 PUSH1 0x1 DUP2 SLOAD ADD DUP1 DUP3 SSTORE DUP1 SWAP2 POP POP PUSH1 0x1 SWAP1 SUB SWAP1 PUSH1 0x0 MSTORE PUSH1 0x20 PUSH1 0x0 KECCAK256 ADD PUSH1 0x0 SWAP1 SWAP2 SWAP1 SWAP2 SWAP1 SWAP2 POP SSTORE PUSH1 0x8 DUP2 SWAP1 DUP1 PUSH1 0x1 DUP2 SLOAD ADD DUP1 DUP3 SSTORE DUP1 SWAP2 POP POP PUSH1 0x1 SWAP1 SUB SWAP1 PUSH1 0x0 MSTORE PUSH1 0x20 PUSH1 0x0 KECCAK256 ADD PUSH1 0x0 SWAP1 SWAP2 SWAP1 SWAP2 SWAP1 SWAP2 POP SSTORE CALLER PUSH1 0x6 PUSH1 0x0 DUP4 DUP2 MSTORE PUSH1 0x20 ADD SWAP1 DUP2 MSTORE PUSH1 0x20 ADD PUSH1 0x0 KECCAK256 PUSH1 0x0 PUSH2 0x100 EXP DUP2 SLOAD DUP2 PUSH20 0xFFFFFFFFFFFFFFFFFFFFFFFFFFFFFFFFFFFFFFFF MUL NOT AND SWAP1 DUP4 PUSH20 0xFFFFFFFFFFFFFFFFFFFFFFFFFFFFFFFFFFFFFFFF AND MUL OR SWAP1 SSTORE POP PUSH32 0x8881AAE6B7C101F6567278AF64617D941C5B235790663B6E40929DB26AD085DB DUP2 CALLER PUSH1 0x40 MLOAD PUSH2 0x901 SWAP3 SWAP2 SWAP1 PUSH2 0x10B0 JUMP JUMPDEST PUSH1 0x40 MLOAD DUP1 SWAP2 SUB SWAP1 LOG1 POP DUP1 DUP1 PUSH2 0x915 SWAP1 PUSH2 0x1317 JUMP JUMPDEST SWAP2 POP POP PUSH2 0x78E JUMP JUMPDEST POP POP POP JUMP JUMPDEST PUSH1 0x0 DUP1 PUSH1 0x0 SWAP1 SLOAD SWAP1 PUSH2 0x100 EXP SWAP1 DIV PUSH20 0xFFFFFFFFFFFFFFFFFFFFFFFFFFFFFFFFFFFFFFFF AND PUSH20 0xFFFFFFFFFFFFFFFFFFFFFFFFFFFFFFFFFFFFFFFF AND PUSH4 0x70A08231 PUSH1 0x2 PUSH1 0x0 SWAP1 SLOAD SWAP1 PUSH2 0x100 EXP SWAP1 DIV PUSH20 0xFFFFFFFFFFFFFFFFFFFFFFFFFFFFFFFFFFFFFFFF AND PUSH1 0x40 MLOAD DUP3 PUSH4 0xFFFFFFFF AND PUSH1 0xE0 SHL DUP2 MSTORE PUSH1 0x4 ADD PUSH2 0x9A0 SWAP2 SWAP1 PUSH2 0xFA4 JUMP JUMPDEST PUSH1 0x20 PUSH1 0x40 MLOAD DUP1 DUP4 SUB DUP2 DUP7 GAS STATICCALL ISZERO DUP1 ISZERO PUSH2 0x9BD JUMPI RETURNDATASIZE PUSH1 0x0 DUP1 RETURNDATACOPY RETURNDATASIZE PUSH1 0x0 REVERT JUMPDEST POP POP POP POP PUSH1 0x40 MLOAD RETURNDATASIZE PUSH1 0x1F NOT PUSH1 0x1F DUP3 ADD AND DUP3 ADD DUP1 PUSH1 0x40 MSTORE POP DUP2 ADD SWAP1 PUSH2 0x9E1 SWAP2 SWAP1 PUSH2 0x1125 JUMP JUMPDEST SWAP1 POP SWAP1 JUMP JUMPDEST PUSH1 0x0 DUP1 PUSH1 0x0 SWAP1 SLOAD SWAP1 PUSH2 0x100 EXP SWAP1 DIV PUSH20 0xFFFFFFFFFFFFFFFFFFFFFFFFFFFFFFFFFFFFFFFF AND PUSH20 0xFFFFFFFFFFFFFFFFFFFFFFFFFFFFFFFFFFFFFFFF AND PUSH4 0x70A08231 PUSH1 0x1 PUSH1 0x0 SWAP1 SLOAD SWAP1 PUSH2 0x100 EXP SWAP1 DIV PUSH20 0xFFFFFFFFFFFFFFFFFFFFFFFFFFFFFFFFFFFFFFFF AND PUSH1 0x40 MLOAD DUP3 PUSH4 0xFFFFFFFF AND PUSH1 0xE0 SHL DUP2 MSTORE PUSH1 0x4 ADD PUSH2 0xA64 SWAP2 SWAP1 PUSH2 0xFA4 JUMP JUMPDEST PUSH1 0x20 PUSH1 0x40 MLOAD DUP1 DUP4 SUB DUP2 DUP7 GAS STATICCALL ISZERO DUP1 ISZERO PUSH2 0xA81 JUMPI RETURNDATASIZE PUSH1 0x0 DUP1 RETURNDATACOPY RETURNDATASIZE PUSH1 0x0 REVERT JUMPDEST POP POP POP POP PUSH1 0x40 MLOAD RETURNDATASIZE PUSH1 0x1F NOT PUSH1 0x1F DUP3 ADD AND DUP3 ADD DUP1 PUSH1 0x40 MSTORE POP DUP2 ADD SWAP1 PUSH2 0xAA5 SWAP2 SWAP1 PUSH2 0x1125 JUMP JUMPDEST SWAP1 POP SWAP1 JUMP JUMPDEST PUSH1 0x1 PUSH1 0x0 SWAP1 SLOAD SWAP1 PUSH2 0x100 EXP SWAP1 DIV PUSH20 0xFFFFFFFFFFFFFFFFFFFFFFFFFFFFFFFFFFFFFFFF AND DUP2 JUMP JUMPDEST PUSH1 0x1 PUSH1 0x0 SWAP1 SLOAD SWAP1 PUSH2 0x100 EXP SWAP1 DIV PUSH20 0xFFFFFFFFFFFFFFFFFFFFFFFFFFFFFFFFFFFFFFFF AND PUSH20 0xFFFFFFFFFFFFFFFFFFFFFFFFFFFFFFFFFFFFFFFF AND CALLER PUSH20 0xFFFFFFFFFFFFFFFFFFFFFFFFFFFFFFFFFFFFFFFF AND EQ PUSH2 0xB2A JUMPI PUSH1 0x0 DUP1 REVERT JUMPDEST PUSH1 0x0 PUSH1 0x8 DUP1 SLOAD SWAP1 POP GT PUSH2 0xB3C JUMPI PUSH1 0x0 DUP1 REVERT JUMPDEST PUSH1 0x0 PUSH1 0x8 DUP1 SLOAD SWAP1 POP SWAP1 POP PUSH1 0x0 DUP2 TIMESTAMP PUSH1 0x0 CALLDATASIZE CALLER PUSH1 0x40 MLOAD PUSH1 0x20 ADD PUSH2 0xB61 SWAP5 SWAP4 SWAP3 SWAP2 SWAP1 PUSH2 0x139E JUMP JUMPDEST PUSH1 0x40 MLOAD PUSH1 0x20 DUP2 DUP4 SUB SUB DUP2 MSTORE SWAP1 PUSH1 0x40 MSTORE DUP1 MLOAD SWAP1 PUSH1 0x20 ADD KECCAK256 PUSH1 0x0 SHR PUSH2 0xB84 SWAP2 SWAP1 PUSH2 0x12E6 JUMP JUMPDEST SWAP1 POP PUSH1 0x0 PUSH1 0x8 DUP3 DUP2 SLOAD DUP2 LT PUSH2 0xB9C JUMPI PUSH2 0xB9B PUSH2 0x13D9 JUMP JUMPDEST JUMPDEST SWAP1 PUSH1 0x0 MSTORE PUSH1 0x20 PUSH1 0x0 KECCAK256 ADD SLOAD SWAP1 POP PUSH32 0xCF7ED6CAF92FA707AE6184D55E725CD5A74953B093D606CB85B3D4C5981FB032 DUP2 PUSH1 0x40 MLOAD PUSH2 0xBD8 SWAP2 SWAP1 PUSH2 0xE0A JUMP JUMPDEST PUSH1 0x40 MLOAD DUP1 SWAP2 SUB SWAP1 LOG1 PUSH1 0x0 PUSH1 0x6 PUSH1 0x0 DUP4 DUP2 MSTORE PUSH1 0x20 ADD SWAP1 DUP2 MSTORE PUSH1 0x20 ADD PUSH1 0x0 KECCAK256 PUSH1 0x0 SWAP1 SLOAD SWAP1 PUSH2 0x100 EXP SWAP1 DIV PUSH20 0xFFFFFFFFFFFFFFFFFFFFFFFFFFFFFFFFFFFFFFFF AND SWAP1 POP PUSH1 0x0 DUP1 SLOAD SWAP1 PUSH2 0x100 EXP SWAP1 DIV PUSH20 0xFFFFFFFFFFFFFFFFFFFFFFFFFFFFFFFFFFFFFFFF AND PUSH20 0xFFFFFFFFFFFFFFFFFFFFFFFFFFFFFFFFFFFFFFFF AND PUSH4 0x23B872DD CALLER DUP4 PUSH2 0xC5E PUSH2 0x9E6 JUMP JUMPDEST PUSH1 0x40 MLOAD DUP5 PUSH4 0xFFFFFFFF AND PUSH1 0xE0 SHL DUP2 MSTORE PUSH1 0x4 ADD PUSH2 0xC7C SWAP4 SWAP3 SWAP2 SWAP1 PUSH2 0x10D9 JUMP JUMPDEST PUSH1 0x20 PUSH1 0x40 MLOAD DUP1 DUP4 SUB DUP2 PUSH1 0x0 DUP8 GAS CALL ISZERO DUP1 ISZERO PUSH2 0xC9B JUMPI RETURNDATASIZE PUSH1 0x0 DUP1 RETURNDATACOPY RETURNDATASIZE PUSH1 0x0 REVERT JUMPDEST POP POP POP POP PUSH1 0x40 MLOAD RETURNDATASIZE PUSH1 0x1F NOT PUSH1 0x1F DUP3 ADD AND DUP3 ADD DUP1 PUSH1 0x40 MSTORE POP DUP2 ADD SWAP1 PUSH2 0xCBF SWAP2 SWAP1 PUSH2 0x1083 JUMP JUMPDEST POP POP POP POP POP JUMP JUMPDEST PUSH1 0x2 PUSH1 0x0 SWAP1 SLOAD SWAP1 PUSH2 0x100 EXP SWAP1 DIV PUSH20 0xFFFFFFFFFFFFFFFFFFFFFFFFFFFFFFFFFFFFFFFF AND DUP2 JUMP JUMPDEST PUSH1 0x1 PUSH1 0x0 SWAP1 SLOAD SWAP1 PUSH2 0x100 EXP SWAP1 DIV PUSH20 0xFFFFFFFFFFFFFFFFFFFFFFFFFFFFFFFFFFFFFFFF AND PUSH20 0xFFFFFFFFFFFFFFFFFFFFFFFFFFFFFFFFFFFFFFFF AND CALLER PUSH20 0xFFFFFFFFFFFFFFFFFFFFFFFFFFFFFFFFFFFFFFFF AND EQ PUSH2 0xD46 JUMPI PUSH1 0x0 DUP1 REVERT JUMPDEST PUSH1 0x0 DUP1 SLOAD SWAP1 PUSH2 0x100 EXP SWAP1 DIV PUSH20 0xFFFFFFFFFFFFFFFFFFFFFFFFFFFFFFFFFFFFFFFF AND PUSH20 0xFFFFFFFFFFFFFFFFFFFFFFFFFFFFFFFFFFFFFFFF AND PUSH4 0x1D43CC98 DUP3 PUSH1 0x40 MLOAD DUP3 PUSH4 0xFFFFFFFF AND PUSH1 0xE0 SHL DUP2 MSTORE PUSH1 0x4 ADD PUSH2 0xD9F SWAP2 SWAP1 PUSH2 0xE0A JUMP JUMPDEST PUSH1 0x0 PUSH1 0x40 MLOAD DUP1 DUP4 SUB DUP2 PUSH1 0x0 DUP8 DUP1 EXTCODESIZE ISZERO DUP1 ISZERO PUSH2 0xDB9 JUMPI PUSH1 0x0 DUP1 REVERT JUMPDEST POP GAS CALL ISZERO DUP1 ISZERO PUSH2 0xDCD JUMPI RETURNDATASIZE PUSH1 0x0 DUP1 RETURNDATACOPY RETURNDATASIZE PUSH1 0x0 REVERT JUMPDEST POP POP POP POP POP JUMP JUMPDEST PUSH1 0x0 PUSH8 0xDE0B6B3A7640000 DUP3 PUSH2 0xDEA SWAP2 SWAP1 PUSH2 0x1152 JUMP JUMPDEST SWAP1 POP SWAP2 SWAP1 POP JUMP JUMPDEST PUSH1 0x0 DUP2 SWAP1 POP SWAP2 SWAP1 POP JUMP JUMPDEST PUSH2 0xE04 DUP2 PUSH2 0xDF1 JUMP JUMPDEST DUP3 MSTORE POP POP JUMP JUMPDEST PUSH1 0x0 PUSH1 0x20 DUP3 ADD SWAP1 POP PUSH2 0xE1F PUSH1 0x0 DUP4 ADD DUP5 PUSH2 0xDFB JUMP JUMPDEST SWAP3 SWAP2 POP POP JUMP JUMPDEST PUSH1 0x0 DUP1 REVERT JUMPDEST PUSH2 0xE33 DUP2 PUSH2 0xDF1 JUMP JUMPDEST DUP2 EQ PUSH2 0xE3E JUMPI PUSH1 0x0 DUP1 REVERT JUMPDEST POP JUMP JUMPDEST PUSH1 0x0 DUP2 CALLDATALOAD SWAP1 POP PUSH2 0xE50 DUP2 PUSH2 0xE2A JUMP JUMPDEST SWAP3 SWAP2 POP POP JUMP JUMPDEST PUSH1 0x0 PUSH1 0x20 DUP3 DUP5 SUB SLT ISZERO PUSH2 0xE6C JUMPI PUSH2 0xE6B PUSH2 0xE25 JUMP JUMPDEST JUMPDEST PUSH1 0x0 PUSH2 0xE7A DUP5 DUP3 DUP6 ADD PUSH2 0xE41 JUMP JUMPDEST SWAP2 POP POP SWAP3 SWAP2 POP POP JUMP JUMPDEST PUSH1 0x0 DUP2 MLOAD SWAP1 POP SWAP2 SWAP1 POP JUMP JUMPDEST PUSH1 0x0 DUP3 DUP3 MSTORE PUSH1 0x20 DUP3 ADD SWAP1 POP SWAP3 SWAP2 POP POP JUMP JUMPDEST PUSH1 0x0 DUP2 SWAP1 POP PUSH1 0x20 DUP3 ADD SWAP1 POP SWAP2 SWAP1 POP JUMP JUMPDEST PUSH2 0xEB8 DUP2 PUSH2 0xDF1 JUMP JUMPDEST DUP3 MSTORE POP POP JUMP JUMPDEST PUSH1 0x0 PUSH2 0xECA DUP4 DUP4 PUSH2 0xEAF JUMP JUMPDEST PUSH1 0x20 DUP4 ADD SWAP1 POP SWAP3 SWAP2 POP POP JUMP JUMPDEST PUSH1 0x0 PUSH1 0x20 DUP3 ADD SWAP1 POP SWAP2 SWAP1 POP JUMP JUMPDEST PUSH1 0x0 PUSH2 0xEEE DUP3 PUSH2 0xE83 JUMP JUMPDEST PUSH2 0xEF8 DUP2 DUP6 PUSH2 0xE8E JUMP JUMPDEST SWAP4 POP PUSH2 0xF03 DUP4 PUSH2 0xE9F JUMP JUMPDEST DUP1 PUSH1 0x0 JUMPDEST DUP4 DUP2 LT ISZERO PUSH2 0xF34 JUMPI DUP2 MLOAD PUSH2 0xF1B DUP9 DUP3 PUSH2 0xEBE JUMP JUMPDEST SWAP8 POP PUSH2 0xF26 DUP4 PUSH2 0xED6 JUMP JUMPDEST SWAP3 POP POP PUSH1 0x1 DUP2 ADD SWAP1 POP PUSH2 0xF07 JUMP JUMPDEST POP DUP6 SWAP4 POP POP POP POP SWAP3 SWAP2 POP POP JUMP JUMPDEST PUSH1 0x0 PUSH1 0x20 DUP3 ADD SWAP1 POP DUP2 DUP2 SUB PUSH1 0x0 DUP4 ADD MSTORE PUSH2 0xF5B DUP2 DUP5 PUSH2 0xEE3 JUMP JUMPDEST SWAP1 POP SWAP3 SWAP2 POP POP JUMP JUMPDEST PUSH1 0x0 PUSH20 0xFFFFFFFFFFFFFFFFFFFFFFFFFFFFFFFFFFFFFFFF DUP3 AND SWAP1 POP SWAP2 SWAP1 POP JUMP JUMPDEST PUSH1 0x0 PUSH2 0xF8E DUP3 PUSH2 0xF63 JUMP JUMPDEST SWAP1 POP SWAP2 SWAP1 POP JUMP JUMPDEST PUSH2 0xF9E DUP2 PUSH2 0xF83 JUMP JUMPDEST DUP3 MSTORE POP POP JUMP JUMPDEST PUSH1 0x0 PUSH1 0x20 DUP3 ADD SWAP1 POP PUSH2 0xFB9 PUSH1 0x0 DUP4 ADD DUP5 PUSH2 0xF95 JUMP JUMPDEST SWAP3 SWAP2 POP POP JUMP JUMPDEST PUSH32 0x4E487B7100000000000000000000000000000000000000000000000000000000 PUSH1 0x0 MSTORE PUSH1 0x11 PUSH1 0x4 MSTORE PUSH1 0x24 PUSH1 0x0 REVERT JUMPDEST PUSH1 0x0 PUSH2 0xFF9 DUP3 PUSH2 0xDF1 JUMP JUMPDEST SWAP2 POP PUSH2 0x1004 DUP4 PUSH2 0xDF1 JUMP JUMPDEST SWAP3 POP DUP3 DUP3 SUB SWAP1 POP DUP2 DUP2 GT ISZERO PUSH2 0x101C JUMPI PUSH2 0x101B PUSH2 0xFBF JUMP JUMPDEST JUMPDEST SWAP3 SWAP2 POP POP JUMP JUMPDEST PUSH1 0x0 PUSH1 0x40 DUP3 ADD SWAP1 POP PUSH2 0x1037 PUSH1 0x0 DUP4 ADD DUP6 PUSH2 0xF95 JUMP JUMPDEST PUSH2 0x1044 PUSH1 0x20 DUP4 ADD DUP5 PUSH2 0xDFB JUMP JUMPDEST SWAP4 SWAP3 POP POP POP JUMP JUMPDEST PUSH1 0x0 DUP2 ISZERO ISZERO SWAP1 POP SWAP2 SWAP1 POP JUMP JUMPDEST PUSH2 0x1060 DUP2 PUSH2 0x104B JUMP JUMPDEST DUP2 EQ PUSH2 0x106B JUMPI PUSH1 0x0 DUP1 REVERT JUMPDEST POP JUMP JUMPDEST PUSH1 0x0 DUP2 MLOAD SWAP1 POP PUSH2 0x107D DUP2 PUSH2 0x1057 JUMP JUMPDEST SWAP3 SWAP2 POP POP JUMP JUMPDEST PUSH1 0x0 PUSH1 0x20 DUP3 DUP5 SUB SLT ISZERO PUSH2 0x1099 JUMPI PUSH2 0x1098 PUSH2 0xE25 JUMP JUMPDEST JUMPDEST PUSH1 0x0 PUSH2 0x10A7 DUP5 DUP3 DUP6 ADD PUSH2 0x106E JUMP JUMPDEST SWAP2 POP POP SWAP3 SWAP2 POP POP JUMP JUMPDEST PUSH1 0x0 PUSH1 0x40 DUP3 ADD SWAP1 POP PUSH2 0x10C5 PUSH1 0x0 DUP4 ADD DUP6 PUSH2 0xDFB JUMP JUMPDEST PUSH2 0x10D2 PUSH1 0x20 DUP4 ADD DUP5 PUSH2 0xF95 JUMP JUMPDEST SWAP4 SWAP3 POP POP POP JUMP JUMPDEST PUSH1 0x0 PUSH1 0x60 DUP3 ADD SWAP1 POP PUSH2 0x10EE PUSH1 0x0 DUP4 ADD DUP7 PUSH2 0xF95 JUMP JUMPDEST PUSH2 0x10FB PUSH1 0x20 DUP4 ADD DUP6 PUSH2 0xF95 JUMP JUMPDEST PUSH2 0x1108 PUSH1 0x40 DUP4 ADD DUP5 PUSH2 0xDFB JUMP JUMPDEST SWAP5 SWAP4 POP POP POP POP JUMP JUMPDEST PUSH1 0x0 DUP2 MLOAD SWAP1 POP PUSH2 0x111F DUP2 PUSH2 0xE2A JUMP JUMPDEST SWAP3 SWAP2 POP POP JUMP JUMPDEST PUSH1 0x0 PUSH1 0x20 DUP3 DUP5 SUB SLT ISZERO PUSH2 0x113B JUMPI PUSH2 0x113A PUSH2 0xE25 JUMP JUMPDEST JUMPDEST PUSH1 0x0 PUSH2 0x1149 DUP5 DUP3 DUP6 ADD PUSH2 0x1110 JUMP JUMPDEST SWAP2 POP POP SWAP3 SWAP2 POP POP JUMP JUMPDEST PUSH1 0x0 PUSH2 0x115D DUP3 PUSH2 0xDF1 JUMP JUMPDEST SWAP2 POP PUSH2 0x1168 DUP4 PUSH2 0xDF1 JUMP JUMPDEST SWAP3 POP DUP3 DUP3 MUL PUSH2 0x1176 DUP2 PUSH2 0xDF1 JUMP JUMPDEST SWAP2 POP DUP3 DUP3 DIV DUP5 EQ DUP4 ISZERO OR PUSH2 0x118D JUMPI PUSH2 0x118C PUSH2 0xFBF JUMP JUMPDEST JUMPDEST POP SWAP3 SWAP2 POP POP JUMP JUMPDEST PUSH1 0x0 DUP3 DUP3 MSTORE PUSH1 0x20 DUP3 ADD SWAP1 POP SWAP3 SWAP2 POP POP JUMP JUMPDEST PUSH32 0x496E73756666696369656E742062616C616E6365000000000000000000000000 PUSH1 0x0 DUP3 ADD MSTORE POP JUMP JUMPDEST PUSH1 0x0 PUSH2 0x11DB PUSH1 0x14 DUP4 PUSH2 0x1194 JUMP JUMPDEST SWAP2 POP PUSH2 0x11E6 DUP3 PUSH2 0x11A5 JUMP JUMPDEST PUSH1 0x20 DUP3 ADD SWAP1 POP SWAP2 SWAP1 POP JUMP JUMPDEST PUSH1 0x0 PUSH1 0x20 DUP3 ADD SWAP1 POP DUP2 DUP2 SUB PUSH1 0x0 DUP4 ADD MSTORE PUSH2 0x120A DUP2 PUSH2 0x11CE JUMP JUMPDEST SWAP1 POP SWAP2 SWAP1 POP JUMP JUMPDEST PUSH1 0x0 DUP2 SWAP1 POP SWAP2 SWAP1 POP JUMP JUMPDEST PUSH2 0x122C PUSH2 0x1227 DUP3 PUSH2 0xDF1 JUMP JUMPDEST PUSH2 0x1211 JUMP JUMPDEST DUP3 MSTORE POP POP JUMP JUMPDEST PUSH1 0x0 DUP2 PUSH1 0x60 SHL SWAP1 POP SWAP2 SWAP1 POP JUMP JUMPDEST PUSH1 0x0 PUSH2 0x124A DUP3 PUSH2 0x1232 JUMP JUMPDEST SWAP1 POP SWAP2 SWAP1 POP JUMP JUMPDEST PUSH1 0x0 PUSH2 0x125C DUP3 PUSH2 0x123F JUMP JUMPDEST SWAP1 POP SWAP2 SWAP1 POP JUMP JUMPDEST PUSH2 0x1274 PUSH2 0x126F DUP3 PUSH2 0xF83 JUMP JUMPDEST PUSH2 0x1251 JUMP JUMPDEST DUP3 MSTORE POP POP JUMP JUMPDEST PUSH1 0x0 PUSH2 0x1286 DUP3 DUP7 PUSH2 0x121B JUMP JUMPDEST PUSH1 0x20 DUP3 ADD SWAP2 POP PUSH2 0x1296 DUP3 DUP6 PUSH2 0x1263 JUMP JUMPDEST PUSH1 0x14 DUP3 ADD SWAP2 POP PUSH2 0x12A6 DUP3 DUP5 PUSH2 0x121B JUMP JUMPDEST PUSH1 0x20 DUP3 ADD SWAP2 POP DUP2 SWAP1 POP SWAP5 SWAP4 POP POP POP POP JUMP JUMPDEST PUSH32 0x4E487B7100000000000000000000000000000000000000000000000000000000 PUSH1 0x0 MSTORE PUSH1 0x12 PUSH1 0x4 MSTORE PUSH1 0x24 PUSH1 0x0 REVERT JUMPDEST PUSH1 0x0 PUSH2 0x12F1 DUP3 PUSH2 0xDF1 JUMP JUMPDEST SWAP2 POP PUSH2 0x12FC DUP4 PUSH2 0xDF1 JUMP JUMPDEST SWAP3 POP DUP3 PUSH2 0x130C JUMPI PUSH2 0x130B PUSH2 0x12B7 JUMP JUMPDEST JUMPDEST DUP3 DUP3 MOD SWAP1 POP SWAP3 SWAP2 POP POP JUMP JUMPDEST PUSH1 0x0 PUSH2 0x1322 DUP3 PUSH2 0xDF1 JUMP JUMPDEST SWAP2 POP PUSH32 0xFFFFFFFFFFFFFFFFFFFFFFFFFFFFFFFFFFFFFFFFFFFFFFFFFFFFFFFFFFFFFFFF DUP3 SUB PUSH2 0x1354 JUMPI PUSH2 0x1353 PUSH2 0xFBF JUMP JUMPDEST JUMPDEST PUSH1 0x1 DUP3 ADD SWAP1 POP SWAP2 SWAP1 POP JUMP JUMPDEST PUSH1 0x0 DUP2 SWAP1 POP SWAP3 SWAP2 POP POP JUMP JUMPDEST DUP3 DUP2 DUP4 CALLDATACOPY PUSH1 0x0 DUP4 DUP4 ADD MSTORE POP POP POP JUMP JUMPDEST PUSH1 0x0 PUSH2 0x1385 DUP4 DUP6 PUSH2 0x135F JUMP JUMPDEST SWAP4 POP PUSH2 0x1392 DUP4 DUP6 DUP5 PUSH2 0x136A JUMP JUMPDEST DUP3 DUP5 ADD SWAP1 POP SWAP4 SWAP3 POP POP POP JUMP JUMPDEST PUSH1 0x0 PUSH2 0x13AA DUP3 DUP8 PUSH2 0x121B JUMP JUMPDEST PUSH1 0x20 DUP3 ADD SWAP2 POP PUSH2 0x13BB DUP3 DUP6 DUP8 PUSH2 0x1379 JUMP JUMPDEST SWAP2 POP PUSH2 0x13C7 DUP3 DUP5 PUSH2 0x1263 JUMP JUMPDEST PUSH1 0x14 DUP3 ADD SWAP2 POP DUP2 SWAP1 POP SWAP6 SWAP5 POP POP POP POP POP JUMP JUMPDEST PUSH32 0x4E487B7100000000000000000000000000000000000000000000000000000000 PUSH1 0x0 MSTORE PUSH1 0x32 PUSH1 0x4 MSTORE PUSH1 0x24 PUSH1 0x0 REVERT INVALID LOG2 PUSH5 0x6970667358 0x22 SLT KECCAK256 SWAP1 0x29 0x1F EXTCODECOPY PREVRANDAO 0xD6 DUP3 0xCB 0xAD JUMPDEST 0xDC 0xAC DUP16 SWAP5 0xB4 LOG2 PUSH7 0x7AF0207960A29 0xF7 0xC3 LOG3 PUSH26 0x8D05811E64736F6C634300081200336080604052348015610010 JUMPI PUSH1 0x0 DUP1 REVERT JUMPDEST POP PUSH1 0x40 MLOAD PUSH2 0x106C CODESIZE SUB DUP1 PUSH2 0x106C DUP4 CODECOPY DUP2 DUP2 ADD PUSH1 0x40 MSTORE DUP2 ADD SWAP1 PUSH2 0x32 SWAP2 SWAP1 PUSH2 0x100 JUMP JUMPDEST CALLER PUSH1 0x0 DUP1 PUSH2 0x100 EXP DUP2 SLOAD DUP2 PUSH20 0xFFFFFFFFFFFFFFFFFFFFFFFFFFFFFFFFFFFFFFFF MUL NOT AND SWAP1 DUP4 PUSH20 0xFFFFFFFFFFFFFFFFFFFFFFFFFFFFFFFFFFFFFFFF AND MUL OR SWAP1 SSTORE POP DUP1 PUSH1 0x3 DUP2 SWAP1 SSTORE POP PUSH1 0x3 SLOAD PUSH1 0x1 PUSH1 0x0 CALLER PUSH20 0xFFFFFFFFFFFFFFFFFFFFFFFFFFFFFFFFFFFFFFFF AND PUSH20 0xFFFFFFFFFFFFFFFFFFFFFFFFFFFFFFFFFFFFFFFF AND DUP2 MSTORE PUSH1 0x20 ADD SWAP1 DUP2 MSTORE PUSH1 0x20 ADD PUSH1 0x0 KECCAK256 DUP2 SWAP1 SSTORE POP POP PUSH2 0x12D JUMP JUMPDEST PUSH1 0x0 DUP1 REVERT JUMPDEST PUSH1 0x0 DUP2 SWAP1 POP SWAP2 SWAP1 POP JUMP JUMPDEST PUSH2 0xDD DUP2 PUSH2 0xCA JUMP JUMPDEST DUP2 EQ PUSH2 0xE8 JUMPI PUSH1 0x0 DUP1 REVERT JUMPDEST POP JUMP JUMPDEST PUSH1 0x0 DUP2 MLOAD SWAP1 POP PUSH2 0xFA DUP2 PUSH2 0xD4 JUMP JUMPDEST SWAP3 SWAP2 POP POP JUMP JUMPDEST PUSH1 0x0 PUSH1 0x20 DUP3 DUP5 SUB SLT ISZERO PUSH2 0x116 JUMPI PUSH2 0x115 PUSH2 0xC5 JUMP JUMPDEST JUMPDEST PUSH1 0x0 PUSH2 0x124 DUP5 DUP3 DUP6 ADD PUSH2 0xEB JUMP JUMPDEST SWAP2 POP POP SWAP3 SWAP2 POP POP JUMP JUMPDEST PUSH2 0xF30 DUP1 PUSH2 0x13C PUSH1 0x0 CODECOPY PUSH1 0x0 RETURN INVALID PUSH1 0x80 PUSH1 0x40 MSTORE CALLVALUE DUP1 ISZERO PUSH2 0x10 JUMPI PUSH1 0x0 DUP1 REVERT JUMPDEST POP PUSH1 0x4 CALLDATASIZE LT PUSH2 0xA9 JUMPI PUSH1 0x0 CALLDATALOAD PUSH1 0xE0 SHR DUP1 PUSH4 0x313CE567 GT PUSH2 0x71 JUMPI DUP1 PUSH4 0x313CE567 EQ PUSH2 0x166 JUMPI DUP1 PUSH4 0x70A08231 EQ PUSH2 0x184 JUMPI DUP1 PUSH4 0x715018A6 EQ PUSH2 0x1B4 JUMPI DUP1 PUSH4 0x95D89B41 EQ PUSH2 0x1BE JUMPI DUP1 PUSH4 0xA9059CBB EQ PUSH2 0x1DC JUMPI DUP1 PUSH4 0xDD62ED3E EQ PUSH2 0x20C JUMPI PUSH2 0xA9 JUMP JUMPDEST DUP1 PUSH4 0x6FDDE03 EQ PUSH2 0xAE JUMPI DUP1 PUSH4 0x95EA7B3 EQ PUSH2 0xCC JUMPI DUP1 PUSH4 0x18160DDD EQ PUSH2 0xFC JUMPI DUP1 PUSH4 0x1D43CC98 EQ PUSH2 0x11A JUMPI DUP1 PUSH4 0x23B872DD EQ PUSH2 0x136 JUMPI JUMPDEST PUSH1 0x0 DUP1 REVERT JUMPDEST PUSH2 0xB6 PUSH2 0x23C JUMP JUMPDEST PUSH1 0x40 MLOAD PUSH2 0xC3 SWAP2 SWAP1 PUSH2 0xB49 JUMP JUMPDEST PUSH1 0x40 MLOAD DUP1 SWAP2 SUB SWAP1 RETURN JUMPDEST PUSH2 0xE6 PUSH1 0x4 DUP1 CALLDATASIZE SUB DUP2 ADD SWAP1 PUSH2 0xE1 SWAP2 SWAP1 PUSH2 0xC04 JUMP JUMPDEST PUSH2 0x275 JUMP JUMPDEST PUSH1 0x40 MLOAD PUSH2 0xF3 SWAP2 SWAP1 PUSH2 0xC5F JUMP JUMPDEST PUSH1 0x40 MLOAD DUP1 SWAP2 SUB SWAP1 RETURN JUMPDEST PUSH2 0x104 PUSH2 0x3B3 JUMP JUMPDEST PUSH1 0x40 MLOAD PUSH2 0x111 SWAP2 SWAP1 PUSH2 0xC89 JUMP JUMPDEST PUSH1 0x40 MLOAD DUP1 SWAP2 SUB SWAP1 RETURN JUMPDEST PUSH2 0x134 PUSH1 0x4 DUP1 CALLDATASIZE SUB DUP2 ADD SWAP1 PUSH2 0x12F SWAP2 SWAP1 PUSH2 0xCA4 JUMP JUMPDEST PUSH2 0x3BD JUMP JUMPDEST STOP JUMPDEST PUSH2 0x150 PUSH1 0x4 DUP1 CALLDATASIZE SUB DUP2 ADD SWAP1 PUSH2 0x14B SWAP2 SWAP1 PUSH2 0xCD1 JUMP JUMPDEST PUSH2 0x4BD JUMP JUMPDEST PUSH1 0x40 MLOAD PUSH2 0x15D SWAP2 SWAP1 PUSH2 0xC5F JUMP JUMPDEST PUSH1 0x40 MLOAD DUP1 SWAP2 SUB SWAP1 RETURN JUMPDEST PUSH2 0x16E PUSH2 0x6A5 JUMP JUMPDEST PUSH1 0x40 MLOAD PUSH2 0x17B SWAP2 SWAP1 PUSH2 0xD40 JUMP JUMPDEST PUSH1 0x40 MLOAD DUP1 SWAP2 SUB SWAP1 RETURN JUMPDEST PUSH2 0x19E PUSH1 0x4 DUP1 CALLDATASIZE SUB DUP2 ADD SWAP1 PUSH2 0x199 SWAP2 SWAP1 PUSH2 0xD5B JUMP JUMPDEST PUSH2 0x6AA JUMP JUMPDEST PUSH1 0x40 MLOAD PUSH2 0x1AB SWAP2 SWAP1 PUSH2 0xC89 JUMP JUMPDEST PUSH1 0x40 MLOAD DUP1 SWAP2 SUB SWAP1 RETURN JUMPDEST PUSH2 0x1BC PUSH2 0x6F3 JUMP JUMPDEST STOP JUMPDEST PUSH2 0x1C6 PUSH2 0x7C4 JUMP JUMPDEST PUSH1 0x40 MLOAD PUSH2 0x1D3 SWAP2 SWAP1 PUSH2 0xB49 JUMP JUMPDEST PUSH1 0x40 MLOAD DUP1 SWAP2 SUB SWAP1 RETURN JUMPDEST PUSH2 0x1F6 PUSH1 0x4 DUP1 CALLDATASIZE SUB DUP2 ADD SWAP1 PUSH2 0x1F1 SWAP2 SWAP1 PUSH2 0xC04 JUMP JUMPDEST PUSH2 0x7FD JUMP JUMPDEST PUSH1 0x40 MLOAD PUSH2 0x203 SWAP2 SWAP1 PUSH2 0xC5F JUMP JUMPDEST PUSH1 0x40 MLOAD DUP1 SWAP2 SUB SWAP1 RETURN JUMPDEST PUSH2 0x226 PUSH1 0x4 DUP1 CALLDATASIZE SUB DUP2 ADD SWAP1 PUSH2 0x221 SWAP2 SWAP1 PUSH2 0xD88 JUMP JUMPDEST PUSH2 0x9E4 JUMP JUMPDEST PUSH1 0x40 MLOAD PUSH2 0x233 SWAP2 SWAP1 PUSH2 0xC89 JUMP JUMPDEST PUSH1 0x40 MLOAD DUP1 SWAP2 SUB SWAP1 RETURN JUMPDEST PUSH1 0x40 MLOAD DUP1 PUSH1 0x40 ADD PUSH1 0x40 MSTORE DUP1 PUSH1 0x9 DUP2 MSTORE PUSH1 0x20 ADD PUSH32 0x5465737445524332300000000000000000000000000000000000000000000000 DUP2 MSTORE POP DUP2 JUMP JUMPDEST PUSH1 0x0 PUSH1 0x1 PUSH1 0x0 CALLER PUSH20 0xFFFFFFFFFFFFFFFFFFFFFFFFFFFFFFFFFFFFFFFF AND PUSH20 0xFFFFFFFFFFFFFFFFFFFFFFFFFFFFFFFFFFFFFFFF AND DUP2 MSTORE PUSH1 0x20 ADD SWAP1 DUP2 MSTORE PUSH1 0x20 ADD PUSH1 0x0 KECCAK256 SLOAD DUP3 GT ISZERO PUSH2 0x2C3 JUMPI PUSH1 0x0 DUP1 REVERT JUMPDEST DUP2 PUSH1 0x2 PUSH1 0x0 CALLER PUSH20 0xFFFFFFFFFFFFFFFFFFFFFFFFFFFFFFFFFFFFFFFF AND PUSH20 0xFFFFFFFFFFFFFFFFFFFFFFFFFFFFFFFFFFFFFFFF AND DUP2 MSTORE PUSH1 0x20 ADD SWAP1 DUP2 MSTORE PUSH1 0x20 ADD PUSH1 0x0 KECCAK256 PUSH1 0x0 DUP6 PUSH20 0xFFFFFFFFFFFFFFFFFFFFFFFFFFFFFFFFFFFFFFFF AND PUSH20 0xFFFFFFFFFFFFFFFFFFFFFFFFFFFFFFFFFFFFFFFF AND DUP2 MSTORE PUSH1 0x20 ADD SWAP1 DUP2 MSTORE PUSH1 0x20 ADD PUSH1 0x0 KECCAK256 DUP2 SWAP1 SSTORE POP DUP3 PUSH20 0xFFFFFFFFFFFFFFFFFFFFFFFFFFFFFFFFFFFFFFFF AND CALLER PUSH20 0xFFFFFFFFFFFFFFFFFFFFFFFFFFFFFFFFFFFFFFFF AND PUSH32 0x8C5BE1E5EBEC7D5BD14F71427D1E84F3DD0314C0F7B2291E5B200AC8C7C3B925 DUP5 PUSH1 0x40 MLOAD PUSH2 0x3A1 SWAP2 SWAP1 PUSH2 0xC89 JUMP JUMPDEST PUSH1 0x40 MLOAD DUP1 SWAP2 SUB SWAP1 LOG3 PUSH1 0x1 SWAP1 POP SWAP3 SWAP2 POP POP JUMP JUMPDEST PUSH1 0x0 PUSH1 0x3 SLOAD SWAP1 POP SWAP1 JUMP JUMPDEST CALLER PUSH20 0xFFFFFFFFFFFFFFFFFFFFFFFFFFFFFFFFFFFFFFFF AND PUSH1 0x0 DUP1 SLOAD SWAP1 PUSH2 0x100 EXP SWAP1 DIV PUSH20 0xFFFFFFFFFFFFFFFFFFFFFFFFFFFFFFFFFFFFFFFF AND PUSH20 0xFFFFFFFFFFFFFFFFFFFFFFFFFFFFFFFFFFFFFFFF AND EQ PUSH2 0x44B JUMPI PUSH1 0x40 MLOAD PUSH32 0x8C379A000000000000000000000000000000000000000000000000000000000 DUP2 MSTORE PUSH1 0x4 ADD PUSH2 0x442 SWAP1 PUSH2 0xE14 JUMP JUMPDEST PUSH1 0x40 MLOAD DUP1 SWAP2 SUB SWAP1 REVERT JUMPDEST DUP1 PUSH1 0x3 PUSH1 0x0 DUP3 DUP3 SLOAD PUSH2 0x45D SWAP2 SWAP1 PUSH2 0xE63 JUMP JUMPDEST SWAP3 POP POP DUP2 SWAP1 SSTORE POP DUP1 PUSH1 0x1 PUSH1 0x0 CALLER PUSH20 0xFFFFFFFFFFFFFFFFFFFFFFFFFFFFFFFFFFFFFFFF AND PUSH20 0xFFFFFFFFFFFFFFFFFFFFFFFFFFFFFFFFFFFFFFFF AND DUP2 MSTORE PUSH1 0x20 ADD SWAP1 DUP2 MSTORE PUSH1 0x20 ADD PUSH1 0x0 KECCAK256 PUSH1 0x0 DUP3 DUP3 SLOAD PUSH2 0x4B3 SWAP2 SWAP1 PUSH2 0xE63 JUMP JUMPDEST SWAP3 POP POP DUP2 SWAP1 SSTORE POP POP JUMP JUMPDEST PUSH1 0x0 PUSH1 0x1 PUSH1 0x0 DUP6 PUSH20 0xFFFFFFFFFFFFFFFFFFFFFFFFFFFFFFFFFFFFFFFF AND PUSH20 0xFFFFFFFFFFFFFFFFFFFFFFFFFFFFFFFFFFFFFFFF AND DUP2 MSTORE PUSH1 0x20 ADD SWAP1 DUP2 MSTORE PUSH1 0x20 ADD PUSH1 0x0 KECCAK256 SLOAD DUP3 GT ISZERO PUSH2 0x50B JUMPI PUSH1 0x0 DUP1 REVERT JUMPDEST PUSH2 0x55D DUP3 PUSH1 0x1 PUSH1 0x0 DUP8 PUSH20 0xFFFFFFFFFFFFFFFFFFFFFFFFFFFFFFFFFFFFFFFF AND PUSH20 0xFFFFFFFFFFFFFFFFFFFFFFFFFFFFFFFFFFFFFFFF AND DUP2 MSTORE PUSH1 0x20 ADD SWAP1 DUP2 MSTORE PUSH1 0x20 ADD PUSH1 0x0 KECCAK256 SLOAD PUSH2 0xA6B SWAP1 SWAP2 SWAP1 PUSH4 0xFFFFFFFF AND JUMP JUMPDEST PUSH1 0x1 PUSH1 0x0 DUP7 PUSH20 0xFFFFFFFFFFFFFFFFFFFFFFFFFFFFFFFFFFFFFFFF AND PUSH20 0xFFFFFFFFFFFFFFFFFFFFFFFFFFFFFFFFFFFFFFFF AND DUP2 MSTORE PUSH1 0x20 ADD SWAP1 DUP2 MSTORE PUSH1 0x20 ADD PUSH1 0x0 KECCAK256 DUP2 SWAP1 SSTORE POP PUSH2 0x5F2 DUP3 PUSH1 0x1 PUSH1 0x0 DUP7 PUSH20 0xFFFFFFFFFFFFFFFFFFFFFFFFFFFFFFFFFFFFFFFF AND PUSH20 0xFFFFFFFFFFFFFFFFFFFFFFFFFFFFFFFFFFFFFFFF AND DUP2 MSTORE PUSH1 0x20 ADD SWAP1 DUP2 MSTORE PUSH1 0x20 ADD PUSH1 0x0 KECCAK256 SLOAD PUSH2 0xA92 SWAP1 SWAP2 SWAP1 PUSH4 0xFFFFFFFF AND JUMP JUMPDEST PUSH1 0x1 PUSH1 0x0 DUP6 PUSH20 0xFFFFFFFFFFFFFFFFFFFFFFFFFFFFFFFFFFFFFFFF AND PUSH20 0xFFFFFFFFFFFFFFFFFFFFFFFFFFFFFFFFFFFFFFFF AND DUP2 MSTORE PUSH1 0x20 ADD SWAP1 DUP2 MSTORE PUSH1 0x20 ADD PUSH1 0x0 KECCAK256 DUP2 SWAP1 SSTORE POP DUP3 PUSH20 0xFFFFFFFFFFFFFFFFFFFFFFFFFFFFFFFFFFFFFFFF AND DUP5 PUSH20 0xFFFFFFFFFFFFFFFFFFFFFFFFFFFFFFFFFFFFFFFF AND PUSH32 0xDDF252AD1BE2C89B69C2B068FC378DAA952BA7F163C4A11628F55A4DF523B3EF DUP5 PUSH1 0x40 MLOAD PUSH2 0x692 SWAP2 SWAP1 PUSH2 0xC89 JUMP JUMPDEST PUSH1 0x40 MLOAD DUP1 SWAP2 SUB SWAP1 LOG3 PUSH1 0x1 SWAP1 POP SWAP4 SWAP3 POP POP POP JUMP JUMPDEST PUSH1 0x12 DUP2 JUMP JUMPDEST PUSH1 0x0 PUSH1 0x1 PUSH1 0x0 DUP4 PUSH20 0xFFFFFFFFFFFFFFFFFFFFFFFFFFFFFFFFFFFFFFFF AND PUSH20 0xFFFFFFFFFFFFFFFFFFFFFFFFFFFFFFFFFFFFFFFF AND DUP2 MSTORE PUSH1 0x20 ADD SWAP1 DUP2 MSTORE PUSH1 0x20 ADD PUSH1 0x0 KECCAK256 SLOAD SWAP1 POP SWAP2 SWAP1 POP JUMP JUMPDEST CALLER PUSH20 0xFFFFFFFFFFFFFFFFFFFFFFFFFFFFFFFFFFFFFFFF AND PUSH1 0x0 DUP1 SLOAD SWAP1 PUSH2 0x100 EXP SWAP1 DIV PUSH20 0xFFFFFFFFFFFFFFFFFFFFFFFFFFFFFFFFFFFFFFFF AND PUSH20 0xFFFFFFFFFFFFFFFFFFFFFFFFFFFFFFFFFFFFFFFF AND EQ PUSH2 0x781 JUMPI PUSH1 0x40 MLOAD PUSH32 0x8C379A000000000000000000000000000000000000000000000000000000000 DUP2 MSTORE PUSH1 0x4 ADD PUSH2 0x778 SWAP1 PUSH2 0xE14 JUMP JUMPDEST PUSH1 0x40 MLOAD DUP1 SWAP2 SUB SWAP1 REVERT JUMPDEST PUSH1 0x0 DUP1 PUSH1 0x0 PUSH2 0x100 EXP DUP2 SLOAD DUP2 PUSH20 0xFFFFFFFFFFFFFFFFFFFFFFFFFFFFFFFFFFFFFFFF MUL NOT AND SWAP1 DUP4 PUSH20 0xFFFFFFFFFFFFFFFFFFFFFFFFFFFFFFFFFFFFFFFF AND MUL OR SWAP1 SSTORE POP JUMP JUMPDEST PUSH1 0x40 MLOAD DUP1 PUSH1 0x40 ADD PUSH1 0x40 MSTORE DUP1 PUSH1 0x5 DUP2 MSTORE PUSH1 0x20 ADD PUSH32 0x4552433230000000000000000000000000000000000000000000000000000000 DUP2 MSTORE POP DUP2 JUMP JUMPDEST PUSH1 0x0 PUSH1 0x1 PUSH1 0x0 CALLER PUSH20 0xFFFFFFFFFFFFFFFFFFFFFFFFFFFFFFFFFFFFFFFF AND PUSH20 0xFFFFFFFFFFFFFFFFFFFFFFFFFFFFFFFFFFFFFFFF AND DUP2 MSTORE PUSH1 0x20 ADD SWAP1 DUP2 MSTORE PUSH1 0x20 ADD PUSH1 0x0 KECCAK256 SLOAD DUP3 GT ISZERO PUSH2 0x84B JUMPI PUSH1 0x0 DUP1 REVERT JUMPDEST PUSH2 0x89D DUP3 PUSH1 0x1 PUSH1 0x0 CALLER PUSH20 0xFFFFFFFFFFFFFFFFFFFFFFFFFFFFFFFFFFFFFFFF AND PUSH20 0xFFFFFFFFFFFFFFFFFFFFFFFFFFFFFFFFFFFFFFFF AND DUP2 MSTORE PUSH1 0x20 ADD SWAP1 DUP2 MSTORE PUSH1 0x20 ADD PUSH1 0x0 KECCAK256 SLOAD PUSH2 0xA6B SWAP1 SWAP2 SWAP1 PUSH4 0xFFFFFFFF AND JUMP JUMPDEST PUSH1 0x1 PUSH1 0x0 CALLER PUSH20 0xFFFFFFFFFFFFFFFFFFFFFFFFFFFFFFFFFFFFFFFF AND PUSH20 0xFFFFFFFFFFFFFFFFFFFFFFFFFFFFFFFFFFFFFFFF AND DUP2 MSTORE PUSH1 0x20 ADD SWAP1 DUP2 MSTORE PUSH1 0x20 ADD PUSH1 0x0 KECCAK256 DUP2 SWAP1 SSTORE POP PUSH2 0x932 DUP3 PUSH1 0x1 PUSH1 0x0 DUP7 PUSH20 0xFFFFFFFFFFFFFFFFFFFFFFFFFFFFFFFFFFFFFFFF AND PUSH20 0xFFFFFFFFFFFFFFFFFFFFFFFFFFFFFFFFFFFFFFFF AND DUP2 MSTORE PUSH1 0x20 ADD SWAP1 DUP2 MSTORE PUSH1 0x20 ADD PUSH1 0x0 KECCAK256 SLOAD PUSH2 0xA92 SWAP1 SWAP2 SWAP1 PUSH4 0xFFFFFFFF AND JUMP JUMPDEST PUSH1 0x1 PUSH1 0x0 DUP6 PUSH20 0xFFFFFFFFFFFFFFFFFFFFFFFFFFFFFFFFFFFFFFFF AND PUSH20 0xFFFFFFFFFFFFFFFFFFFFFFFFFFFFFFFFFFFFFFFF AND DUP2 MSTORE PUSH1 0x20 ADD SWAP1 DUP2 MSTORE PUSH1 0x20 ADD PUSH1 0x0 KECCAK256 DUP2 SWAP1 SSTORE POP DUP3 PUSH20 0xFFFFFFFFFFFFFFFFFFFFFFFFFFFFFFFFFFFFFFFF AND CALLER PUSH20 0xFFFFFFFFFFFFFFFFFFFFFFFFFFFFFFFFFFFFFFFF AND PUSH32 0xDDF252AD1BE2C89B69C2B068FC378DAA952BA7F163C4A11628F55A4DF523B3EF DUP5 PUSH1 0x40 MLOAD PUSH2 0x9D2 SWAP2 SWAP1 PUSH2 0xC89 JUMP JUMPDEST PUSH1 0x40 MLOAD DUP1 SWAP2 SUB SWAP1 LOG3 PUSH1 0x1 SWAP1 POP SWAP3 SWAP2 POP POP JUMP JUMPDEST PUSH1 0x0 PUSH1 0x2 PUSH1 0x0 DUP5 PUSH20 0xFFFFFFFFFFFFFFFFFFFFFFFFFFFFFFFFFFFFFFFF AND PUSH20 0xFFFFFFFFFFFFFFFFFFFFFFFFFFFFFFFFFFFFFFFF AND DUP2 MSTORE PUSH1 0x20 ADD SWAP1 DUP2 MSTORE PUSH1 0x20 ADD PUSH1 0x0 KECCAK256 PUSH1 0x0 DUP4 PUSH20 0xFFFFFFFFFFFFFFFFFFFFFFFFFFFFFFFFFFFFFFFF AND PUSH20 0xFFFFFFFFFFFFFFFFFFFFFFFFFFFFFFFFFFFFFFFF AND DUP2 MSTORE PUSH1 0x20 ADD SWAP1 DUP2 MSTORE PUSH1 0x20 ADD PUSH1 0x0 KECCAK256 SLOAD SWAP1 POP SWAP3 SWAP2 POP POP JUMP JUMPDEST PUSH1 0x0 DUP3 DUP3 GT ISZERO PUSH2 0xA7E JUMPI PUSH2 0xA7D PUSH2 0xE97 JUMP JUMPDEST JUMPDEST DUP2 DUP4 PUSH2 0xA8A SWAP2 SWAP1 PUSH2 0xEC6 JUMP JUMPDEST SWAP1 POP SWAP3 SWAP2 POP POP JUMP JUMPDEST PUSH1 0x0 DUP2 DUP4 PUSH2 0xAA0 SWAP2 SWAP1 PUSH2 0xE63 JUMP JUMPDEST SWAP1 POP DUP3 DUP2 LT ISZERO PUSH2 0xAB3 JUMPI PUSH2 0xAB2 PUSH2 0xE97 JUMP JUMPDEST JUMPDEST SWAP3 SWAP2 POP POP JUMP JUMPDEST PUSH1 0x0 DUP2 MLOAD SWAP1 POP SWAP2 SWAP1 POP JUMP JUMPDEST PUSH1 0x0 DUP3 DUP3 MSTORE PUSH1 0x20 DUP3 ADD SWAP1 POP SWAP3 SWAP2 POP POP JUMP JUMPDEST PUSH1 0x0 JUMPDEST DUP4 DUP2 LT ISZERO PUSH2 0xAF3 JUMPI DUP1 DUP3 ADD MLOAD DUP2 DUP5 ADD MSTORE PUSH1 0x20 DUP2 ADD SWAP1 POP PUSH2 0xAD8 JUMP JUMPDEST PUSH1 0x0 DUP5 DUP5 ADD MSTORE POP POP POP POP JUMP JUMPDEST PUSH1 0x0 PUSH1 0x1F NOT PUSH1 0x1F DUP4 ADD AND SWAP1 POP SWAP2 SWAP1 POP JUMP JUMPDEST PUSH1 0x0 PUSH2 0xB1B DUP3 PUSH2 0xAB9 JUMP JUMPDEST PUSH2 0xB25 DUP2 DUP6 PUSH2 0xAC4 JUMP JUMPDEST SWAP4 POP PUSH2 0xB35 DUP2 DUP6 PUSH1 0x20 DUP7 ADD PUSH2 0xAD5 JUMP JUMPDEST PUSH2 0xB3E DUP2 PUSH2 0xAFF JUMP JUMPDEST DUP5 ADD SWAP2 POP POP SWAP3 SWAP2 POP POP JUMP JUMPDEST PUSH1 0x0 PUSH1 0x20 DUP3 ADD SWAP1 POP DUP2 DUP2 SUB PUSH1 0x0 DUP4 ADD MSTORE PUSH2 0xB63 DUP2 DUP5 PUSH2 0xB10 JUMP JUMPDEST SWAP1 POP SWAP3 SWAP2 POP POP JUMP JUMPDEST PUSH1 0x0 DUP1 REVERT JUMPDEST PUSH1 0x0 PUSH20 0xFFFFFFFFFFFFFFFFFFFFFFFFFFFFFFFFFFFFFFFF DUP3 AND SWAP1 POP SWAP2 SWAP1 POP JUMP JUMPDEST PUSH1 0x0 PUSH2 0xB9B DUP3 PUSH2 0xB70 JUMP JUMPDEST SWAP1 POP SWAP2 SWAP1 POP JUMP JUMPDEST PUSH2 0xBAB DUP2 PUSH2 0xB90 JUMP JUMPDEST DUP2 EQ PUSH2 0xBB6 JUMPI PUSH1 0x0 DUP1 REVERT JUMPDEST POP JUMP JUMPDEST PUSH1 0x0 DUP2 CALLDATALOAD SWAP1 POP PUSH2 0xBC8 DUP2 PUSH2 0xBA2 JUMP JUMPDEST SWAP3 SWAP2 POP POP JUMP JUMPDEST PUSH1 0x0 DUP2 SWAP1 POP SWAP2 SWAP1 POP JUMP JUMPDEST PUSH2 0xBE1 DUP2 PUSH2 0xBCE JUMP JUMPDEST DUP2 EQ PUSH2 0xBEC JUMPI PUSH1 0x0 DUP1 REVERT JUMPDEST POP JUMP JUMPDEST PUSH1 0x0 DUP2 CALLDATALOAD SWAP1 POP PUSH2 0xBFE DUP2 PUSH2 0xBD8 JUMP JUMPDEST SWAP3 SWAP2 POP POP JUMP JUMPDEST PUSH1 0x0 DUP1 PUSH1 0x40 DUP4 DUP6 SUB SLT ISZERO PUSH2 0xC1B JUMPI PUSH2 0xC1A PUSH2 0xB6B JUMP JUMPDEST JUMPDEST PUSH1 0x0 PUSH2 0xC29 DUP6 DUP3 DUP7 ADD PUSH2 0xBB9 JUMP JUMPDEST SWAP3 POP POP PUSH1 0x20 PUSH2 0xC3A DUP6 DUP3 DUP7 ADD PUSH2 0xBEF JUMP JUMPDEST SWAP2 POP POP SWAP3 POP SWAP3 SWAP1 POP JUMP JUMPDEST PUSH1 0x0 DUP2 ISZERO ISZERO SWAP1 POP SWAP2 SWAP1 POP JUMP JUMPDEST PUSH2 0xC59 DUP2 PUSH2 0xC44 JUMP JUMPDEST DUP3 MSTORE POP POP JUMP JUMPDEST PUSH1 0x0 PUSH1 0x20 DUP3 ADD SWAP1 POP PUSH2 0xC74 PUSH1 0x0 DUP4 ADD DUP5 PUSH2 0xC50 JUMP JUMPDEST SWAP3 SWAP2 POP POP JUMP JUMPDEST PUSH2 0xC83 DUP2 PUSH2 0xBCE JUMP JUMPDEST DUP3 MSTORE POP POP JUMP JUMPDEST PUSH1 0x0 PUSH1 0x20 DUP3 ADD SWAP1 POP PUSH2 0xC9E PUSH1 0x0 DUP4 ADD DUP5 PUSH2 0xC7A JUMP JUMPDEST SWAP3 SWAP2 POP POP JUMP JUMPDEST PUSH1 0x0 PUSH1 0x20 DUP3 DUP5 SUB SLT ISZERO PUSH2 0xCBA JUMPI PUSH2 0xCB9 PUSH2 0xB6B JUMP JUMPDEST JUMPDEST PUSH1 0x0 PUSH2 0xCC8 DUP5 DUP3 DUP6 ADD PUSH2 0xBEF JUMP JUMPDEST SWAP2 POP POP SWAP3 SWAP2 POP POP JUMP JUMPDEST PUSH1 0x0 DUP1 PUSH1 0x0 PUSH1 0x60 DUP5 DUP7 SUB SLT ISZERO PUSH2 0xCEA JUMPI PUSH2 0xCE9 PUSH2 0xB6B JUMP JUMPDEST JUMPDEST PUSH1 0x0 PUSH2 0xCF8 DUP7 DUP3 DUP8 ADD PUSH2 0xBB9 JUMP JUMPDEST SWAP4 POP POP PUSH1 0x20 PUSH2 0xD09 DUP7 DUP3 DUP8 ADD PUSH2 0xBB9 JUMP JUMPDEST SWAP3 POP POP PUSH1 0x40 PUSH2 0xD1A DUP7 DUP3 DUP8 ADD PUSH2 0xBEF JUMP JUMPDEST SWAP2 POP POP SWAP3 POP SWAP3 POP SWAP3 JUMP JUMPDEST PUSH1 0x0 PUSH1 0xFF DUP3 AND SWAP1 POP SWAP2 SWAP1 POP JUMP JUMPDEST PUSH2 0xD3A DUP2 PUSH2 0xD24 JUMP JUMPDEST DUP3 MSTORE POP POP JUMP JUMPDEST PUSH1 0x0 PUSH1 0x20 DUP3 ADD SWAP1 POP PUSH2 0xD55 PUSH1 0x0 DUP4 ADD DUP5 PUSH2 0xD31 JUMP JUMPDEST SWAP3 SWAP2 POP POP JUMP JUMPDEST PUSH1 0x0 PUSH1 0x20 DUP3 DUP5 SUB SLT ISZERO PUSH2 0xD71 JUMPI PUSH2 0xD70 PUSH2 0xB6B JUMP JUMPDEST JUMPDEST PUSH1 0x0 PUSH2 0xD7F DUP5 DUP3 DUP6 ADD PUSH2 0xBB9 JUMP JUMPDEST SWAP2 POP POP SWAP3 SWAP2 POP POP JUMP JUMPDEST PUSH1 0x0 DUP1 PUSH1 0x40 DUP4 DUP6 SUB SLT ISZERO PUSH2 0xD9F JUMPI PUSH2 0xD9E PUSH2 0xB6B JUMP JUMPDEST JUMPDEST PUSH1 0x0 PUSH2 0xDAD DUP6 DUP3 DUP7 ADD PUSH2 0xBB9 JUMP JUMPDEST SWAP3 POP POP PUSH1 0x20 PUSH2 0xDBE DUP6 DUP3 DUP7 ADD PUSH2 0xBB9 JUMP JUMPDEST SWAP2 POP POP SWAP3 POP SWAP3 SWAP1 POP JUMP JUMPDEST PUSH32 0x4D757374206265204F776E657200000000000000000000000000000000000000 PUSH1 0x0 DUP3 ADD MSTORE POP JUMP JUMPDEST PUSH1 0x0 PUSH2 0xDFE PUSH1 0xD DUP4 PUSH2 0xAC4 JUMP JUMPDEST SWAP2 POP PUSH2 0xE09 DUP3 PUSH2 0xDC8 JUMP JUMPDEST PUSH1 0x20 DUP3 ADD SWAP1 POP SWAP2 SWAP1 POP JUMP JUMPDEST PUSH1 0x0 PUSH1 0x20 DUP3 ADD SWAP1 POP DUP2 DUP2 SUB PUSH1 0x0 DUP4 ADD MSTORE PUSH2 0xE2D DUP2 PUSH2 0xDF1 JUMP JUMPDEST SWAP1 POP SWAP2 SWAP1 POP JUMP JUMPDEST PUSH32 0x4E487B7100000000000000000000000000000000000000000000000000000000 PUSH1 0x0 MSTORE PUSH1 0x11 PUSH1 0x4 MSTORE PUSH1 0x24 PUSH1 0x0 REVERT JUMPDEST PUSH1 0x0 PUSH2 0xE6E DUP3 PUSH2 0xBCE JUMP JUMPDEST SWAP2 POP PUSH2 0xE79 DUP4 PUSH2 0xBCE JUMP JUMPDEST SWAP3 POP DUP3 DUP3 ADD SWAP1 POP DUP1 DUP3 GT ISZERO PUSH2 0xE91 JUMPI PUSH2 0xE90 PUSH2 0xE34 JUMP JUMPDEST JUMPDEST SWAP3 SWAP2 POP POP JUMP JUMPDEST PUSH32 0x4E487B7100000000000000000000000000000000000000000000000000000000 PUSH1 0x0 MSTORE PUSH1 0x1 PUSH1 0x4 MSTORE PUSH1 0x24 PUSH1 0x0 REVERT JUMPDEST PUSH1 0x0 PUSH2 0xED1 DUP3 PUSH2 0xBCE JUMP JUMPDEST SWAP2 POP PUSH2 0xEDC DUP4 PUSH2 0xBCE JUMP JUMPDEST SWAP3 POP DUP3 DUP3 SUB SWAP1 POP DUP2 DUP2 GT ISZERO PUSH2 0xEF4 JUMPI PUSH2 0xEF3 PUSH2 0xE34 JUMP JUMPDEST JUMPDEST SWAP3 SWAP2 POP POP JUMP INVALID LOG2 PUSH5 0x6970667358 0x22 SLT KECCAK256 0xCF 0xE1 0xB0 0xD6 DUP16 CREATE JUMPI PUSH4 0x1D5FA2B7 DUP12 0x5D PUSH10 0x6EF5662882895546CAF5 0xDB BYTE ADD PUSH5 0xC796BB6473 PUSH16 0x6C634300081200330000000000000000 "
				},
				"gasEstimates": {
					"creation": {
						"codeDepositCost": "1036400",
						"executionCost": "infinite",
						"totalCost": "infinite"
					},
					"external": {
						"availableTokens()": "infinite",
						"buyTicket(uint256)": "infinite",
						"buyTokens(uint256)": "infinite",
						"contract_address()": "2602",
						"exchangeTokens(uint256)": "infinite",
						"getWinner()": "infinite",
						"mintTokens(uint256)": "infinite",
						"myTokensBalance()": "infinite",
						"owner()": "2558",
						"poolPrize()": "infinite",
						"ticket_price()": "2430",
						"yourTickets()": "infinite"
					},
					"internal": {
						"tokenPrice(uint256)": "infinite"
					}
				},
				"methodIdentifiers": {
					"availableTokens()": "69bb4dc2",
					"buyTicket(uint256)": "67dd74ca",
					"buyTokens(uint256)": "3610724e",
					"contract_address()": "966b3514",
					"exchangeTokens(uint256)": "40477126",
					"getWinner()": "8e7ea5b2",
					"mintTokens(uint256)": "97304ced",
					"myTokensBalance()": "4d3a2cbc",
					"owner()": "8da5cb5b",
					"poolPrize()": "835a1fae",
					"ticket_price()": "19d41c69",
					"yourTickets()": "591d4698"
				}
			},
			"storageLayout": {
				"storage": [
					{
						"astId": 450,
						"contract": "Lottery/lottery.sol:lottery",
						"label": "token",
						"offset": 0,
						"slot": "0",
						"type": "t_contract(ERC20Basic)345"
					},
					{
						"astId": 452,
						"contract": "Lottery/lottery.sol:lottery",
						"label": "owner",
						"offset": 0,
						"slot": "1",
						"type": "t_address"
					},
					{
						"astId": 454,
						"contract": "Lottery/lottery.sol:lottery",
						"label": "contract_address",
						"offset": 0,
						"slot": "2",
						"type": "t_address"
					},
					{
						"astId": 457,
						"contract": "Lottery/lottery.sol:lottery",
						"label": "created_tokens",
						"offset": 0,
						"slot": "3",
						"type": "t_uint256"
					},
					{
						"astId": 622,
						"contract": "Lottery/lottery.sol:lottery",
						"label": "ticket_price",
						"offset": 0,
						"slot": "4",
						"type": "t_uint256"
					},
					{
						"astId": 627,
						"contract": "Lottery/lottery.sol:lottery",
						"label": "id_address_ticket",
						"offset": 0,
						"slot": "5",
						"type": "t_mapping(t_address,t_array(t_uint256)dyn_storage)"
					},
					{
						"astId": 631,
						"contract": "Lottery/lottery.sol:lottery",
						"label": "random_number_address",
						"offset": 0,
						"slot": "6",
						"type": "t_mapping(t_uint256,t_address)"
					},
					{
						"astId": 634,
						"contract": "Lottery/lottery.sol:lottery",
						"label": "randNonce",
						"offset": 0,
						"slot": "7",
						"type": "t_uint256"
					},
					{
						"astId": 637,
						"contract": "Lottery/lottery.sol:lottery",
						"label": "buyed_tickets",
						"offset": 0,
						"slot": "8",
						"type": "t_array(t_uint256)dyn_storage"
					}
				],
				"types": {
					"t_address": {
						"encoding": "inplace",
						"label": "address",
						"numberOfBytes": "20"
					},
					"t_array(t_uint256)dyn_storage": {
						"base": "t_uint256",
						"encoding": "dynamic_array",
						"label": "uint256[]",
						"numberOfBytes": "32"
					},
					"t_contract(ERC20Basic)345": {
						"encoding": "inplace",
						"label": "contract ERC20Basic",
						"numberOfBytes": "20"
					},
					"t_mapping(t_address,t_array(t_uint256)dyn_storage)": {
						"encoding": "mapping",
						"key": "t_address",
						"label": "mapping(address => uint256[])",
						"numberOfBytes": "32",
						"value": "t_array(t_uint256)dyn_storage"
					},
					"t_mapping(t_uint256,t_address)": {
						"encoding": "mapping",
						"key": "t_uint256",
						"label": "mapping(uint256 => address)",
						"numberOfBytes": "32",
						"value": "t_address"
					},
					"t_uint256": {
						"encoding": "inplace",
						"label": "uint256",
						"numberOfBytes": "32"
					}
				}
			},
			"userdoc": {
				"kind": "user",
				"methods": {},
				"version": 1
			}
		}
	}
}